:100000000C308A00F72C0000FF00030E8301A100D2
:100010000A08A0008A010408A2007708A300780853
:10002000A4007908A5007A08A60003170D08031399
:10003000A70003170F080313A80003170C080313E6
:10004000A90003170E080313AA00831383128C3030
:100050008400801E2D288C1A54288C308400801D2A
:1000600033288C195728220884002308F700240815
:10007000F8002508F9002608FA00270803178D0064
:100080000313280803178F000313290803178C0094
:1000900003132A0803178E00031320088A00210E79
:1000A0008300FF0E7F0E09008A110A12E02D8A15C7
:1000B0000A1200280A108A100A118207003400343C
:1000C0000034003400340034003400340034003490
:1000D0002A152A152A152A152A152A152A152A1528
:1000E0002A152A152A152A152A152A152A152A1518
:1000F0000D00201020102010A023F23AF037A0208D
:10010000D0262014E31420193019301020102010AC
:1001100020100D00BD1EBD1EBD1EBD1EBD1EBD1E80
:10012000BD1EBD1EBD1EBD1EBD1EBD1EBD1EBD1EF7
:10013000BD1EBD1E0D004236F532F4376F3A681011
:10014000C230F335653AE2306C36A029E337F2323B
:100150002021EF3072320D00BD1EBD1EBD1EBD1E22
:10016000BD1EBD1EBD1EBD1EBD1EBD1EBD1EBD1EB7
:10017000BD1EBD1EBD1EBD1E0D00D632F239E937B3
:100180006E10A539A0162039653BA01273100D0022
:100190003217300046002A152A152A152A152A1565
:1001A0002A152A152A152A152A152A152A152A1557
:1001B0002A152A152A150D00201020102010C422FF
:1001C000D02AD220C3244F27201D3A10D02A4E2AED
:1001D000CF292010201020100D003E10C830E2342E
:1001E000EC34F430E3346F372032651049194300A2
:1001F0003E10C3376E33E9337539E131E9376E109C
:10020000E4322028F532723AEF3900013E10C8304E
:10021000E234EC34F430E3346F3720326510E434E8
:100220007338EC30F93900013E10C830E234EC3458
:10023000F430E3346F37203265106937F4327239A5
:100240007538E3346F37E53900000B088316A100D9
:1002500083128B13831603178C170C1400000000F5
:100260000313A11F362983128B17831683120317DA
:100270000C087F390319992983160313A1008312EF
:1002800003170D0883160313A200831203170F0828
:1002900083160313A300210883120C1E4D29990015
:1002A00083162208831203178D0083160313230875
:1002B000831203178F0003130B088316A400831205
:1002C0008B13831603178C170C1400000000031304
:1002D000A41F6D2983128B178316831203170C0D2D
:1002E0000E0D7F390319992983160313A100831278
:1002F00003170D0883160313A200831203170F08B8
:1003000083160313A300210883120C1E852999006C
:1003100083162208831203178D0083160313230804
:10032000831203178F008D0A03198F0A03132529DF
:10033000031703130800303083162002F63E03181B
:10034000D7290A3E8312DB290030F800DA29831608
:10035000D7290130F800DA298316D7290230F800AE
:10036000DA298316D7290330F800DA298316D7292A
:100370000430F800DA298316D7290530F800DA2985
:100380008316D7290630F800DA298316D7290730D3
:10039000F800DA298316D7290830F800DA298316FD
:1003A000D7290930F800DA298316D72983160030B7
:1003B000F800831208000A148A100A118207A4297F
:1003C000A929AE29B329B829BD29C229C729CC2911
:1003D000D129831627080739F700270CF800F80CF5
:1003E000F80C1F30F80578082907840083132A18B1
:1003F0008317F801F80AF70AFE29F80DF70BFD2913
:10040000A8080319062A78088004092AF809780838
:1004100080058312080083162610A6102611A61147
:1004200001302102F73E03183A2A093E8312922A2C
:10043000831626143A2A8316A6143A2A83162614FB
:10044000A6143A2A831626153A2A83162615261448
:100450003A2A83162615A6143A2A83162615A614B8
:1004600026143A2A8316A6153A2A8316A6152614A8
:100470003A2A8316003026180130F7002208A70018
:100480007708A800AA01A9018312E921831622088E
:10049000A700A801AA018030A9008312E921003039
:1004A0008316A6180130F7002308A7007708A800D4
:1004B000AA01A9018312E92183162308A700A80134
:1004C000AA018030A9008312E92100308316261981
:1004D0000130F7002408A7007708A800AA01A901A5
:1004E0008312E92183162408A700A801AA018030FD
:1004F000A9008312E92100308316A6190130F70004
:100500002508A7007708A800AA01A9018312E921FC
:1005100083162508A700A801AA018030A90083122C
:10052000E92108000A108A140A118207182A1B2AD6
:100530001E2A222A252A292A2D2A322A352AA130A2
:100540008400831300080319B22A0230F800F7016F
:10055000F70BA82AF80BA72A9730F700F70BAE2A5B
:10056000800BA52A0800851DC42A683003178D005A
:1005700007308F00031325210D300C1EBD2A990072
:100580000A300C1EC12A99000711D8308316870043
:1005900083120911E0308316890083128710D83046
:1005A0008316870083128910E03083168900A0012A
:1005B0002008093C031C792B2008A10083124F0856
:1005C0008316A50083124E088316A40083124D08DB
:1005D0008316A30083124C088316A20083120B22F9
:1005E00083162008A10083124B088316A5008312EE
:1005F0004A088316A400831249088316A3008312B5
:1006000048088316A20083120B2283162008A1003B
:10061000831257088316A500831256088316A40078
:10062000831255088316A300831254088316A20070
:1006300083120B2283162008A1008312530883160D
:10064000A500831252088316A40083125108831652
:10065000A300831250088316A20083120B22831674
:100660002008A10083125B088316A50083125A0894
:100670008316A400831259088316A3008312580816
:100680008316A20083120B2283162008A100831276
:100690005F088316A50083125E088316A4008312E8
:1006A0005D088316A30083125C088316A2008312E0
:1006B0000B22D83083168700023083128706E03081
:1006C00083168900023083128906D830831687008A
:1006D000043083128706E0308316890004308312C9
:1006E0008906C8308316A10083129F228316A00AB0
:1006F000D82A83120800851D8C2BC33003178D0068
:100700000A308F00031325210D300C1E852B990014
:100710000A300C1E892B99008A01002808008316D4
:10072000A3012C30A200A1016B30A000220884009C
:100730008313231883170008A40020088400831360
:10074000211883172408800080080319AA2BA00A07
:10075000A20A962B83126B08303A0319CB2B713AFD
:1007600003198B2C033A0319A72C013A0319C32C44
:10077000073A0319DF2C013A0319F62C033A03193F
:100780000D2D013A0319242D1F3A03193B2D023A6E
:1007900003193D2DD32D851DDC2B723003178D00E1
:1007A00007308F00031325210D300C1ED52B990027
:1007B0000A300C1ED92B990031306D02FA3E031815
:1007C0008A2C063ED62D6E088316A00083129B212C
:1007D00078088316A000A10083124B088316A50099
:1007E00083124A088316A400831249088316A300C3
:1007F000831248088316A20083120B228A2C6E08EB
:100800008316A00083129B2178088316A000A10004
:1008100083124F088316A50083124E088316A40086
:1008200083124D088316A30083124C088316A2007E
:1008300083120B228A2C6E088316A00083129B2140
:1008400078088316A000A100831257088316A5001C
:10085000831256088316A400831255088316A3003A
:10086000831254088316A20083120B228A2C6E086E
:100870008316A00083129B2178088316A000A10094
:10088000831253088316A500831252088316A4000E
:10089000831251088316A300831250088316A20006
:1008A00083120B228A2C6E088316A00083129B21D0
:1008B00078088316A000A10083125B088316A500A8
:1008C00083125A088316A400831259088316A300C2
:1008D000831258088316A20083120B228A2C6E08FA
:1008E0008316A00083129B2178088316A000A10024
:1008F00083125F088316A50083125E088316A40086
:1009000083125D088316A30083125C088316A2007D
:1009100083120B22D32D851D9C2C823003178D0052
:1009200007308F00031325210D300C1E952C9900E4
:100930000A300C1E992C99008710D8308316870036
:1009400083128910E030831689008312D32D851D10
:10095000B82C8B3003178D0007308F00031325212F
:100960000D300C1EB12C99000A300C1EB52C9900CC
:100970008714D8308316870083128910E0308316DD
:1009800089008312D32D851DD42C983003178D0038
:1009900007308F00031325210D300C1ECD2C99003C
:1009A0000A300C1ED12C99008710D830831687008E
:1009B00083128914E030831689008312D32D851D9C
:1009C000F02CA53003178D0007308F00031325216D
:1009D0000D300C1EE92C99000A300C1EED2C9900EC
:1009E0000715D830831687008312D32D851D072D58
:1009F000B13003178D0007308F00031325210D3010
:100A00000C1E002D99000A300C1E042D99000711B0
:100A1000D830831687008312D32D851D1E2DBF303D
:100A200003178D0007308F00031325210D300C1E96
:100A3000172D99000A300C1E1B2D99000915E03066
:100A4000831689008312D32D851D352DCC300317D5
:100A50008D0007308F00031325210D300C1E2E2D25
:100A600099000A300C1E322D99000911E0308316CE
:100A700089008312D32DB322D32D851D4E2DDA305C
:100A800003178D0007308F00031325210D300C1E36
:100A9000472D99000A300C1E4B2D990064308316A7
:100AA000A10083129F22851D642DE63003178D005F
:100AB00007308F00031325210D300C1E5D2D99008A
:100AC0000A300C1E612D990064308316A100831238
:100AD0009F22851D7A2DEA3003178D0007308F0085
:100AE000031325210D300C1E732D99000A300C1EA6
:100AF000772D990064308316A10083129F22851DF3
:100B0000902DEE3003178D0007308F000313252141
:100B10000D300C1E892D99000A300C1E8D2D990068
:100B200064308316A10083129F22851DA62DF2300A
:100B300003178D0007308F00031325210D300C1E85
:100B40009F2D99000A300C1EA32D99006430831646
:100B5000A10083129F22851DBC2DF63003178D0046
:100B600007308F00031325210D300C1EB52D990081
:100B70000A300C1EB92D990064308316A10083122F
:100B80009F22851DD22DFA3003178D0007308F006C
:100B9000031325210D300C1ECB2D99000A300C1E9D
:100BA000CF2D99007B238A110A120A2E0A148A106B
:100BB0000A158207E32BFF2B1B2C372C532C6F2C91
:100BC0008C1EE02D1A08EA00411C162E6A08233CF0
:100BD0000319EE2D6A080D3C031D0B2E4110EE018A
:100BE0003630ED00EC012C30EB006D0884008313EF
:100BF0006E1883170008EF006B08840083136C18CD
:100C000083176F08800080080319092EEB0AED0A8C
:100C1000F52D8F2B162E4008083C031C162E36305F
:100C20004007840083136A088000C00A6A082D3CCC
:100C3000031D2C2E4114EB01EC013630840083138C
:100C40006B0884076C085A208000003803192B2E8B
:100C5000EC0AEB0A1D2EC0018C128A110A123328ED
:100C60000B08ED008B13831603178C170C14000070
:100C7000000083120313ED1B8B1703186D2E03174F
:100C80000C087F390313ED0003170D080313EE0062
:100C900003170F080313EF006D080C1E4D2E99006B
:100CA0006E0803178D0003136F0803178F000313DB
:100CB0000B08F0008B13831603178C170C1400001D
:100CC0000000F01F682E831203138B17831603177F
:100CD00083120313EC0B6D2E8D2E03170C0D0E0DCE
:100CE0007F390313ED0003170D080313EE000317FC
:100CF0000F080313EF006D080C1E7C2E99006E0880
:100D000003178D0003136F0803178F008D0A031953
:100D10008F0A03100313EC0B302E0800ED1BA12EDD
:100D20000F30F7006C0EF7050A30770203189B2E80
:100D30003030F7079D2E6D08F70777080C1E9E2EA2
:100D400099000F30EC050A306C020318A92E3030E0
:100D5000AB2EED136D08EC076C080C1EAD2E990040
:100D600008003E10C337ED366137E4373A10252CC2
:100D7000A016A012D80680373E10C434F232E331F8
:100D8000E9376E10D424CD2252003E10C434F23222
:100D9000E331E9376E10D3214F2945003E10413829
:100DA000E13361392028EF39E931E9376E003E102F
:100DB000C131F434F6307210D037F334E3346F3786
:100DC0002026EF31613600013E10C131F434F63097
:100DD0007210D037F334E3346F37202BE939693A96
:100DE00061003E10C131F434F6307210C3326E3AF5
:100DF00065376110CC37E3306C003E10C432F330FD
:100E0000633A693B6139A0216537F432EE30202620
:100E1000EF31613600013E10C131F434F63072100A
:100E2000C3326E3A65376110D634F334F4300001C2
:100E30003E10C432F330633A693B6139A021653713
:100E4000F432EE30202BE939693A61003E10C139A5
:100E5000E933EE30E3346F372028F532723A6F1001
:100E600031003E10C139E933EE30E3346F372028CA
:100E7000F532723A6F1032003E10C139E933EE306C
:100E8000E3346F372028F532723A6F1033003E108A
:100E9000C139E933EE30E3346F372028F532723A46
:100EA0006F1034003E10C139E933EE30E3346F3750
:100EB0002028F532723A6F1035003E10C139E933FF
:100EC000EE30E3346F372028F532723A6F10360077
:100ED0003E10D23AF434EE30203265107039F532DB
:100EE000E23000000D1FA020633A693BE131E93791
:100EF0006E10ED30EE3A613620326510F03A653909
:100F0000F43700013E104138E13361392028EF39D0
:100F1000E931E9376E003E10C131F434F630721019
:100F2000D037F334E3346F372026EF3161360001D8
:100F30003E10C131F434F6307210D037F334E3345C
:100F40006F37202BE939693A61003E10C131F43422
:100F5000F6307210C3326E3A65376110CC37E33029
:100F60006C003E10C432F330633A693B6139A02112
:100F70006537F432EE302026EF31613600013E1045
:100F8000C131F434F6307210C3326E3A65376110F5
:100F9000D634F334F43000013E10C432F330633AF7
:100FA000693B6139A0216537F432EE30202BE939F5
:100FB000693A61000D1F2029E539653AE537A0330C
:100FC0006537653961362E17AE1000010D1F2014EC
:100FD000B51400010D1F2014B41400010D1F2014BE
:100FE000B31400010D1F2014B21400010D1F2014B2
:0C0FF000B11400010D1F2014B01400000B
:101000008316941A0B288312E4018316141D0B28EF
:101010008312E417831683126408E40AEA00EA08DC
:10102000031D172814138C1D1328130814166A089F
:10103000803C03191B286A087F3C03182D28FF30C9
:10104000EB006B08930014168C11831614182628D5
:10105000F8018312141AF80ABF2AEA080319BF2AF2
:1010600001306A02433E8400831314138C1D36281A
:10107000130814168000851D6E2801306A02433E55
:10108000840083130008EB00B13003178D00063095
:101090008F0003100C300313EC008A1130268A15E0
:1010A0006A08EC003730ED008A118E268A15203050
:1010B0000C1E582899002D300C1E5C2899002030F9
:1010C0000C1E602899006B08EC003730ED008A1187
:1010D0008E268A150D300C1E6B28990001306A028D
:1010E000433E840083130008C2004208EB006B08F3
:1010F0000A3A03199A28063A0319AE287C3A0319CA
:10110000C228013A0319E028033A0319FE28013ADC
:1011100003191C29073A03193529013A03194E29E5
:10112000033A03196729893A03198029023A0319F6
:1011300084298729851DAD28BC3003178D00063012
:101140008F008A11031325218A150D300C1EA62845
:1011500099000A300C1EAA2899008729851DC128EC
:10116000C53003178D0006308F008A110313252127
:101170008A150D300C1EBA2899000A300C1EBE28A4
:1011800099008729851DD528CE3003178D0006309C
:101190008F008A11031325218A150D300C1ECE28CD
:1011A00099000A300C1ED22899008710D830831677
:1011B000870083128910E030831689008312872903
:1011C000851DF328D73003178D0006308F008A1154
:1011D000031325218A150D300C1EEC2899000A30C6
:1011E0000C1EF02899008714D830831687008312CC
:1011F0008910E0308316890083128729851D112903
:10120000E43003178D0006308F008A110313252167
:101210008A150D300C1E0A2999000A300C1E0E2961
:1012200099008710D8308316870083128914E03024
:101230008316890083128729851D2F29F130031712
:101240008D0006308F008A11031325218A150D3079
:101250000C1E282999000A300C1E2C29990007150C
:10126000D8308316870083128729851D4829FD30D1
:1012700003178D0006308F008A11031325218A156C
:101280000D300C1E412999000A300C1E4529990089
:101290000711D8308316870083128729851D61299D
:1012A0000B3003178D0007308F008A11031325219F
:1012B0008A150D300C1E5A2999000A300C1E5E2921
:1012C00099000915E0308316890083128729851D4E
:1012D0007A29183003178D0007308F008A11031305
:1012E00025218A150D300C1E732999000A300C1E19
:1012F000772999000911E030831689008312872924
:101300008A11B3228A1587298A117B238A156B08D3
:101310000F3C0318BB296B08193C031CBB29851D16
:10132000A229263003178D0007308F008A1103137E
:1013300025218A150D300C1E9B2999000A300C1EA0
:101340009F29990010306B02EC008316A1008312D4
:101350004B088316A50083124A088316A400831243
:1013600049088316A300831248088316A2008A1135
:1013700083120B228A156B081F3C0318EF296B0898
:10138000293C031CEF29851DD629313003178D0018
:1013900007308F008A11031325218A150D300C1E8A
:1013A000CF2999000A300C1ED329990020306B02F6
:1013B000EC008316A10083124F088316A500831248
:1013C0004E088316A40083124D088316A3008312CF
:1013D0004C088316A2008A1183120B228A156B080F
:1013E0002F3C0318232A6B08393C031C232A851D34
:1013F0000A2A3C3003178D0007308F008A1103132F
:1014000025218A150D300C1E032A99000A300C1E66
:10141000072A990030306B02EC008316A10083127A
:1014200057088316A500831256088316A40083125A
:1014300055088316A300831254088316A2008A114C
:1014400083120B228A156B083F3C0318572A6B083E
:10145000493C031C572A851D3E2A473003178D003F
:1014600007308F008A11031325218A150D300C1EB9
:10147000372A99000A300C1E3B2A990040306B0233
:10148000EC008316A100831253088316A500831273
:1014900052088316A400831251088316A3008312F6
:1014A00050088316A2008A1183120B228A156B083A
:1014B0004F3C03188B2A6B08593C031C8B2A851D53
:1014C000722A523003178D0007308F008A110313E0
:1014D00025218A150D300C1E6B2A99000A300C1E2E
:1014E0006F2A990050306B02EC008316A100831222
:1014F0005B088316A50083125A088316A400831282
:1015000059088316A300831258088316A2008A1173
:1015100083120B228A156B085F3C0318BF2A6B08E5
:10152000693C031CBF2A851DA62A5D3003178D0068
:1015300007308F008A11031325218A150D300C1EE8
:101540009F2A99000A300C1EA32A990060306B0272
:10155000EC008316A10083125F088316A500831296
:101560005E088316A40083125D088316A30083120D
:101570005C088316A2008A1183120B228A158C1133
:101580008A110A1233283E10D232F332F432613714
:10159000E4372E172E000B08E5008B138316031774
:1015A0008C170C140000000083120313E51B8B172B
:1015B00003170C087F390319212B0313E5000317C8
:1015C0000D080313E60003170F080313E70065086F
:1015D0000C1EE82A9900660803178D00031367089C
:1015E00003178F0003130B08E8008B1383160317F0
:1015F0008C170C140000000083120313E81B8B17D8
:1016000003170C0D0E0D7F390319212B0313E50071
:1016100003170D080313E60003170F080313E70071
:1016200065080C1E112B9900660803178D00031323
:10163000670803178F008D0A03198F0A0313CB2A3B
:1016400003170313080008308316850083128501F1
:101650008316860183128601D83083168700831291
:101660008701831688018312880183160910891067
:101670000911891183128901AB018B1BAB178B13E5
:10168000C8308316A1008A1183129F228A15AB1BD2
:101690008B17851DB62B683003178D0000308F0027
:1016A0000313CB22793003178D0000308F00031312
:1016B000CB228A3003178D0000308F000313CB221A
:1016C0009B3003178D0000308F000313CB22AC300A
:1016D00003178D0000308F000313CB22BD3003179A
:1016E0008D0000308F0003100313AB018B1BAB1771
:1016F0008B130830EC008A1130268A15AB1B8B1730
:10170000C83003178D0000308F000313CB22C23086
:1017100003178D0000308F0003100313AB018B1BE8
:10172000AB178B130730EC008A1130268A15AB1BE0
:101730008B17CA3003178D0000308F000313CB22A4
:1017400020300C1EA12B99000D300C1EA52B9900EA
:10175000CB3003178D0000308F000313CB22DC3019
:1017600003178D0000308F000313CB22851DCF2B74
:10177000ED3003178D0000308F000313AB018B1B7E
:10178000AB178B138A1125218A15AB1B8B170D30D4
:101790000C1EC82B99000A300C1ECC2B99000C3063
:1017A000831693008312AB018B1BAB178B13C830CE
:1017B0008316A1008A1183129F228A15AB1B8B17F7
:1017C000851DF92BF83003178D0000308F000313AF
:1017D000AB018B1BAB178B138A1125218A15AB1B11
:1017E0008B170D300C1EF22B99000A300C1EF62BB5
:1017F00099003030C8003130C9003230CA0033306F
:10180000CB003430CC003530CD003630CE00373010
:10181000CF004030D0004130D1004230D2004330C0
:10182000D3004430D4004530D5004630D600473090
:10183000D7002C30D8002D30D9002E30DA002F30D0
:10184000DB002830DC002930DD002A30DE003830B3
:10185000DF00AB018B1BAB178B13C8308316A100C5
:101860008A1183129F228A15AB1B8B17851D4F2C63
:10187000063003178D0001308F000313AB018B1B63
:10188000AB178B138A1125218A15AB1B8B170D30D3
:101890000C1E482C99000A300C1E4C2C990009147F
:1018A000E0308316890083120715D830831687002D
:1018B00083120915E0308316890083128714D8300B
:1018C0008316870083128914E030831689008312FF
:1018D000AB018B1BAB178B13C8308316A1008A1189
:1018E00083129F228A15AB1B8B170910E0308316D9
:1018F000890083120711D8308316870083120911DB
:10190000E0308316890083128710D8308316870051
:1019100083128910E030831689008312AB018B1B80
:10192000AB178B13C8308316A1008A1183129F2234
:101930008A15AB1B8B170914E030831689008312BC
:101940000715D8308316870083120915E0308316F7
:10195000890083128714D830831687008312891474
:10196000E030831689008312AB018B1BAB178B13FE
:10197000C8308316A1008A1183129F228A15AB1BDF
:101980008B170711D8308316870083120911E030B6
:101990008316890083128710D8308316870083123C
:1019A0008910E030831689008312851DEE2C1430D7
:1019B00003178D0001308F000313AB018B1BAB1796
:1019C0008B138A1125218A15AB1B8B170D300C1E2A
:1019D000E72C99000A300C1EEB2C990083168C160C
:1019E0008C15C03083128B048A150A124F2D030800
:1019F0001F398300713083168F0090010F08031781
:101A000087110C3003139900A23098009030831294
:101A10009800D83083168700D83087000A309300AA
:101A2000093083129400FF308316930036308312FE
:101A30009400831611148312C0014110E301E201E6
:101A40000330E400831603170908C0398900031323
:101A50001F129F120030031788008312870188012C
:101A6000890183130313AC01AD01AE01AF01B001D5
:101A7000B101B201B301B401B501B601B701B801BA
:101A8000B901BA01BB01BC01BD01BE01BF01C30167
:101A9000C401C501C601C701E001E101232B4F2D9F
:021AA0006300E1
:04400E00D42C0007A7
:00000001FF
;PIC16F887
;CRC=9268  CREATED="16-nov.-21 00:37"
