:100000000D308A002A2D0000FF00030E8301A1009D
:100010000A08A0008A010408A2007708A300780853
:10002000A4007908A5007A08A60003170D08031399
:10003000A70003170F080313A80003170C080313E6
:10004000A90003170E080313AA00831383128C3030
:100050008400801E2D288C1A54288C308400801D2A
:1000600033288C195728220884002308F700240815
:10007000F8002508F9002608FA00270803178D0064
:100080000313280803178F000313290803178C0094
:1000900003132A0803178E00031320088A00210E79
:1000A0008300FF0E7F0E09008A110A12F32D8A15B4
:1000B0000A1200280A108A100A118207003400343C
:1000C0000034003400340034003400340034003490
:1000D0002A152A152A152A152A152A152A152A1528
:1000E0002A152A152A152A152A152A152A152A1518
:1000F0000D00201020102010A023F23AF037A0208D
:10010000D0262014E31420193019301020102010AC
:1001100020100D00BD1EBD1EBD1EBD1EBD1EBD1E80
:10012000BD1EBD1EBD1EBD1EBD1EBD1EBD1EBD1EF7
:10013000BD1EBD1E0D004236F532F4376F3A681011
:10014000C230F335653AE2306C36A029E337F2323B
:100150002021EF3072320D00BD1EBD1EBD1EBD1E22
:10016000BD1EBD1EBD1EBD1EBD1EBD1EBD1EBD1EB7
:10017000BD1EBD1EBD1EBD1E0D00D632F239E937B3
:100180006E10A539A0162039653BA01273100D0022
:100190003117350044002A152A152A152A152A1563
:1001A0002A152A152A152A152A152A152A152A1557
:1001B0002A152A152A150D00201020102010C422FF
:1001C000D02AD220C3244F27201D3A10D02A4E2AED
:1001D000CF292010201020100D00473975386F10DE
:1001E00041284D10A831291032183218201D3A101C
:1001F00042215321A0182E182039653BA020000071
:100200003E10C830E234EC34F430E3346F3720323F
:100210006510491943003E10C3376E33E933753911
:10022000E131E9376E10E4322028F532723AEF39C5
:1002300000013E10C830E234EC34F430E3346F3760
:1002400020326510E4347338EC30F93900013E1087
:10025000C830E234EC34F430E3346F3720326510C8
:100260006937F43272397538E3346F37E539000095
:100270000B088316A10083128B13831603178C17A8
:100280000C14000000000313A11F492983128B17CF
:100290008316831203170C087F390319AC298316C0
:1002A0000313A100831203170D0883160313A20082
:1002B000831203170F0883160313A3002108831268
:1002C0000C1E6029990083162208831203178D00E3
:1002D000831603132308831203178F0003130B08DD
:1002E0008316A40083128B13831603178C170C1428
:1002F000000000000313A41F802983128B178316AC
:10030000831203170C0D0E0D7F390319AC298316C8
:100310000313A100831203170D0883160313A20011
:10032000831203170F0883160313A30021088312F7
:100330000C1E9829990083162208831203178D003A
:10034000831603132308831203178F008D0A0319E2
:100350008F0A03133829031703130800303083165C
:100360002002F63E0318EA290A3E8312EE290030E5
:10037000F800ED298316EA290130F800ED298316EB
:10038000EA290230F800ED298316EA290330F80043
:10039000ED298316EA290430F800ED298316EA29AD
:1003A0000530F800ED298316EA290630F800ED291A
:1003B0008316EA290730F800ED298316EA29083068
:1003C000F800ED298316EA290930F800ED29831693
:1003D000EA2983160030F800831208000A148A10F4
:1003E0000A118207B729BC29C129C629CB29D029DE
:1003F000D529DA29DF29E429831627080739F700E8
:10040000270CF800F80CF80C1F30F80578082907BD
:10041000840083132A188317F801F80AF70A112AAF
:10042000F80DF70B102AA8080319192A7808800478
:100430001C2AF80978088005831208008316261004
:10044000A6102611A61101302102F73E03184D2AED
:10045000093E8312A52A831626144D2A8316A61454
:100460004D2A83162614A6144D2A831626154D2AC6
:100470008316261526144D2A83162615A6144D2AF2
:1004800083162615A61426144D2A8316A6154D2A62
:100490008316A61526144D2A83160030261801301F
:1004A000F7002208A7007708A800AA01A901831273
:1004B000FC2183162208A700A801AA018030A90008
:1004C0008312FC2100308316A6180130F7002308A0
:1004D000A7007708A800AA01A9018312FC218316AE
:1004E0002308A700A801AA018030A9008312FC21DB
:1004F0000030831626190130F7002408A70077087A
:10050000A800AA01A9018312FC2183162408A700D0
:10051000A801AA018030A9008312FC2100308316B3
:10052000A6190130F7002508A7007708A800AA013E
:10053000A9018312FC2183162508A700A801AA019E
:100540008030A9008312FC2108000A108A140A11C5
:1005500082072B2A2E2A312A352A382A3C2A402A79
:10056000452A482AA1308400831300080319C52AAC
:100570000230F800F701F70BBB2AF80BBA2A9730C4
:10058000F700F70BC12A800BB82A0800851DD72A6F
:100590007B3003178D0007308F00031338210D3097
:1005A0000C1ED02A99000A300C1ED42A9900091179
:1005B000E0308316890083120711D8308316870034
:1005C00083128910E0308316890083128710D83097
:1005D00083168700A0012008093C031C8C2B2008EF
:1005E000A10083124F088316A50083124E088316BC
:1005F000A40083124D088316A30083124C088316AF
:10060000A20083121E2283162008A10083124B0829
:100610008316A50083124A088316A4008312490892
:100620008316A300831248088316A20083121E2299
:1006300083162008A100831257088316A500831291
:1006400056088316A400831255088316A30083124C
:1006500054088316A20083121E2283162008A100CC
:10066000831253088316A500831252088316A40030
:10067000831251088316A300831250088316A20028
:1006800083121E2283162008A10083125B088316A2
:10069000A50083125A088316A400831259088316F2
:1006A000A300831258088316A20083121E22831609
:1006B0002008A10083125F088316A50083125E083C
:1006C0008316A40083125D088316A30083125C08BE
:1006D0008316A20083121E22E030831689000230A6
:1006E00083128906D830831687000230831287066A
:1006F000E03083168900043083128906D8308316CF
:100700008700043083128706C8308316A100831245
:10071000B2228316A00AEB2A83120800851D9F2BA4
:10072000DE3003178D000A308F00031338210D309F
:100730000C1E982B99000A300C1E9C2B99008A01E4
:10074000002808008316A3012C30A200A1016B3001
:10075000A000220884008313231883170008A40034
:100760002008840083132118831724088000800840
:100770000319BD2BA00AA20AA92B83126B08303AD9
:100780000319DE2B713A03199E2C033A0319BA2C74
:10079000013A0319D62C073A0319F22C013A03192E
:1007A000092D033A0319202D013A0319372D1F3A59
:1007B00003194E2D023A0319502DE62D851DEF2BFE
:1007C000853003178D0007308F00031338210D305B
:1007D0000C1EE82B99000A300C1EEC2B99003130CE
:1007E0006D02FA3E03189D2C063EE92D6E08831615
:1007F000A0008312AE2178088316A000A100831206
:100800004B088316A50083124A088316A40083129E
:1008100049088316A300831248088316A200831296
:100820001E229D2C6E088316A0008312AE2178082C
:100830008316A000A10083124F088316A50083121F
:100840004E088316A40083124D088316A30083125A
:100850004C088316A20083121E229D2C6E0883165C
:10086000A0008312AE2178088316A000A100831295
:1008700057088316A500831256088316A400831216
:1008800055088316A300831254088316A20083120E
:100890001E229D2C6E088316A0008312AE217808BC
:1008A0008316A000A100831253088316A5008312AB
:1008B00052088316A400831251088316A3008312E2
:1008C00050088316A20083121E229D2C6E088316E8
:1008D000A0008312AE2178088316A000A100831225
:1008E0005B088316A50083125A088316A40083129E
:1008F00059088316A300831258088316A200831296
:100900001E229D2C6E088316A0008312AE2178084B
:100910008316A000A10083125F088316A50083122E
:100920005E088316A40083125D088316A300831259
:100930005C088316A20083121E22E62D851DAF2CB3
:10094000953003178D0007308F00031338210D30C9
:100950000C1EA82C99000A300C1EAC2C9900891092
:10096000E0308316890083128710D8308316870001
:100970008312E62D851DCB2C9E3003178D0007308A
:100980008F00031338210D300C1EC42C99000A303F
:100990000C1EC82C99008914E0308316890083123C
:1009A0008710D830831687008312E62D851DE72C2B
:1009B000AB3003178D0007308F00031338210D3043
:1009C0000C1EE02C99000A300C1EE42C99008910B2
:1009D000E0308316890083128714D830831687008D
:1009E0008312E62D851D032DB83003178D000730C7
:1009F0008F00031338210D300C1EFC2C99000A3097
:100A00000C1E002D99000915E03083168900831211
:100A1000E62D851D1A2DC43003178D0007308F0079
:100A2000031338210D300C1E132D99000A300C1EB3
:100A3000172D99000911E030831689008312E62DE5
:100A4000851D312DD23003178D0007308F00031321
:100A500038210D300C1E2A2D99000A300C1E2E2D27
:100A600099000715D830831687008312E62D851D5F
:100A7000482DDF3003178D0007308F000313382116
:100A80000D300C1E412D99000A300C1E452D990089
:100A90000711D830831687008312E62DC622E62D73
:100AA000851D612DED3003178D0007308F00031376
:100AB00038210D300C1E5A2D99000A300C1E5E2D67
:100AC000990064308316A1008312B222851D772D10
:100AD000F93003178D0007308F00031338210D30D4
:100AE0000C1E702D99000A300C1E742D9900643074
:100AF0008316A1008312B222851D8D2DCA300317E3
:100B00008D000A308F00031338210D300C1E862D06
:100B100099000A300C1E8A2D990064308316A100BA
:100B20008312B222851DA32DCE3003178D000A300B
:100B30008F00031338210D300C1E9C2D99000A30B4
:100B40000C1EA02D990064308316A1008312B222DE
:100B5000851DB92DD23003178D000A308F00031385
:100B600038210D300C1EB22D99000A300C1EB62D06
:100B7000990064308316A1008312B222851DCF2D07
:100B8000D63003178D000A308F00031338210D3043
:100B90000C1EC82D99000A300C1ECC2D9900643013
:100BA0008316A1008312B222851DE52DDA300317CA
:100BB0008D000A308F00031338210D300C1EDE2DFE
:100BC00099000A300C1EE22D99008E238A110A1218
:100BD0001D2E0A148A100A158207F62B122C2E2CB1
:100BE0004A2C662C822C8C1EF32D1A08EA00411C1C
:100BF000292E6A08233C0319012E6A080D3C031DA7
:100C00001E2E4110EE013630ED00EC012C30EB00D1
:100C10006D08840083136E1883170008EF006B08BB
:100C2000840083136C1883176F08800080080319F1
:100C30001C2EEB0AED0A082EA22B292E4008083C98
:100C4000031C292E36304007840083136A08800075
:100C5000C00A6A082D3C031D3F2E4114EB01EC0134
:100C60003630840083136B0884076C085A20800098
:100C7000003803193E2EEC0AEB0A302EC0018C120C
:100C80008A110A1233280B08ED008B138316031701
:100C90008C170C140000000083120313ED1B8B173C
:100CA0000318802E03170C087F390313ED00031778
:100CB0000D080313EE0003170F080313EF006D0870
:100CC0000C1E602E99006E0803178D0003136F0829
:100CD00003178F0003130B08F0008B138316031701
:100CE0008C170C1400000000F01F7B2E83120313DE
:100CF0008B178316031783120313EC0B802EA02E81
:100D000003170C0D0E0D7F390313ED0003170D08AB
:100D10000313EE0003170F080313EF006D080C1EFA
:100D20008F2E99006E0803178D0003136F080317A9
:100D30008F008D0A03198F0A03100313EC0B432E47
:100D40000800ED1BB42E0F30F7006C0EF7050A30CB
:100D500077020318AE2E3030F707B02E6D08F70774
:100D600077080C1EB12E99000F30EC050A306C028A
:100D70000318BC2E3030BE2EED136D08EC076C0846
:100D80000C1EC02E990008003E10C337ED366137A7
:100D9000E4373A10252CA016A012D80680373E1052
:100DA000C434F232E331E9376E10D424CD2252003C
:100DB0003E10C434F232E331E9376E10D3214F29AB
:100DC00045003E104138E13361392028EF39E931DF
:100DD000E9376E003E10C131F434F6307210D0376E
:100DE000F334E3346F372026EF31613600013E10D3
:100DF000C131F434F6307210D037F334E3346F3746
:100E0000202BE939693A61003E10C131F434F630E3
:100E10007210C3326E3A65376110CC37E3306C0024
:100E20003E10C432F330633A693B6139A021653723
:100E3000F432EE302026EF31613600013E10C13130
:100E4000F434F6307210C3326E3A65376110D6341E
:100E5000F334F43000013E10C432F330633A693B9E
:100E60006139A0216537F432EE30202BE939693A37
:100E700061003E10C139E933EE30E3346F3720288A
:100E8000F532723A6F1031003E10C139E933EE305D
:100E9000E3346F372028F532723A6F1032003E107B
:100EA000C139E933EE30E3346F372028F532723A36
:100EB0006F1033003E10C139E933EE30E3346F3741
:100EC0002028F532723A6F1034003E10C139E933F0
:100ED000EE30E3346F372028F532723A6F10350068
:100EE0003E10C139E933EE30E3346F372028F53254
:100EF000723A6F1036003E10D23AF434EE3020329F
:100F000065107039F532E23000000D1FA020633A01
:100F1000693BE131E9376E10ED30EE3A613620324F
:100F20006510F03A6539F43700013E104138E1337D
:100F300061392028EF39E931E9376E003E10C131BF
:100F4000F434F6307210D037F334E3346F372026A0
:100F5000EF31613600013E10C131F434F6307210C9
:100F6000D037F334E3346F37202BE939693A610025
:100F70003E10C131F434F6307210C3326E3A653728
:100F80006110CC37E3306C003E10C432F330633A6A
:100F9000693B6139A0216537F432EE302026EF310C
:100FA000613600013E10C131F434F6307210C332A4
:100FB0006E3A65376110D634F334F43000013E10D8
:100FC000C432F330633A693B6139A0216537F432AA
:100FD000EE30202BE939693A61000D1F2029E539EF
:100FE000653AE537A0336537653961362E17AE109F
:0A0FF00000010D1F2014B5140001CC
:101000008316941A0B288312E4018316141D0B28EF
:101010008312E417831683126408E40AEA00EA08DC
:10102000031D192814138316141C14288312130883
:1010300014166A08803C03191D286A087F3C0318AF
:101040002F28FF30EB006B08930014168C118316C9
:1010500014182828F801111FF80AC52A8312EA0873
:101060000319C42A01306A02433E84008313141317
:101070008316141C39288312130814168000851D4A
:10108000722801306A02433E840083130008EB009B
:10109000C43003178D0006308F0003100C3003138B
:1010A000EC008A1143268A156A08EC003730ED00FF
:1010B0008A11A1268A1520300C1E5C2899002D303B
:1010C0000C1E6028990020300C1E642899006B08C3
:1010D000EC003730ED008A11A1268A150D300C1E68
:1010E0006F28990001306A02433E84008313000890
:1010F000C2004208EB006B080A3A03199E28063A20
:101100000319B2287C3A0319C628013A0319E428C6
:10111000033A03190229013A03192029073A03194E
:101120003929013A03195229033A03196B29893ADB
:1011300003198429023A031988298C29851DB128AD
:10114000CF3003178D0006308F008A11031338212A
:101150008A150D300C1EAA2899000A300C1EAE28E4
:1011600099008C29851DC528D83003178D000630BD
:101170008F008A11031338218A150D300C1EBE28EA
:1011800099000A300C1EC22899008C29851DD92887
:10119000E13003178D0006308F008A1103133821C8
:1011A0008A150D300C1ED22899000A300C1ED62844
:1011B00099008910E0308316890083128710D83097
:1011C0008316870083128C29851DF728EA300317C0
:1011D0008D0006308F008A11031338218A150D30D7
:1011E0000C1EF02899000A300C1EF428990089146E
:1011F000E0308316890083128710D8308316870069
:1012000083128C29851D1529F73003178D000630B0
:101210008F008A11031338218A150D300C1E0E29F8
:1012200099000A300C1E122999008910E0308316AB
:10123000890083128714D8308316870083128C2983
:10124000851D3329043003178D0007308F008A1164
:10125000031338218A150D300C1E2C2999000A30F1
:101260000C1E302999000915E0308316890083127D
:101270008C29851D4C29103003178D0007308F00F5
:101280008A11031338218A150D300C1E4529990047
:101290000A300C1E492999000911E0308316890093
:1012A00083128C29851D65291E3003178D00073098
:1012B0008F008A11031338218A150D300C1E5E2908
:1012C00099000A300C1E622999000715D830831640
:1012D000870083128C29851D7E292B3003178D00F2
:1012E00007308F008A11031338218A150D300C1E28
:1012F000772999000A300C1E7B2999000711D830F4
:101300008316870083128C298A11C6228A158C299C
:101310008A118E238A158C296B080F3C0318C0296B
:101320006B08193C031CC029851DA72939300317F8
:101330008D0007308F008A11031338218A150D3074
:101340000C1EA02999000A300C1EA4299900103007
:101350006B02EC008316A10083124B088316A500D4
:1013600083124A088316A400831249088316A30037
:10137000831248088316A2008A1183121E228A153E
:101380006B081F3C0318F4296B08293C031CF42943
:10139000851DDB29443003178D0007308F008A112B
:1013A000031338218A150D300C1ED42999000A30F8
:1013B0000C1ED829990020306B02EC008316A10086
:1013C00083124F088316A50083124E088316A400CB
:1013D00083124D088316A30083124C088316A200C3
:1013E0008A1183121E228A156B082F3C0318282AA3
:1013F0006B08393C031C282A851D0F2A4F30031720
:101400008D0007308F008A11031338218A150D30A3
:101410000C1E082A99000A300C1E0C2A9900303044
:101420006B02EC008316A100831257088316A500F7
:10143000831256088316A400831255088316A3004E
:10144000831254088316A2008A1183121E228A1561
:101450006B083F3C03185C2A6B08493C031C5C2A60
:10146000851D432A5A3003178D0007308F008A11DB
:10147000031338218A150D300C1E3C2A99000A30BE
:101480000C1E402A990040306B02EC008316A1002C
:10149000831253088316A500831252088316A400F2
:1014A000831251088316A300831250088316A200EA
:1014B0008A1183121E228A156B084F3C0318902A4A
:1014C0006B08593C031C902A851D772A6530031749
:1014D0008D0007308F008A11031338218A150D30D3
:1014E0000C1E702A99000A300C1E742A9900503084
:1014F0006B02EC008316A10083125B088316A50023
:1015000083125A088316A400831259088316A30075
:10151000831258088316A2008A1183121E228A158C
:101520006B085F3C0318C42A6B08693C031CC42A7F
:10153000851DAB2A703003178D0007308F008A118C
:10154000031338218A150D300C1EA42A99000A3085
:101550000C1EA82A990060306B02EC008316A100D3
:1015600083125F088316A50083125E088316A40009
:1015700083125D088316A30083125C088316A20001
:101580008A1183121E228A15831683128C118A11E6
:101590000A1233280D1F2014B41400010D1F20144B
:1015A000B31400010D1F2014B21400010D1F2014EC
:1015B000B11400010D1F2014B01400003E10D232EF
:1015C000F332F4326137E4372E172E000B08E500B2
:1015D0008B13831603178C170C1400000000831262
:1015E0000313E51B8B1703170C087F3903193C2BDA
:1015F0000313E50003170D080313E60003170F0894
:101600000313E70065080C1E032B990066080317F7
:101610008D000313670803178F0003130B08E800FE
:101620008B13831603178C170C1400000000831211
:101630000313E81B8B1703170C0D0E0D7F390319CD
:101640003C2B0313E50003170D080313E6000317F3
:101650000F080313E70065080C1E2C2B9900660881
:1016600003178D000313670803178F008D0A0319F2
:101670008F0A0313E62A03170313080008308316A2
:101680008500831285018316860183128601D83076
:1016900083168700831287018316880183128801CD
:1016A0008316091089100911891183128901AB0170
:1016B0008B1BAB178B13C8308316A1008A118312C2
:1016C000B2228A15AB1B8B17851DD22B68300317EE
:1016D0008D0000308F000313E622793003178D0050
:1016E00000308F000313E6228A3003178D0000308C
:1016F0008F000313E6229B3003178D0000308F000C
:101700000313E622AC3003178D0000308F00031363
:10171000E622BD3003178D0000308F000310031345
:10172000AB018B1BAB178B130830EC008A114326DF
:101730008A15AB1B8B17C83003178D0000308F0044
:101740000313E622C23003178D0000308F00031010
:101750000313AB018B1BAB178B130730EC008A1103
:1017600043268A15AB1B8B17CA3003178D00003038
:101770008F000313E62220300C1EBC2B99000D3085
:101780000C1EC02B9900CB3003178D0000308F004A
:101790000313E622DC3003178D0000308F000313A3
:1017A000E622E92BED3003178D0000308F00031384
:1017B000AB018B1BAB178B138A1138218A15AB1B1E
:1017C0008B170D300C1EE22B99000A300C1EE62BF5
:1017D0009900851D022C003003178D0001308F0009
:1017E0000313AB018B1BAB178B138A1138218A159E
:1017F000AB1B8B170D300C1EFB2B99000A300C1EF7
:10180000FF2B99000C30831693008312AB018B1BC6
:10181000AB178B13C8308316A1008A118312B22232
:101820008A15AB1B8B17851D2C2C0B3003178D00D5
:1018300001308F000313AB018B1BAB178B138A1185
:1018400038218A15AB1B8B170D300C1E252C9900E7
:101850000A300C1E292C99003030C8003130C900E4
:101860003230CA003330CB003430CC003530CD00BC
:101870003630CE003730CF004030D0004130D1007C
:101880004230D2004330D3004430D4004530D5003C
:101890004630D6004730D7002C30D8002D30D90044
:1018A0002E30DA002F30DB002830DC002930DD005C
:1018B0002A30DE003830DF00AB018B1BAB178B13F7
:1018C000C8308316A1008A118312B2228A15AB1B7D
:1018D0008B17851D822C193003178D0001308F0066
:1018E0000313AB018B1BAB178B138A1138218A159D
:1018F000AB1B8B170D300C1E7B2C99000A300C1E75
:101900007F2C99000914E030831689008312091591
:10191000E0308316890083120715D83083168700BC
:1019200083128914E0308316890083128714D8301B
:10193000831687008312AB018B1BAB178B13C83048
:101940008316A1008A118312B2228A15AB1B8B1752
:101950000910E0308316890083120911E0308316E4
:10196000890083120711D8308316870083128910EB
:10197000E0308316890083128710D83083168700E1
:101980008312AB018B1BAB178B13C8308316A100DE
:101990008A118312B2228A15AB1B8B170914E0300F
:1019A0008316890083120915E0308316890083129B
:1019B0000715D8308316870083128914E030831608
:1019C000890083128714D830831687008312AB01F5
:1019D0008B1BAB178B13C8308316A1008A1183129F
:1019E000B2228A15AB1B8B170911E03083168900D0
:1019F00083120711D8308316870083128910E030D4
:101A00008316890083128710D830831687008312CB
:101A1000851D212D273003178D0001308F00031302
:101A2000AB018B1BAB178B138A1138218A15AB1BAB
:101A30008B170D300C1E1A2D99000A300C1E1E2D0E
:101A4000990083168C168C15C03083128B048A156E
:101A50000A12832D03081F398300713083168F000B
:101A600090010F08031787110C3003139900A2305F
:101A70009800903083129800D83083168700D830B1
:101A800087000A309300093083129400FF308316D8
:101A90009300363083129400831611149117831229
:101AA000C0014110E301E2010330E4008316031793
:101AB0000908C039890003131F129F120030031751
:101AC0008800831287018801890183130313AC0105
:101AD000AD01AE01AF01B001B101B201B301B4017A
:101AE000B501B601B701B801B901BA01BB01BC012A
:101AF000BD01BE01BF01C301C401C501C601C701CB
:0A1B0000E001E1013E2B832D63009C
:04400E00D42CFF3F70
:00000001FF
;PIC16F887
;CRC=4E7C  CREATED="09-mar.-20 21:45"
