:100000000C308A00CC2C0000FF00030E8301A100FD
:100010000A08A0008A010408A2007708A300780853
:10002000A4007908A5007A08A60003170D08031399
:10003000A70003170F080313A80003170C080313E6
:10004000A90003170E080313AA00831383128C3030
:100050008400801E2D288C1A54288C308400801D2A
:1000600033288C195728220884002308F700240815
:10007000F8002508F9002608FA00270803178D0064
:100080000313280803178F000313290803178C0094
:1000900003132A0803178E00031320088A00210E79
:1000A0008300FF0E7F0E09008A110A12B52D8A15F2
:1000B0000A1200280A108A100A118207003400343C
:1000C0000034003400340034003400340034003490
:1000D0002A152A152A152A152A152A152A152A1528
:1000E0002A152A152A152A152A152A152A152A1518
:1000F0000D00201020102010A023F23AF037A0208D
:10010000D0262014E31420193019301020102010AC
:1001100020100D00BD1EBD1EBD1EBD1EBD1EBD1E80
:10012000BD1EBD1EBD1EBD1EBD1EBD1EBD1EBD1EF7
:10013000BD1EBD1E0D004236F532F4376F3A681011
:10014000C230F335653AE2306C36A029E337F2323B
:100150002021EF3072320D00BD1EBD1EBD1EBD1E22
:10016000BD1EBD1EBD1EBD1EBD1EBD1EBD1EBD1EB7
:10017000BD1EBD1EBD1EBD1E0D00D632F239E937B3
:100180006E10A539A0162039653BA01273100D0022
:100190003217300046002A152A152A152A152A1565
:1001A0002A152A152A152A152A152A152A152A1557
:1001B0002A152A152A150D00201020102010C422FF
:1001C000D02AD220C3244F27201D3A10D424C5267C
:1001D000D0272010201020100D003E10C830E2342F
:1001E000EC34F430E3346F372032651049194300A2
:1001F0003E10C3376E33E9337539E131E9376E109C
:10020000E4322028F532723AEF3900013E10C8304E
:10021000E234EC34F430E3346F3720326510E434E8
:100220007338EC30F93900013E10C830E234EC3458
:10023000F430E3346F37203265106937F4327239A5
:100240007538E3346F37E53900000B08F2008B1383
:10025000831603178C170C1400000000F21F3529B9
:10026000831203138B178316031783120C087F392D
:1002700003197529F2000D08F3000F08F400720845
:1002800003130C1E41299900730803178D0074088D
:100290008F0003130B08F5008B13831603178C17BD
:1002A0000C1400000000F51F5A29831203138B174A
:1002B0008316031783120C0D0E0D7F390319752950
:1002C000F2000D08F3000F08F400720803130C1E6F
:1002D00067299900730803178D0074088F008D0A31
:1002E00003198F0A0313252903170313080030305D
:1002F0007102F63E0318A5290A3EA8290030F8002D
:10030000A729A5290130F800A729A5290230F8005E
:10031000A729A5290330F800A729A5290430F8004A
:10032000A729A5290530F800A729A5290630F80036
:10033000A729A5290730F800A729A5290830F80022
:10034000A729A5290930F800A7290030F8000800DE
:100350000A148A100A1182077E29822986298A298D
:100360008E29922996299A299E29A2297C08073943
:10037000F7007C0CF800F80CF80C1F30F805780832
:10038000831620078400831321188317F801F80AC5
:10039000F70ACB29F80DF70BCA29FD080319D32951
:1003A00078088004D629F8097808800583120800A7
:1003B0007B10FB107B11FB1101307202F73E03181A
:1003C000FA29093E532A7B14FA29FB14FA297B14D3
:1003D000FB14FA297B15FA297B157B14FA297B1566
:1003E000FB14FA297B15FB147B14FA29FB15FA2957
:1003F000FB157B1400307B180130F7007308FC00FC
:100400007708FD008316A101A0018312B6217308AD
:10041000FC00FD018316A1018030A0008312B621EB
:100420000030FB180130F7007408FC007708FD006D
:100430008316A101A0018312B6217408FC00FD01FE
:100440008316A1018030A0008312B62100307B19F1
:100450000130F7007508FC007708FD008316A10144
:10046000A0018312B6217508FC00FD018316A101CD
:100470008030A0008312B6210030FB190130F70054
:100480007608FC007708FD008316A101A001831205
:10049000B6217608FC00FD018316A1018030A00082
:1004A0008312B62108000A108A140A118207E32970
:1004B000E529E729EA29EC29EF29F229F629F82983
:1004C0008910E0308316890083120911E030831609
:1004D000890083120710DC3083168700831287108F
:1004E000DC308316870001307202FC3E0318902A2C
:1004F000043E8312922A8914E03083168900902AE0
:100500000915E03083168900902A0714DC30831621
:100510008700902A8714DC3083168700902A831680
:10052000831208000A108A140A1182077B2A802A83
:10053000852A8A2A74308400831300080319AD2A9F
:100540000230F800F701F70BA32AF80BA22A973024
:10055000F700F70BA92A800BA02A08007208013ABD
:100560000319B92A033A0319CE2A013A0319E32AD7
:100570000E2B85140030831685000430F300FA300A
:10058000F40083129A22F30BC62AC82A8316BF2AC4
:10059000851000308316850083120E2B85140030E1
:1005A000831685000C30F300FA30F40083129A228F
:1005B000F30BDB2ADD2A8316D42A8510003083163C
:1005C000850083120E2B85140030831685000430BD
:1005D000F300FA30F40083129A22F30BF02AF22A85
:1005E0008316E92A8510003083168500FA30F4005E
:1005F00083129A2285140030831685000430F3009C
:10060000FA30F40083129A22F30B072B092B83167E
:10061000002B851000308316850083120800071D0B
:10062000202B353003178D0007308F000313252151
:100630000D300C1E192B99000A300C1E1D2B990031
:10064000051000308316850083128910E030831670
:10065000890083120911E030831689008312071084
:10066000DC308316870083128710DC308316870006
:10067000F1017108093C031C842B7108F2008312FC
:100680004F08F6004E08F5004D08F4004C08F30042
:10069000D8217108F2004B08F6004A08F500490815
:1006A000F4004808F300D8217108F2005708F6005A
:1006B0005608F5005508F4005408F300D8217108D5
:1006C000F2005308F6005208F5005108F4005008F3
:1006D000F300D8217108F2005B08F6005A08F50013
:1006E0005908F4005808F300D8210030831685001B
:1006F0000130831285067108F2006022C830F400D0
:100700009A22F10A8316392B0130F2008312AE22AD
:100710000800071D9A2BD33003178D0007308F0078
:10072000031325210D300C1E932B99000A300C1E4B
:10073000972B99008A0100280800F4012C30F3005F
:10074000F2016730F1007308840083137418831773
:100750000008F50071088400831372188317750868
:10076000800080080319B72BF10AF30AA32B67084E
:10077000303A0319E02B713A0319482C033A031954
:100780005C2C013A0319712C073A0319862C013AA3
:1007900003199B2C033A0319B02C013A0319C72CF7
:1007A0000F3A0319DE2C013A0319F32C033A03190B
:1007B000082D123A03191D2D023A03191F2DA92DD8
:1007C000071DF12B3F3003178D0007308F000313F7
:1007D00025210D300C1EEA2B99000A300C1EEE2B41
:1007E000990031306902FB3E0318472C053EAC2DC1
:1007F0006A08F10077217808F100F2004B08F60052
:100800004A08F5004908F4004808F300D821472CAD
:100810006A08F10077217808F100F2004F08F6002D
:100820004E08F5004D08F4004C08F300D821472C81
:100830006A08F10077217808F100F2005708F60005
:100840005608F5005508F4005408F300D821472C49
:100850006A08F10077217808F100F2005308F600E9
:100860005208F5005108F4005008F300D821472C35
:100870006A08F10077217808F100F2005B08F600C1
:100880005A08F5005908F4005808F300D821A92D9A
:10089000071D592C4F3003178D0007308F000313AD
:1008A00025210D300C1E522C99000A300C1E562C9E
:1008B0009900F2016022A92D071D6D2C58300317F5
:1008C0008D0007308F00031325210D300C1E662C80
:1008D00099000A300C1E6A2C99000130F200602247
:1008E000A92D071D822C623003178D0007308F0061
:1008F000031325210D300C1E7B2C99000A300C1E91
:100900007F2C99000230F2006022A92D071D972C40
:100910006C3003178D0007308F00031325210D3035
:100920000C1E902C99000A300C1E942C9900033058
:10093000F2006022A92D071DAC2C763003178D0024
:1009400007308F00031325210D300C1EA52C9900B4
:100950000A300C1EA92C99000430F2006022A92D47
:10096000071DC12C803003178D0007308F00031343
:1009700025210D300C1EBA2C99000A300C1EBE2CFD
:10098000990005140030831685008312A92D071DD8
:10099000D82C8C3003178D0007308F0003132521CE
:1009A0000D300C1ED12C99000A300C1ED52C99004C
:1009B00005100030831685008312A92D071DEF2C2A
:1009C0009A3003178D0007308F00031325210D3057
:1009D0000C1EE82C99000A300C1EEC2C99000130FA
:1009E000F200AE22A92D071D042DA13003178D00A2
:1009F00007308F00031325210D300C1EFD2C9900AC
:100A00000A300C1E012D99000230F200AE22A92DF1
:100A1000071D192DA83003178D0007308F00031311
:100A200025210D300C1E122D99000A300C1E162D9A
:100A300099000330F200AE22A92D0F23A92D071D26
:100A4000302DAF3003178D0007308F0003132521A1
:100A50000D300C1E292D99000A300C1E2D2D9900E9
:100A60006430F4009A22071D442DBB3003178D001B
:100A700007308F00031325210D300C1E3D2D9900EA
:100A80000A300C1E412D99006430F4009A22071D93
:100A9000582DBF3003178D0007308F000313252119
:100AA0000D300C1E512D99000A300C1E552D990049
:100AB0006430F4009A22071D6C2DC33003178D009B
:100AC00007308F00031325210D300C1E652D990072
:100AD0000A300C1E692D99006430F4009A22071D1B
:100AE000802DC73003178D0007308F000313252199
:100AF0000D300C1E792D99000A300C1E7D2D9900A9
:100B00006430F4009A22071D942DCB3003178D001A
:100B100007308F00031325210D300C1E8D2D9900F9
:100B20000A300C1E912D99006430F4009A22071DA2
:100B3000A82DCF3003178D0007308F000313252118
:100B40000D300C1EA12D99000A300C1EA52D990008
:100B500089238A110A12DF2D0A148A100A158207C6
:100B6000F82B082C182C282C382C8C1EB52D1A0884
:100B7000E600411CEB2D6608233C0319C32D6608D3
:100B80000D3C031DE02D4110EA013630E900E8017B
:100B90002C30E7006908840083136A188317000863
:100BA000EB00670884008313681883176B088000C4
:100BB00080080319DE2DE70AE90ACA2D9D2BEB2DCB
:100BC0004008083C031CEB2D36304007840083139B
:100BD00066088000C00A66082D3C031D012E4114E2
:100BE000E701E8013630840083136708840768084A
:100BF0005A20800000380319002EE80AE70AF22D77
:100C0000C0018C128A110A1233280B08E9008B13D9
:100C1000831603178C170C140000000083120313B3
:100C2000E91B8B1703183D2E03170C087F3903139C
:100C3000E90003170D080313EA0003170F08031355
:100C4000EB0069080C1E222E99006A0803178D001C
:100C500003136B0803178F0003130B08EC008B13AF
:100C6000831603178C170C14000000008312031363
:100C7000EC1B8B17E80B3D2E5D2E03170C0D0E0D94
:100C80007F390313E90003170D080313EA00031764
:100C90000F080313EB0069080C1E4C2E99006A081C
:100CA00003178D0003136B0803178F008D0A0319B8
:100CB0008F0A03100313E80B052E0800E91B712EA1
:100CC0000F30F700680EF7050A30770203186B2E15
:100CD0003030F7076D2E6908F70777080C1E6E2E67
:100CE00099000F30E8050A3068020318792E303079
:100CF0007B2EE9136908E80768080C1E7D2E990011
:100D000008003E10C337ED366137E4373A10252C22
:100D1000A016A012D80680273E10C434F232E33168
:100D2000E9376E10D424CD2252003E10C434F23282
:100D3000E331E9376E10D3214F2945003E10413889
:100D4000E133613920286539E937E43773003E1013
:100D5000C131F434F6307210D032F2346F326F1089
:100D600031003E10C131F434F6307210D032F2341A
:100D70006F326F1032003E10C131F434F630721011
:100D8000D032F2346F326F1033003E10C131F43480
:100D9000F6307210D032F2346F326F1034003E10E1
:100DA000C131F434F6307210CD34EE3AF4372022EB
:100DB000E531653761003E10C432F330633A693B78
:100DC0006139A0266937753A6F10C432E332EE30CC
:100DD00000013E10D437F13A6510C337723A6F0004
:100DE0003E10D437F13A6510CC30F2336F003E102C
:100DF000D437F13A6510C437623665003E10C13908
:100E0000E933EE30E3346F372028F532723A6F1051
:100E100031003E10C139E933EE30E3346F3720281A
:100E2000F532723A6F1032003E10C139E933EE30BC
:100E3000E3346F372028F532723A6F1033003E10DA
:100E4000C139E933EE30E3346F372028F532723A96
:100E50006F1034003E10C139E933EE30E3346F37A0
:100E60002028F532723A6F1035003E10D23AF43431
:100E7000EE30203265107039F532E23000000D1F7F
:100E8000A020633A693BE131E9376E10ED30EE3A6C
:100E9000613620326510F03A6539F43700013E10B2
:100EA0004138E133613920286539E937E437730087
:100EB0003E10C131F434F6307210D032F2346F3259
:100EC0006F1031003E10C131F434F6307210D03260
:100ED000F2346F326F1032003E10C131F434F6300C
:100EE0007210D032F2346F326F1033003E10C131C5
:100EF000F434F6307210D032F2346F326F103400A6
:100F00003E10C131F434F6307210CD34EE3AF4377D
:100F10002022E531653761003E10C432F330633A78
:100F2000693B6139A0266937753A6F10C432E332E4
:100F3000EE3000013E10D437F13A6510C337723AF3
:100F40006F003E10D437F13A6510CC30F2336F00A9
:100F50003E10D437F13A6510C437623665000D1F74
:100F60002029E539653AE537A033653765396136BB
:100F70002E17AE1000010D1F2014B51400010D1F17
:100F80002014B41400010D1F2014B31400010D1F10
:100F90002014B21400010D1F2014B11400010D1F04
:100FA0002014B01400003E10D232F332F432613714
:060FB000E4372E172E00AD
:101000008316941A0B288312E0018316141D0B28F3
:101010008312E017831683126008E00AE600E608F0
:10102000031D172814138C1D1328130814166608A3
:10103000803C03191B2866087F3C03182D28FF30CD
:10104000E7006708930014168C11831614182628DD
:10105000F8018312141AF80A9D2AE60803199D2A3A
:1010600001306602433E8400831314138C1D36281E
:10107000130814168000071D6E2801306602433ED7
:10108000840083130008E700813003178D000630C9
:101090008F0003100C300313E8008A1105268A150F
:1010A0006608E8003730E9008A115E268A1520308C
:1010B0000C1E582899002D300C1E5C2899002030F9
:1010C0000C1E602899006708E8003730E9008A1193
:1010D0005E268A150D300C1E6B28990001306602C1
:1010E000433E840083130008C2004208E7006708FB
:1010F0000A3A0319A328063A0319B7287C3A0319B8
:10110000CB28013A0319E328033A0319FC28013AD2
:1011100003191529073A03192E29013A03194729FA
:10112000033A03196029F73A03197929033A031995
:101130009229013A0319AB297C3A0319C429023ACE
:101140000319C829CB29071DB6288C3003178D0039
:1011500006308F008A11031325218A150D300C1ECD
:10116000AF2899000A300C1EB3289900CB29071D1F
:10117000CA28953003178D0006308F008A1103139B
:1011800025218A150D300C1EC32899000A300C1E2B
:10119000C7289900CB29071DDE289E3003178D0034
:1011A00006308F008A11031325218A150D300C1E7D
:1011B000D72899000A300C1EDB289900F2018A1109
:1011C00060228A15CB29071DF628A73003178D004A
:1011D00006308F008A11031325218A150D300C1E4D
:1011E000EF2899000A300C1EF32899000130F20014
:1011F0008A1160228A15CB29071D0F29B1300317E8
:101200008D0006308F008A11031325218A150D30B9
:101210000C1E082999000A300C1E0C299900023076
:10122000F2008A1160228A15CB29071D2829BB30BC
:1012300003178D0006308F008A11031325218A15AC
:101240000D300C1E212999000A300C1E2529990009
:101250000330F2008A1160228A15CB29071D41292B
:10126000C53003178D0006308F008A110313252126
:101270008A150D300C1E3A2999000A300C1E3E29A1
:1012800099000430F2008A1160228A15CB29071DCB
:101290005A29CF3003178D0006308F008A110313AF
:1012A00025218A150D300C1E532999000A300C1E79
:1012B0005729990005140030831685008312CB2925
:1012C000071D7329DB3003178D0006308F008A114C
:1012D000031325218A150D300C1E6C2999000A3044
:1012E0000C1E7029990005100030831685008312AA
:1012F000CB29071D8C29E93003178D0006308F009C
:101300008A11031325218A150D300C1E8529990099
:101310000A300C1E892999000130F2008A11AE2290
:101320008A15CB29071DA529F03003178D0006303B
:101330008F008A11031325218A150D300C1E9E295A
:1013400099000A300C1EA22999000230F2008A117D
:10135000AE228A15CB29071DBE29F73003178D0051
:1013600006308F008A11031325218A150D300C1EBB
:10137000B72999000A300C1EBB2999000330F200EE
:101380008A11AE228A15CB298A110F238A15CB29FF
:101390008A1189238A1567080F3C0318F529670805
:1013A000193C031CF529071DE629FE3003178D00A3
:1013B00006308F008A11031325218A150D300C1E6B
:1013C000DF2999000A300C1EE329990010306702CA
:1013D000E800F2004B08F6004A08F5004908F4005E
:1013E0004808F3008A11D8218A1567081F3C0318A2
:1013F0001F2A6708293C031C1F2A071D102A0930D1
:1014000003178D0007308F008A11031325218A15D9
:101410000D300C1E092A99000A300C1E0D2A990065
:1014200020306702E800F2004F08F6004E08F50091
:101430004D08F4004C08F3008A11D8218A1567087A
:101440002F3C0318492A6708393C031C492A071D09
:101450003A2A143003178D0007308F008A110313C6
:1014600025218A150D300C1E332A99000A300C1ED6
:10147000372A990030306702E800F2005708F6007A
:101480005608F5005508F4005408F3008A11D821D5
:101490008A1567083F3C0318732A6708493C031CF8
:1014A000732A071D642A1F3003178D0007308F0031
:1014B0008A11031325218A150D300C1E5D2A99000F
:1014C0000A300C1E612A990040306702E800F200E1
:1014D0005308F6005208F5005108F4005008F300D4
:1014E0008A11D8218A1567084F3C03189D2A67087E
:1014F000593C031C9D2A071D8E2A2A3003178D0094
:1015000007308F008A11031325218A150D300C1E18
:10151000872A99000A300C1E8B2A990050306702E6
:10152000E800F2005B08F6005A08F5005908F400DC
:101530005808F3008A11D8218A158C118A110A12D1
:1015400033280B08E1008B13831603178C170C1438
:101550000000000083120313E11B8B1703170C0814
:101560007F390319F72A0313E10003170D0803134A
:10157000E20003170F080313E30061080C1EBE2AE4
:101580009900620803178D000313630803178F0087
:1015900003130B08E4008B13831603178C170C142A
:1015A0000000000083120313E41B8B1703170C0DBC
:1015B0000E0D7F390319F72A0313E10003170D08F5
:1015C0000313E20003170F080313E30061080C1E66
:1015D000E72A9900620803178D00031363080317B5
:1015E0008F008D0A03198F0A0313A12A031703130F
:1015F00008008316850183128501831686018312F4
:101600008601DC30831687008312870183168801E8
:101610008312880183160910891009118911831218
:101620008901AB018B1BAB178B13C830F4008A11F7
:101630009A228A15AB1B8B17071D892B683003175D
:101640008D0000308F000313A122793003178D0025
:1016500000308F000313A1228A3003178D00003061
:101660008F000313A1229B3003178D0000308F00E1
:101670000313A122AC3003178D0000308F00031339
:10168000A122BD3003178D0000308F00031003131B
:10169000AB018B1BAB178B130830E8008A110526B2
:1016A0008A15AB1B8B17C83003178D0000308F00D5
:1016B0000313A122C23003178D0000308F000310E6
:1016C0000313AB018B1BAB178B130730E8008A1198
:1016D00005268A15AB1B8B17CA3003178D00003007
:1016E0008F000313A12220300C1E742B99000D30A3
:1016F0000C1E782B9900CB3003178D0000308F0023
:101700000313A122DC3003178D0000308F00031378
:10171000A122071DA22BED3003178D0000308F0092
:101720000313AB018B1BAB178B138A1125218A1571
:10173000AB1B8B170D300C1E9B2B99000A300C1E17
:101740009F2B99000A30831693008312AB018B1BE9
:10175000AB178B13C830F4008A119A228A15AB1B81
:101760008B17071DCA2BF83003178D0000308F0030
:101770000313AB018B1BAB178B138A1125218A1521
:10178000AB1B8B170D300C1EC32B99000A300C1E9F
:10179000C72B99003030C8003130C9003230CA0040
:1017A0003330CB003430CC003530CD003630CE0075
:1017B0003730CF004030D0004130D1004230D2002D
:1017C0004330D3004430D4004530D5004630D600F5
:1017D0004730D7002C30D8002D30D9002E30DA0019
:1017E0002F30DB00AB018B1BAB178B13C830F40021
:1017F0008A119A228A15AB1B8B17071D162C0630EF
:1018000003178D0001308F000313AB018B1BAB1747
:101810008B138A1125218A15AB1B8B170D300C1EDB
:101820000F2C99000A300C1E132C99000914E0307B
:1018300083168900831205140030831685008312F5
:101840008914E0308316890083120915E03083166D
:10185000890083120714DC308316870083128714F3
:10186000DC30831687008312AB018B1BAB178B1305
:10187000C830F4008A119A228A15AB1B8B17091005
:10188000E03083168900831205100030831685002E
:1018900083128910E0308316890083120911E03029
:1018A0008316890083120710DC30831687008312A9
:1018B0008710DC30831687008312AB018B1BAB17BC
:1018C0008B13C830F4008A119A228A15AB1B8B1730
:1018D0000914E03083168900831205140030831642
:1018E000850083128914E03083168900831209155C
:1018F000E0308316890083120714DC3083168700DA
:1019000083128714DC30831687008312AB018B1B94
:10191000AB178B13C830F4008A119A228A15AB1BBF
:101920008B17051000308316850083128910E03074
:101930008316890083120911E0308316890083120F
:101940000710DC308316870083128710DC30831683
:1019500087008312071DC32C143003178D0001303C
:101960008F000313AB018B1BAB178B138A1125213F
:101970008A15AB1B8B170D300C1EBC2C99000A303E
:101980000C1EC02C990083168C168C15C030831247
:101990008B048A150A12242D03081F398300713025
:1019A00083168F0090010F08031787110C30031363
:1019B0009900A2309800903083129800DC30831692
:1019C0008700DC3087000A309300093083129400CE
:1019D000FF3083169300363083129400831611145F
:1019E0008312C0014110DF01DE010330E0008316E5
:1019F00003170908C039890003131F129F12003012
:101A00000317880083128701880189018313031358
:101A1000AC01AD01AE01AF01B001B101B201B30142
:101A2000B401B501B601B701B801B901BA01BB01F2
:101A3000BC01BD01BE01BF01C301C401C501C60196
:0C1A4000C701DC01DD01F92A242D630040
:04400E00D42C0007A7
:00000001FF
;PIC16F887
;CRC=782E  CREATED="16-nov.-21 00:37"
