:100000000C308A00EB2C0000FF00030E8301A100DE
:100010000A08A0008A010408A2007708A300780853
:10002000A4007908A5007A08A60003170D08031399
:10003000A70003170F080313A80003170C080313E6
:10004000A90003170E080313AA00831383128C3030
:100050008400801E2D288C1A54288C308400801D2A
:1000600033288C195728220884002308F700240815
:10007000F8002508F9002608FA00270803178D0064
:100080000313280803178F000313290803178C0094
:1000900003132A0803178E00031320088A00210E79
:1000A0008300FF0E7F0E09008A110A12C82D8A15DF
:1000B0000A1200280A108A100A118207003400343C
:1000C0000034003400340034003400340034003490
:1000D0002A152A152A152A152A152A152A152A1528
:1000E0002A152A152A152A152A152A152A152A1518
:1000F0000D00201020102010A023F23AF037A0208D
:10010000D0262014E31420193019301020102010AC
:1001100020100D00BD1EBD1EBD1EBD1EBD1EBD1E80
:10012000BD1EBD1EBD1EBD1EBD1EBD1EBD1EBD1EF7
:10013000BD1EBD1E0D004236F532F4376F3A681011
:10014000C230F335653AE2306C36A029E337F2323B
:100150002021EF3072320D00BD1EBD1EBD1EBD1E22
:10016000BD1EBD1EBD1EBD1EBD1EBD1EBD1EBD1EB7
:10017000BD1EBD1EBD1EBD1E0D00D632F239E937B3
:100180006E10A539A0162039653BA01273100D0022
:100190003117350044002A152A152A152A152A1563
:1001A0002A152A152A152A152A152A152A152A1557
:1001B0002A152A152A150D00201020102010C422FF
:1001C000D02AD220C3244F27201D3A10D424C5267C
:1001D000D0272010201020100D00473975386F10DF
:1001E00041284D10A831291032183218201D3A101C
:1001F00042215321A0182E182039653BA020000071
:100200003E10C830E234EC34F430E3346F3720323F
:100210006510491943003E10C3376E33E933753911
:10022000E131E9376E10E4322028F532723AEF39C5
:1002300000013E10C830E234EC34F430E3346F3760
:1002400020326510E4347338EC30F93900013E1087
:10025000C830E234EC34F430E3346F3720326510C8
:100260006937F43272397538E3346F37E539000095
:100270000B08F2008B13831603178C170C14000065
:100280000000F21F4829831203138B1783160317EC
:1002900083120C087F3903198829F2000D08F30036
:1002A0000F08F400720803130C1E542999007308F8
:1002B00003178D0074088F0003130B08F5008B13D0
:1002C000831603178C170C1400000000F51F6D290E
:1002D000831203138B178316031783120C0D0E0D55
:1002E0007F3903198829F2000D08F3000F08F40084
:1002F000720803130C1E7A299900730803178D00E6
:1003000074088F008D0A03198F0A03133829031705
:100310000313080030307102F63E0318B8290A3E74
:10032000BB290030F800BA29B8290130F800BA29F1
:10033000B8290230F800BA29B8290330F800BA29E0
:10034000B8290430F800BA29B8290530F800BA29CC
:10035000B8290630F800BA29B8290730F800BA29B8
:10036000B8290830F800BA29B8290930F800BA29A4
:100370000030F80008000A148A100A118207912937
:10038000952999299D29A129A529A929AD29B1290D
:10039000B5297C080739F7007C0CF800F80CF80C3C
:1003A0001F30F8057808831620078400831321186E
:1003B0008317F801F80AF70ADE29F80DF70BDD2993
:1003C000FD080319E62978088004E929F809780866
:1003D0008005831208007B10FB107B11FB1101309C
:1003E0007202F73E03180D2A093E662A7B140D2A75
:1003F000FB140D2A7B14FB140D2A7B150D2A7B158B
:100400007B140D2A7B15FB140D2A7B15FB147B1422
:100410000D2AFB150D2AFB157B1400307B180130CB
:10042000F7007308FC007708FD008316A101A00106
:100430008312C9217308FC00FD018316A1018030DD
:10044000A0008312C9210030FB180130F7007408A6
:10045000FC007708FD008316A101A0018312C921C9
:100460007408FC00FD018316A1018030A0008312F6
:10047000C92100307B190130F7007508FC007708AE
:10048000FD008316A101A0018312C9217508FC009B
:10049000FD018316A1018030A0008312C921003024
:1004A000FB190130F7007608FC007708FD00831681
:1004B000A101A0018312C9217608FC00FD01831669
:1004C000A1018030A0008312C92108000A108A14FB
:1004D0000A118207F629F829FA29FD29FF29022A9B
:1004E000052A092A0B2A8910E03083168900831215
:1004F0000911E0308316890083120710DC3083165F
:10050000870083128710DC30831687000130720267
:10051000FC3E0318A32A043E8312A52A8914E03066
:1005200083168900A32A0915E03083168900A32ABF
:100530000714DC3083168700A32A8714DC30831667
:100540008700A32A8316831208000A108A140A114E
:1005500082078E2A932A982A9D2A74308400831356
:1005600000080319C02A0230F800F701F70BB62A79
:10057000F80BB52A9730F700F70BBC2A800BB32A8B
:1005800008007208013A0319CC2A033A0319E12A38
:10059000013A0319F62A212B8514003083168500B1
:1005A0000430F300FA30F4008312AD22F30BD92AA1
:1005B000DB2A8316D22A8510003083168500831229
:1005C000212B85140030831685000C30F300FA309F
:1005D000F4008312AD22F30BEE2AF02A8316E72AE9
:1005E00085100030831685008312212B851400307E
:1005F000831685000430F300FA30F4008312AD2234
:10060000F30B032B052B8316FC2A85100030831671
:100610008500FA30F4008312AD2285140030831671
:1006200085000430F300FA30F4008312AD22F30B9E
:100630001A2B1C2B8316132B851000308316850074
:1006400083120800071D332B483003178D00073035
:100650008F00031338210D300C1E2C2B99000A300B
:100660000C1E302B99000510003083168500831274
:100670008910E0308316890083120911E030831657
:10068000890083120710DC308316870083128710DD
:10069000DC3083168700F1017108093C031C972B9D
:1006A0007108F20083124F08F6004E08F5004D085D
:1006B000F4004C08F300EB217108F2004B08F6003F
:1006C0004A08F5004908F4004808F300EB217108D6
:1006D000F2005708F6005608F5005508F4005408D3
:1006E000F300EB217108F2005308F6005208F50000
:1006F0005108F4005008F300EB217108F2005B0888
:10070000F6005A08F5005908F4005808F300EB21E8
:100710000030831685000130831285067108F200CF
:100720007322C830F400AD22F10A83164C2B01303D
:10073000F2008312C1220800071DAD2BE63003171B
:100740008D0007308F00031338210D300C1EA62BAF
:1007500099000A300C1EAA2B99008A010028080073
:10076000F4012C30F300F2016730F10073088400CB
:100770008313741883170008F5007108840083132D
:10078000721883177508800080080319CA2BF10AB4
:10079000F30AB62B6708303A0319F32B713A0319A1
:1007A0005B2C033A03196F2C013A0319842C073A86
:1007B0000319992C013A0319AE2C033A0319C32CDF
:1007C000013A0319DA2C0F3A0319F12C013A0319F3
:1007D000062D033A03191B2D123A0319302D023A44
:1007E0000319322DBC2D071D042C523003178D0028
:1007F00007308F00031338210D300C1EFD2B99009C
:100800000A300C1E012C990031306902FB3E03189E
:100810005A2C053EBF2D6A08F1008A217808F100A4
:10082000F2004B08F6004A08F5004908F4004808B1
:10083000F300EB215A2C6A08F1008A217808F100B4
:10084000F2004F08F6004E08F5004D08F4004C0881
:10085000F300EB215A2C6A08F1008A217808F10094
:10086000F2005708F6005608F5005508F400540841
:10087000F300EB215A2C6A08F1008A217808F10074
:10088000F2005308F6005208F5005108F400500831
:10089000F300EB215A2C6A08F1008A217808F10054
:1008A000F2005B08F6005A08F5005908F4005808F1
:1008B000F300EB21BC2D071D6C2C623003178D005B
:1008C00007308F00031338210D300C1E652C990062
:1008D0000A300C1E692C9900F2017322BC2D071DF1
:1008E000802C6B3003178D0007308F0003133821E5
:1008F0000D300C1E792C99000A300C1E7D2C9900AD
:100900000130F2007322BC2D071D952C75300317A2
:100910008D0007308F00031338210D300C1E8E2CF4
:1009200099000A300C1E922C99000230F2007322BA
:10093000BC2D071DAA2C7F3003178D0007308F00B8
:10094000031338210D300C1EA32C99000A300C1E05
:10095000A72C99000330F2007322BC2D071DBF2C79
:10096000893003178D0007308F00031338210D30B5
:100970000C1EB82C99000A300C1EBC2C99000430B7
:10098000F2007322BC2D071DD42C933003178D0069
:1009900007308F00031338210D300C1ECD2C990029
:1009A0000A300C1ED12C99000514003083168500E6
:1009B0008312BC2D071DEB2C9F3003178D000730D1
:1009C0008F00031338210D300C1EE42C99000A30DF
:1009D0000C1EE82C99000510003083168500831248
:1009E000BC2D071D022DAD3003178D0007308F0081
:1009F000031338210D300C1EFB2C99000A300C1EFD
:100A0000FF2C99000130F200C122BC2D071D172DCB
:100A1000B43003178D0007308F00031338210D30D9
:100A20000C1E102D99000A300C1E142D9900023056
:100A3000F200C122BC2D071D2C2DBB3003178D00E9
:100A400007308F00031338210D300C1E252D99001F
:100A50000A300C1E292D99000330F200C122BC2D52
:100A60002223BC2D071D432DC23003178D000730F4
:100A70008F00031338210D300C1E3C2D99000A30D5
:100A80000C1E402D99006430F400AD22071D572D37
:100A9000CE3003178D0007308F00031338210D303F
:100AA0000C1E502D99000A300C1E542D99006430F4
:100AB000F400AD22071D6B2DD23003178D000730D7
:100AC0008F00031338210D300C1E642D99000A305D
:100AD0000C1E682D99006430F400AD22071D7F2D97
:100AE000D63003178D0007308F00031338210D30E7
:100AF0000C1E782D99000A300C1E7C2D9900643054
:100B0000F400AD22071D932DDA3003178D00073056
:100B10008F00031338210D300C1E8C2D99000A30E4
:100B20000C1E902D99006430F400AD22071DA72DF6
:100B3000DE3003178D0007308F00031338210D308E
:100B40000C1EA02D99000A300C1EA42D99006430B3
:100B5000F400AD22071DBB2DE23003178D000730D6
:100B60008F00031338210D300C1EB42D99000A306C
:100B70000C1EB82D99009C238A110A12F22D0A141A
:100B80008A100A1582070B2C1B2C2B2C3B2C4B2C70
:100B90008C1EC82D1A08E600411CFE2D6608233C59
:100BA0000319D62D66080D3C031DF32D4110EA01F3
:100BB0003630E900E8012C30E7006908840083132F
:100BC0006A1883170008EB0067088400831368180D
:100BD00083176B08800080080319F12DE70AE90AE2
:100BE000DD2DB02BFE2D4008083C031CFE2D3630B9
:100BF00040078400831366088000C00A66082D3C05
:100C0000031D142E4114E701E801363084008313DC
:100C10006708840768085A20800000380319132EDB
:100C2000E80AE70A052EC0018C128A110A1233283D
:100C30000B08E9008B13831603178C170C140000A4
:100C4000000083120313E91B8B170318502E0317A0
:100C50000C087F390313E90003170D080313EA009A
:100C600003170F080313EB0069080C1E352E9900BB
:100C70006A0803178D0003136B0803178F00031313
:100C80000B08EC008B13831603178C170C14000051
:100C9000000083120313EC1B8B17E80B502E702EF1
:100CA00003170C0D0E0D7F390313E90003170D0810
:100CB0000313EA0003170F080313EB0069080C1E67
:100CC0005F2E99006A0803178D0003136B08031742
:100CD0008F008D0A03198F0A03100313E80B182ED7
:100CE0000800E91B842E0F30F700680EF7050A3064
:100CF000770203187E2E3030F707802E6908F70739
:100D000077080C1E812E99000F30E8050A30680222
:100D100003188C2E30308E2EE9136908E807680816
:100D20000C1E902E990008003E10C337ED36613737
:100D3000E4373A10252CA016A012D80680273E10C2
:100D4000C434F232E331E9376E10D424CD2252009C
:100D50003E10C434F232E331E9376E10D3214F290B
:100D600045003E104138E133613920286539E937C3
:100D7000E43773003E10C131F434F6307210D032D3
:100D8000F2346F326F1031003E10C131F434F6305E
:100D90007210D032F2346F326F1032003E10C13117
:100DA000F434F6307210D032F2346F326F103300F8
:100DB0003E10C131F434F6307210D032F2346F325A
:100DC0006F1034003E10C131F434F6307210CD345F
:100DD000EE3AF4372022E531653761003E10C43227
:100DE000F330633A693B6139A0266937753A6F1071
:100DF000C432E332EE3000013E10D437F13A6510D0
:100E0000C337723A6F003E10D437F13A6510CC30D8
:100E1000F2336F003E10D437F13A6510C4376236B2
:100E200065003E10C139E933EE30E3346F372028D6
:100E3000F532723A6F1031003E10C139E933EE30AD
:100E4000E3346F372028F532723A6F1032003E10CB
:100E5000C139E933EE30E3346F372028F532723A86
:100E60006F1033003E10C139E933EE30E3346F3791
:100E70002028F532723A6F1034003E10C139E93340
:100E8000EE30E3346F372028F532723A6F103500B8
:100E90003E10D23AF434EE30203265107039F5321B
:100EA000E23000000D1FA020633A693BE131E937D1
:100EB0006E10ED30EE3A613620326510F03A653949
:100EC000F43700013E104138E1336139202865399B
:100ED000E937E43773003E10C131F434F630721054
:100EE000D032F2346F326F1031003E10C131F43421
:100EF000F6307210D032F2346F326F1032003E1082
:100F0000C131F434F6307210D032F2346F326F10D7
:100F100033003E10C131F434F6307210D032F23466
:100F20006F326F1034003E10C131F434F63072105D
:100F3000CD34EE3AF4372022E531653761003E10BA
:100F4000C432F330633A693B6139A0266937753A98
:100F50006F10C432E332EE3000013E10D437F13A64
:100F60006510C337723A6F003E10D437F13A6510FE
:100F7000CC30F2336F003E10D437F13A6510C437ED
:100F8000623665000D1F2029E539653AE537A03343
:100F90006537653961362E17AE1000010D1F20141C
:100FA000B51400010D1F2014B41400010D1F2014EE
:100FB000B31400010D1F2014B21400010D1F2014E2
:100FC000B11400010D1F2014B01400003E10D232E5
:0C0FD000F332F4326137E4372E172E00A4
:101000008316941A0B288312E0018316141D0B28F3
:101010008312E017831683126008E00AE600E608F0
:10102000031D192814138316141C14288312130883
:1010300014166608803C03191D2866087F3C0318B7
:101040002F28FF30E7006708930014168C118316D1
:1010500014182828F801111FF80AA32A8312E60899
:101060000319A22A01306602433E8400831314133D
:101070008316141C39288312130814168000071DC8
:10108000722801306602433E840083130008E700A3
:10109000943003178D0006308F0003100C300313BB
:1010A000E8008A1118268A156608E8003730E9003A
:1010B0008A1171268A1520300C1E5C2899002D306B
:1010C0000C1E6028990020300C1E642899006708C7
:1010D000E8003730E9008A1171268A150D300C1EA0
:1010E0006F28990001306602433E84008313000894
:1010F000C2004208E70067080A3A0319A728063A1F
:101100000319BB287C3A0319CF28013A0319E728B1
:10111000033A03190029013A03191929073A031957
:101120003229013A03194B29033A03196429F73A82
:1011300003197D29033A03199629013A0319AF29A6
:101140007C3A0319C829023A0319CC29D029071D72
:10115000BA289F3003178D0006308F008A110313C1
:1011600038218A150D300C1EB32899000A300C1E48
:10117000B7289900D029071DCE28A83003178D0065
:1011800006308F008A11031338218A150D300C1E8A
:10119000C72899000A300C1ECB289900D029071DBA
:1011A000E228B13003178D0006308F008A11031337
:1011B00038218A150D300C1EDB2899000A300C1ED0
:1011C000DF289900F2018A1173228A15D029071DA0
:1011D000FA28BA3003178D0006308F008A110313E6
:1011E00038218A150D300C1EF32899000A300C1E88
:1011F000F72899000130F2008A1173228A15D0294C
:10120000071D1329C43003178D0006308F008A1183
:10121000031338218A150D300C1E0C2999000A3051
:101220000C1E102999000230F2008A1173228A15CF
:10123000D029071D2C29CE3003178D0006308F00D2
:101240008A11031338218A150D300C1E25299900A7
:101250000A300C1E292999000330F2008A117322EA
:101260008A15D029071D4529D83003178D0006306F
:101270008F008A11031338218A150D300C1E3E2968
:1012800099000A300C1E422999000430F2008A119C
:1012900073228A15D029071D5E29E23003178D00BD
:1012A00006308F008A11031338218A150D300C1E69
:1012B000572999000A300C1E5B299900051400304B
:1012C000831685008312D029071D7729EE30031776
:1012D0008D0006308F008A11031338218A150D30D6
:1012E0000C1E702999000A300C1E742999000510F3
:1012F0000030831685008312D029071D9029FC3009
:1013000003178D0006308F008A11031338218A15C8
:101310000D300C1E892999000A300C1E8D29990068
:101320000130F2008A11C1228A15D029071DA9298E
:10133000033003178D0007308F008A110313382103
:101340008A150D300C1EA22999000A300C1EA62900
:1013500099000230F2008A11C1228A15D029071D96
:10136000C2290A3003178D0007308F008A1103133A
:1013700038218A150D300C1EBB2999000A300C1E2D
:10138000BF2999000330F2008A11C1228A15D029A1
:101390008A1122238A15D0298A119C238A15D029E3
:1013A00067080F3C0318FA296708193C031CFA293F
:1013B000071DEB29113003178D0007308F008A11AC
:1013C000031338218A150D300C1EE42999000A30C8
:1013D0000C1EE829990010306702E800F2004B0863
:1013E000F6004A08F5004908F4004808F3008A119D
:1013F000EB218A1567081F3C0318242A6708293C3B
:10140000031C242A071D152A1C3003178D000730E2
:101410008F008A11031338218A150D300C1E0E2AF5
:1014200099000A300C1E122A990020306702E80049
:10143000F2004F08F6004E08F5004D08F4004C0885
:10144000F3008A11EB218A1567082F3C03184E2AF6
:101450006708393C031C4E2A071D3F2A2730031713
:101460008D0007308F008A11031338218A150D3043
:101470000C1E382A99000A300C1E3C2A9900303084
:101480006702E800F2005708F6005608F500550814
:10149000F4005408F3008A11EB218A1567083F3CD9
:1014A0000318782A6708493C031C782A071D692A13
:1014B000323003178D0007308F008A110313382153
:1014C0008A150D300C1E622A99000A300C1E662AFD
:1014D000990040306702E800F2005308F600520815
:1014E000F5005108F4005008F3008A11EB218A1529
:1014F00067084F3C0318A22A6708593C031CA22A1C
:10150000071D932A3D3003178D0007308F008A1185
:10151000031338218A150D300C1E8C2A99000A30CD
:101520000C1E902A990050306702E800F2005B0818
:10153000F6005A08F5005908F4005808F3008A111B
:10154000EB218A15831683128C118A110A12332813
:101550000B08E1008B13831603178C170C14000083
:10156000000083120313E11B8B1703170C087F394C
:101570000319FE2A0313E10003170D080313E20009
:1015800003170F080313E30061080C1EC52A990016
:10159000620803178D000313630803178F000313FA
:1015A0000B08E4008B13831603178C170C14000030
:1015B000000083120313E41B8B1703170C0D0E0D91
:1015C0007F390319FE2A0313E10003170D080313E3
:1015D000E20003170F080313E30061080C1EEE2A54
:1015E0009900620803178D000313630803178F0027
:1015F0008D0A03198F0A0313A82A0317031308007F
:101600008316850183128501831686018312860164
:10161000DC308316870083128701831688018312CA
:101620008801831609108910091189118312890113
:10163000AB018B1BAB178B13C830F4008A11AD22A2
:101640008A15AB1B8B17071D912B683003178D0074
:1016500000308F000313A822793003178D0000306B
:101660008F000313A8228A3003178D0000308F00EB
:101670000313A8229B3003178D0000308F00031343
:10168000A822AC3003178D0000308F000313A8226E
:10169000BD3003178D0000308F0003100313AB0122
:1016A0008B1BAB178B130830E8008A1118268A159C
:1016B000AB1B8B17C83003178D0000308F0003134E
:1016C000A822C23003178D0000308F0003100313CF
:1016D000AB018B1BAB178B130730E8008A11182660
:1016E0008A15AB1B8B17CA3003178D0000308F0093
:1016F0000313A82220300C1E7B2B99000D300C1EEA
:101700007F2B9900CB3003178D0000308F0003131F
:10171000A822DC3003178D0000308F000313A822AD
:10172000A82BED3003178D0000308F000313AB01A1
:101730008B1BAB178B138A1138218A15AB1B8B17A8
:101740000D300C1EA12B99000A300C1EA52B990000
:10175000071DC12B003003178D0001308F000313CC
:10176000AB018B1BAB178B138A1138218A15AB1B6E
:101770008B170D300C1EBA2B99000A300C1EBE2B95
:1017800099000A30831693008312AB018B1BAB17B1
:101790008B13C830F4008A11AD228A15AB1B8B174E
:1017A000071DE92B0B3003178D0001308F00031349
:1017B000AB018B1BAB178B138A1138218A15AB1B1E
:1017C0008B170D300C1EE22B99000A300C1EE62BF5
:1017D00099003030C8003130C9003230CA0033308F
:1017E000CB003430CC003530CD003630CE00373031
:1017F000CF004030D0004130D1004230D2004330E1
:10180000D3004430D4004530D5004630D6004730B0
:10181000D7002C30D8002D30D9002E30DA002F30F0
:10182000DB00AB018B1BAB178B13C830F4008A11A4
:10183000AD228A15AB1B8B17071D352C19300317EA
:101840008D0001308F000313AB018B1BAB178B1383
:101850008A1138218A15AB1B8B170D300C1E2E2CCC
:1018600099000A300C1E322C99000914E0308316BE
:1018700089008312051400308316850083128914B1
:10188000E0308316890083120915E0308316890041
:1018900083120714DC308316870083128714DC3030
:1018A000831687008312AB018B1BAB178B13C830D9
:1018B000F4008A11AD228A15AB1B8B170910E0309A
:1018C0008316890083120510003083168500831269
:1018D0008910E0308316890083120911E0308316E5
:1018E000890083120710DC3083168700831287106B
:1018F000DC30831687008312AB018B1BAB178B1375
:10190000C830F4008A11AD228A15AB1B8B1709145D
:10191000E030831689008312051400308316850099
:1019200083128914E0308316890083120915E03090
:101930008316890083120714DC3083168700831214
:101940008714DC30831687008312AB018B1BAB1727
:101950008B13C830F4008A11AD228A15AB1B8B178C
:10196000051000308316850083128910E03083163D
:10197000890083120911E030831689008312071051
:10198000DC308316870083128710DC3083168700D3
:101990008312071DE22C273003178D0001308F00C2
:1019A0000313AB018B1BAB178B138A1138218A15DC
:1019B000AB1B8B170D300C1EDB2C99000A300C1E54
:1019C000DF2C990083168C168C15C03083128B0483
:1019D0008A150A12442D03081F39830071308316BB
:1019E0008F0090010F08031787110C300313990023
:1019F000A2309800903083129800DC308316870064
:101A0000DC3087000A309300093083129400FF30E5
:101A100083169300363083129400831611149117A5
:101A20008312C0014110DF01DE010330E0008316A4
:101A300003170908C039890003131F129F120030D1
:101A40000317880083128701880189018313031318
:101A5000AC01AD01AE01AF01B001B101B201B30102
:101A6000B401B501B601B701B801B901BA01BB01B2
:101A7000BC01BD01BE01BF01C301C401C501C60156
:0C1A8000C701DC01DD01002B442D6300D8
:04400E00D42CFF3F70
:00000001FF
;PIC16F887
;CRC=4DF6  CREATED="09-mar.-20 21:45"
