:1000000008308A0000280000FF00030E8301A100D1
:100010000A08A0008A010408A2007708A300780853
:10002000A4007908A5007A08A60003170D08031399
:10003000A70003170F080313A80003170C080313E6
:10004000A90003170E080313AA00831383128C3030
:100050008400801E2D288C1A54288C308400801D2A
:1000600033288C195728220884002308F700240815
:10007000F8002508F9002608FA00270803178D0064
:100080000313280803178F000313290803178C0094
:1000900003132A0803178E00031320088A00210E79
:1000A0008300FF0E7F0E09008A110A12DA2B8A11D3
:1000B0000A12302C0A108A100A1182070034003408
:1000C0000034003400340034003400340034003490
:1000D00000342A152A152A152A152A152A152A1533
:1000E0002A152A152A152A152A152A152A152A1518
:1000F0002A150D00201020102010A023F23AF0370E
:10010000A020D0262014E31420193019301020101C
:10011000201020100D00BD1EBD1EBD1EBD1EBD1E2B
:10012000BD1EBD1EBD1EBD1EBD1EBD1EBD1EBD1EF7
:10013000BD1EBD1EBD1E0D004236F532F4376F3AAE
:100140006810C230F335653AE2306C36A029E337E7
:10015000F2322021EF3072320D00BD1EBD1EBD1ED9
:10016000BD1EBD1EBD1EBD1EBD1EBD1EBD1EBD1EB7
:10017000BD1EBD1EBD1EBD1EBD1E0D00D632F239F8
:10018000E9376E10A539A0162039653BA01273100F
:100190000D003117300041002A152A152A152A159D
:1001A0002A152A152A152A152A152A152A152A1557
:1001B0002A152A152A152A150D00201020102010A6
:1001C000C327CE294F264110C42220224528552975
:1001D000C121C9274E10201020100D004739753855
:1001E0006F1041284D10A831291032183218201DE7
:1001F0003A1042215321A0182E182039653BA02027
:1002000000003E10C3376E33E9337539E131E93709
:100210006E10E4322028F532723AEF3900013E10B8
:100220004937E931E930EC34FA30E3346F372032C2
:100230006510491943003E104937E931E930EC3483
:10024000FA30E3346F3720326510ED37E43AEC379B
:10025000203AE9326D386F003E104937E931E93014
:10026000EC34FA30E3346F3720326510ED37E43A7E
:10027000EC3720387537F43773003E10C830E2345D
:10028000EC34F430E3346F37203265106937F432E0
:1002900072397538E3346F37E53900000B0883167F
:1002A000AA0083128B13831603178C170C140000FB
:1002B00000000313AA1F5F2983128B178316831272
:1002C00003170C087F390319C22983160313AA00E8
:1002D000831203170D0883160313AB008312031751
:1002E0000F0883160313AC002A0883120C1E76290C
:1002F000990083162B08831203178D0083160313AE
:100300002C08831203178F0003130B088316AD000C
:1003100083128B13831603178C170C140000000034
:100320000313AD1F962983128B17831683120317AD
:100330000C0D0E0D7F390319C22983160313AA0071
:10034000831203170D0883160313AB0083120317E0
:100350000F0883160313AC002A0883120C1EAE2963
:10036000990083162B08831203178D00831603133D
:100370002C08831203178F008D0A03198F0A0313A9
:100380004E2903170313080094138C1183162A08AF
:10039000831293000230941BD4298C1DCD29003088
:1003A0008316111B01308312F80008008316AD017B
:1003B0003030AC00AB01A030AA002C0884008313BD
:1003C0002D1883170008AE002A08840083132B1809
:1003D00083172E08800080080319F129AA0AAC0AA5
:1003E000DD294C302002F33E0318C52B0D3E83124D
:1003F000C92B071D0A2A693003178D0004308F00AE
:1004000003134E210D300C1E032A99000A300C1ED6
:10041000072A990083162108303A83120319202AEB
:10042000013A0319322A033A0319442A013A0319FB
:10043000562A773A0319682A143A03197A2A8B2A1A
:10044000071D312A723003178D0004308F0003130B
:100450004E210D300C1E2A2A99000A300C1E2E2A1D
:1004600099008B2A071D432A7A3003178D00043028
:100470008F0003134E210D300C1E3C2A99000A30C8
:100480000C1E402A99008B2A071D552A8530031718
:100490008D0004308F0003134E210D300C1E4E2AA8
:1004A00099000A300C1E522A99008B2A071D672AD0
:1004B000903003178D0004308F0003134E210D3050
:1004C0000C1E602A99000A300C1E642A99008B2A9F
:1004D000071D792A9B3003178D0004308F0003130A
:1004E0004E210D300C1E722A99000A300C1E762AFD
:1004F00099008B2A071D8B2AA63003178D00043024
:100500008F0003134E210D300C1E842A99000A30EF
:100510000C1E882A99008316C52B071D9E2AB03011
:1005200003178D0004308F0003134E210D300C1E75
:10053000972A99000A300C1E9B2A99008316C52B16
:10054000071DB12AB93003178D0004308F00031343
:100550004E210D300C1EAA2A99000A300C1EAE2A1C
:1005600099008316C52B071DC42AC23003178D00BE
:1005700004308F0003134E210D300C1EBD2A99004C
:100580000A300C1EC12A99008316C52B071DD72AD5
:10059000D03003178D0004308F0003134E210D302F
:1005A0000C1ED02A99000A300C1ED42A99008316FA
:1005B0002108303A83120319ED2A013A0319FF2A60
:1005C000033A0319112B013A0319232B773A031924
:1005D000352B143A0319472B582B071DFE2ADB3005
:1005E00003178D0004308F0003134E210D300C1EB5
:1005F000F72A99000A300C1EFB2A9900582B071D78
:10060000102BE33003178D0004308F0003134E21AD
:100610000D300C1E092B99000A300C1E0D2B990071
:10062000582B071D222BEE3003178D0004308F004E
:1006300003134E210D300C1E1B2B99000A300C1E8B
:100640001F2B9900582B071D342BF93003178D00F1
:1006500004308F0003134E210D300C1E2D2B9900FA
:100660000A300C1E312B9900582B071D462B0430E5
:1006700003178D0005308F0003134E210D300C1E23
:100680003F2B99000A300C1E432B9900582B071D55
:10069000582B0F3003178D0005308F0003134E21A8
:1006A0000D300C1E512B99000A300C1E552B990051
:1006B0008316C52B071D6B2B343003178D000430B8
:1006C0008F0003134E210D300C1E642B99000A304D
:1006D0000C1E682B9900071D7C2B3E3003178D00E4
:1006E00004308F0003134E210D300C1E752B990022
:1006F0000A300C1E792B99008316111411187E2BC9
:100700000A30AA008312C421FF308316AA00831284
:10071000C4218316111511198B2B8312071D9F2BD2
:100720004B3003178D0004308F0003134E210D3022
:100730000C1E982B99000A300C1E9C2B99008316D6
:1007400011141118A12B0C30AA008312C421FF3000
:100750008316AA008312C421831611151119AE2B1A
:100760008312071DC22B583003178D0004308F00F1
:1007700003134E210D300C1EBB2B99000A300C1EAA
:10078000BF2B99008316C52B831683128A110A1278
:10079000062C0A148A140A118207F929C42BC42BC7
:1007A000C42B8D2AA02AC42BC42BB32AC42BC62A3F
:1007B000C42B5A2B8C1EDA2B1A08F200451C122C63
:1007C0007208233C0319E82B72080D3C031D072C0B
:1007D00045108316A3013A30A200A1013030A000D9
:1007E000220884008313231883170008A40020081C
:1007F00084008313211883172408800080080319BC
:10080000042CA00AA20AF02B8312D629122C440829
:10081000083C031C122C3A304407840083137208EE
:100820008000C40A72082D3C031D2C2C451483162D
:10083000A001A1013A308400831320088407210815
:1008400083125A208000003803192B2C8316A10A2A
:10085000A00A1A2C8312C4018C128A110A1233289E
:100860008C118A110A1233283E10D23AF434EE3039
:10087000203265107039F532E23000013E105039F7
:100880006F316137E437A0366F3275366F10F4344C
:10089000E536F03700013E1050396F316137E437EB
:1008A000A0366F3275366F10F03A6E3AEF390001AC
:1008B0003E1050396F316137E437A0366F327536EC
:1008C0006F10E337ED3AEE34E330E3346F37E53958
:1008D00000000D1FA021EF366137E4372036EF31DD
:1008E000613600010D1F2029E539653AE530A03059
:1008F000201800010D1FA024EE31F232ED326E3AC5
:10090000613920386F39A01800010D1FA024EE3185
:10091000F232ED326E3A613920386F392019000118
:100920000D1FA024EE31F232ED326E3A61392038DB
:100930006F39A01900010D1F2022E531F232ED328E
:100940006E3A613920386F39A01800010D1FA020C0
:10095000F334673761392038EF39E931E9376E0010
:100960000D1F2028E13AF3307210F434E536F037E9
:1009700000010D1F2029653775326139203AE932AF
:100980006D386F000D1FA0216F37E634E73AF23063
:10099000E3346F3720326510F434E536F037000168
:1009A0000D1FA021EF366137E437203BE939693A62
:1009B0006137F43200010D1F2029E539653AE53031
:1009C000A030201800010D1FA024EE31F232ED32CC
:1009D0006E3A613920386F39A01800010D1FA0242C
:1009E000EE31F232ED326E3A613920386F3920192A
:1009F00000010D1FA024EE31F232ED326E3A613962
:100A000020386F39A01900010D1F2022E531F23284
:100A1000ED326E3A613920386F39A01800010D1F90
:100A2000A020F334673761392038EF39E931E937ED
:100A30006E000B08EA008B13831603178C170C1437
:100A40000000000083120313EA1B8B1703170C0826
:100A50007F3903196F2D0313EA0003170D080313E1
:100A6000EB0003170F080313EC006A080C1E362D69
:100A700099006B0803178D0003136C0803178F0090
:100A800003130B08ED008B13831603178C170C143C
:100A90000000000083120313ED1B8B1703170C0DCE
:100AA0000E0D7F3903196F2D0313EA0003170D088C
:100AB0000313EB0003170F080313EC006A080C1E66
:100AC0005F2D99006B0803178D0003136C08031743
:100AD0008F008D0A03198F0A0313192D03170313AF
:100AE00008000B08EB008B13831603178C170C14EC
:100AF0000000000083120313EB1B8B170318A92DB2
:100B000003170C087F390313EB0003170D080313B9
:100B1000EC0003170F080313ED006B080C1E8E2D5D
:100B200099006C0803178D0003136D0803178F00DD
:100B300003130B08EE008B13831603178C170C148A
:100B40000000000083120313EE1B8B17EA0BA92D84
:100B5000C92D03170C0D0E0D7F390313EB0003177E
:100B60000D080313EC0003170F080313ED006B08C7
:100B70000C1EB82D99006C0803178D0003136D0827
:100B800003178F008D0A03198F0A03100313EA0B52
:100B9000712D08000F30831685008312850183169E
:100BA000860183128601DF30831687008312870156
:100BB0008316880183128801831609108910091190
:100BC0008911831289016430EA006A30840083133A
:100BD00000080319F82D0230F800F701F70BEE2D8D
:100BE000F80BED2D9730F700F70BF42D800BEB2D64
:100BF000071D562E693003178D0000308F00031338
:100C000019257A3003178D0000308F000313192542
:100C10008B3003178D0000308F00031319259C3093
:100C200003178D0000308F0003131925AD30031713
:100C30008D0000308F0003131925BE3003178D007F
:100C400000308F00031008300313EA007125C9300B
:100C500003178D0000308F0003131925C3300317CD
:100C60008D0000308F00031007300313EA00712558
:100C7000CB3003178D0000308F000313192520306F
:100C80000C1E402E99000D300C1E442E9900CC30C5
:100C900003178D0000308F0003131925DD30031773
:100CA0008D0000308F00031319256B2EEE300317D3
:100CB0008D0000308F000313AB018B1BAB178B1320
:100CC0004E21AB1B8B170D300C1E642E99000A3081
:100CD0000C1E682E9900071D822E013003178D000F
:100CE00001308F000313AB018B1BAB178B134E210D
:100CF000AB1B8B170D300C1E7B2E99000A300C1E7F
:100D00007F2E99003030C6003130C7003230C80025
:100D10003330C9003430CA003530CB003630CC0017
:100D20003730CD00071DA92E0F3003178D0001307D
:100D30008F000313AB018B1BAB178B134E21AB1B27
:100D40008B170D300C1EA22E99000A300C1EA62EF9
:100D50009900071DC02E1B3003178D0001308F0036
:100D60000313AB018B1BAB178B134E21AB1B8B17E4
:100D70000D300C1EB92E99000A300C1EBD2E9900A4
:100D8000831611141118C22E8312AB018B1BAB17E3
:100D90008B130A308316AA008312C421AB1B8B1756
:100DA000AB018B1BAB178B13F0308316AA00831299
:100DB000C421AB1B8B17831611151119DD2E83125D
:100DC000071DF72E2C3003178D0001308F00031301
:100DD000AB018B1BAB178B134E21AB1B8B170D304D
:100DE0000C1EF02E99000A300C1EF42E990083166A
:100DF00011141118F92E8312AB018B1BAB178B1337
:100E00000C308316AA008312C421AB1B8B17AB01D5
:100E10008B1BAB178B13F0308316AA008312C421EF
:100E2000AB1B8B17831611151119142F8312071D75
:100E30002E2F3D3003178D0001308F000313AB01BF
:100E40008B1BAB178B134E21AB1B8B170D300C1E5E
:100E5000272F99000A300C1E2B2F990083168C1611
:100E60008C15C03083128B048A150A125928010888
:100E70000B1D442F0130AC070318AD0A0319AE0A4D
:100E80000319AF0A0B110108F7002C08F8002D0810
:100E9000F9002E08FA002F08EA00EA0CFA0CF90C07
:100EA000F80CF70C08006E086A02F7006B08F800EF
:100EB0006F08031C6F0FF8026C08F9007008031C20
:100EC000700FF9026D08FA007108031C710FFA0225
:0C0ED0008A150A128A288A150A12A62820
:1010000003081F398300713083168F0090010F0889
:10101000031787110C3003139900A2309800903009
:1010200083129800DF3083168700DF30870004309A
:1010300093002830831294008316941314138312A0
:10104000AF01AE01AD01AC0183160108C03906380D
:101050008100831281010B11C4014510E101E001FF
:10106000831603170908C039890003131F129F1242
:1010700000300317880083128701880189018313D8
:101080000313B001B101B201B301B401B501B6015E
:10109000B701B801B901BA01BB01BC01BD01BE0174
:1010A000BF01C001C101C201C301DE01DF018A111C
:1010B000CA2D8A158A1137278A157A08E900790816
:1010C000E8007808E7007708E6006908E5006808A6
:1010D000E4006708E3006608E2008A1137278A15F2
:1010E0007A08E5007908E4007808E3007708E20070
:1010F0006508ED006408EC006308EB006208EA0094
:101100006908F1006808F0006708EF006608EE0063
:101110008A11532F8A157A08ED007908EC007808B7
:10112000EB007708EA00ED08031DA428EC08031D76
:10113000A4286B081D3C0318AF28FF3A031DA42800
:101140006A08833C0318AF288A116B2F8A1565083B
:10115000E9006408E8006308E7006208E6006D281B
:0211600063002A
:04400E00D42CFF3F70
:00000001FF
;PIC16F887
;CRC=2F67  CREATED="07-mar.-20 22:54"
