:1000000007308A001B2F0000FF00030E8301A100B0
:100010000A08A0008A010408A2007708A300780853
:10002000A4007908A5007A08A60003170D08031399
:10003000A70003170F080313A80003170C080313E6
:10004000A90003170E080313AA00831383128C3030
:100050008400801E2D288C1A4E2822088400230834
:10006000F7002408F8002508F9002608FA002708F8
:1000700003178D000313280803178F0003132908A3
:1000800003178C0003132A0803178E00031320089C
:100090008A00210E8300FF0E7F0E09008A110A12CA
:1000A000652C0A108A100A118207003400340034CB
:1000B00000340034003400340034003400342A1595
:1000C0002A152A152A152A152A152A152A152A1538
:1000D0002A152A152A152A152A152A152A150D005A
:1000E000A023F23AF037A020D0262014E3142019E0
:1000F000301930100D00BD1EBD1EBD1EBD1EBD1E23
:10010000BD1EBD1EBD1EBD1EBD1EBD1EBD1EBD1E17
:10011000BD1EBD1EBD1E0D004236F532F4376F3ACE
:100120006810C230F335653AE2306C36A029E33707
:10013000F2322021EF3072320D00BD1EBD1EBD1EF9
:10014000BD1EBD1EBD1EBD1EBD1EBD1EBD1EBD1ED7
:10015000BD1EBD1EBD1EBD1EBD1E0D00D632F23918
:10016000E9376E10A539A0162039653BA01273102F
:100170000D003217300046002A152A152A152A15B7
:100180002A152A152A152A152A152A152A152A1577
:100190002A152A152A152A150D0020224528552929
:1001A000C121C9274E103A1DA021CF265527C921AC
:1001B000C121C927CE2253100D00201FA0216F3767
:1001C000E634E73AF230E3346F3720326510D03A44
:1001D0006539F4377300201FA024EE34E334613610
:1001E000693DE131E9376E10E432A024B22100010B
:1001F000201F202461316936693AE131E9376E10F8
:10020000E4322032E9397036E13C7300201F2024AB
:1002100061316936693AE131E9376E10E432A03470
:100220006E3A6539F23AF031E937EE3273000B0875
:100230008316AB0083128B13831603178C170C14D1
:10024000000000000313AB1F282983128B178316AD
:10025000831203170C087F3903198B2983160313A4
:10026000AB00831203170D0883160313AC0083122F
:1002700003170F0883160313AD002B0883120C1EFF
:100280003F29990083162C08831203178D008316CB
:1002900003132D08831203178F0003130B08831613
:1002A000AE0083128B13831603178C170C140000F7
:1002B00000000313AE1F5F2983128B17831683126E
:1002C00003170C0D0E0D7F3903198B2983160313A9
:1002D000AB00831203170D0883160313AC008312BF
:1002E00003170F0883160313AD002B0883120C1E8F
:1002F0007729990083162C08831203178D00831623
:1003000003132D08831203178F008D0A03198F0A18
:1003100003131729031703130800303083162D0227
:10032000F63E0318C9290A3E8312CD290030F80091
:10033000CC298316C9290130F800CC298316C92994
:100340000230F800CC298316C9290330F800CC29E3
:100350008316C9290430F800CC298316C929053031
:10036000F800CC298316C9290630F800CC29831659
:10037000C9290730F800CC298316C9290830F800AC
:10038000CC298316C9290930F800CC298316C9293C
:1003900083160030F800831208000A148A100A112C
:1003A000820796299B29A029A529AA29AF29B42922
:1003B000B929BE29C329831631080739F700310C42
:1003C000F800F80CF80C1F30F805780833078400A3
:1003D000831334188317F801F80AF70AF029F80D87
:1003E000F70BEF29B2080319F82978088004FB29D4
:1003F000F809780880058312080083163010B010C1
:100400003011B01101302B02F73E03182C2A093E9F
:100410008312842A831630142C2A8316B0142C2AB3
:1004200083163014B0142C2A831630152C2A831608
:10043000301530142C2A83163015B0142C2A83164C
:100440003015B01430142C2A8316B0152C2A8316BC
:10045000B01530142C2A8316003030180130F70004
:100460002C08B1007708B200B401B3018312DB217C
:1004700083162C08B100B201B4018030B30083129E
:10048000DB2100308316B0180130F7002D08B100D1
:100490007708B200B401B3018312DB2183162D0863
:1004A000B100B201B4018030B3008312DB2100300F
:1004B000831630190130F7002E08B1007708B2001A
:1004C000B401B3018312DB2183162E08B100B201FF
:1004D000B4018030B3008312DB2100308316B019E1
:1004E0000130F7002F08B1007708B200B401B30162
:1004F0008312DB2183162F08B100B201B4018030D2
:10050000B3008312DB2108000A108A140A11820743
:100510000A2A0D2A102A142A172A1B2A1F2A242ADB
:10052000272A831611141118932A0A30B80083124F
:1005300094138C1183163808831293000230941B95
:10054000A82A8C1DA12A00308316111B01308312AA
:10055000F800803083162A07AB002B08B8008312FE
:1005600094138C1183163808831293000230941B65
:10057000C02A8C1DB92A00308316111B013083124A
:10058000F800831611151119C32A83120800831667
:1005900011141118C92A3608B800831294138C114B
:1005A00083163808831293000230941BDE2A8C1DB8
:1005B000D72A00308316111B01308312F8008316EE
:1005C0003708B800831294138C11831638088312ED
:1005D00093000230941BF32A8C1DEC2A0030831602
:1005E000111B01308312F800831611151119F62A18
:1005F000831208008316340EF700F030F7057708F1
:100600003207B5003308B6003508B7008312C72299
:100610000800B23084008313000803191C2B023039
:10062000F800F701F70B122BF80B112B9730F7009E
:10063000F70B182B800B0F2B080083162F08831243
:10064000DC0083162E088312DD008316AD08031923
:100650002D2B831245162F2B8316831245125C080F
:100660008316B2000C30B3000130B4008312FA22BA
:1006700032308316B200831209235D088316B2005C
:100680000C30B3000230B4008312FA2232308316E9
:10069000B20083120923451E552B0C308316B60079
:1006A0007330B7008312C7225C2B0C308316B60060
:1006B0007430B7008312C722080083162B108312F0
:1006C000451E652B83162B1483125D088316AC0020
:1006D00083125C088316AD002A088312DC075C08CD
:1006E0000A3C0318762BDD0A0A30DC025D080A3C5E
:1006F00003187D2B45160A30DD02F70183162B18EF
:10070000771683124508770610390319982B451E72
:10071000912B0C308316B6007330B7008312C722BA
:10072000982B0C308316B6007430B7008312C722A2
:1007300032308316B2008312092383162C088312E9
:100740005D020319AC2B5D088316B2000C30B300B8
:100750000230B4008312FA2232308316B2008312C0
:10076000092383162D0883125C020319C02B5C0831
:100770008316B2000C30B3000130B4008312FA22A9
:10078000080083162F088312DE0083162E088312BA
:10079000DF008316AD080319D12B8312C516D32BA6
:1007A00083168312C5125E088316B2000C30B300A4
:1007B0000430B4008312FA2232308316B20083125E
:1007C00009235F088316B2000C30B3000330B40075
:1007D0008312FA2232308316B20083120923C51E17
:1007E000F92B0C308316B6007530B7008312C72280
:1007F000002C0C308316B6007630B7008312C72267
:10080000080083162B108312C51E092C83162B1487
:1008100083125F088316AC0083125E088316AD0056
:100820002A088312DE075E080A3C03181A2CDF0A26
:100830000A30DE025F080A3C0318212CC5160A3074
:10084000DF02F70183162B18F71683124508770687
:10085000203903193C2CC51E352C0C308316B600EC
:100860007330B7008312C7223C2C0C308316B600BD
:100870007430B7008312C72232308316B20083125D
:10088000092383162C0883125F020319502C5F087A
:100890008316B2000C30B3000330B4008312FA2286
:1008A00032308316B2008312092383162D08831277
:1008B0005E020319642C5E088316B2000C30B3008C
:1008C0000430B4008312FA2208008C1E652C1A082A
:1008D000FB00451C9F2C7B08233C0319732C7B08D1
:1008E0000D3C031D942C45108316A3013A30A20041
:1008F000A1013030A000220884008313231883173D
:100900000008A400200884008313211883172408FA
:100910008000800803198F2CA00AA20A7B2C8A155C
:10092000831200288A119F2C4408083C031C9F2C2A
:100930003A304407840083137B088000C40A7B0894
:100940002D3C031DB92C45148316A001A1013A309A
:10095000840083132008840721088312512080001B
:1009600000380319B82C8316A10AA00AA72C8312F9
:10097000C4018C128A110A122D28201F2029753AD1
:1009800069376110E4322038F23A65316100201F86
:100990002028F237E2306E326F10ED37E43AEC3750
:1009A000203AE9326D386F00201F2028F237E230FC
:1009B0006E326F10ED37E43AEC3720387537F43784
:1009C0007300201F2028F237E2306E326F10ED37AF
:1009D000E43AEC37A031EF367537E931E131E937E8
:1009E000EE3273000D103E10C131F434F630E334B2
:1009F0006F37A0366137F5306C10E4322038F532AD
:100A0000723A6F000D103E10D437F13A6510E3379B
:100A1000723A6F000D103E10D437F13A6510EC3089
:100A2000F2336F000D103E10D437F13A6510E43701
:100A3000623665000D103E10C139E933EE30721098
:100A4000E6306C3AE13900010D103E10C139E9334E
:100A5000EE307210EA3AE730E43772000D103E10C3
:100A6000D232F332F4326110611030000D103E10BA
:100A700049376339E5366537F4307210F037721054
:100A800031000D103E1049376339E5366537F430D3
:100A90007210F037721032000D103E104937633972
:100AA000E5366537F4307210F037721033000D10F0
:100AB0003E10C4326339E5366537F4307210F037D2
:100AC000721031000D103E10C139E933EE30721052
:100AD000E6306C3AE13900010D103E104937E9313A
:100AE000E930EC34FA3072000D103E10C139E933B0
:100AF000EE307210F037F334E3346F3700010D102D
:100B00003E10D030F5396139203AE9326D386F0046
:100B10000D103E10D232EE3AE4307210F434E53665
:100B2000F03700010D103E104138E13361392028C3
:100B30006539E937E43773000D103E10D032F234D6
:100B40006F326F1031000D103E10D032F2346F3220
:100B50006F1032000D103E10D032F2346F326F1031
:100B600033000D103E10D032F2346F326F1034006B
:100B70000D103E10C3376E33E9337539E131E93773
:100B80006E10E432203A69396F000D103E10C33701
:100B90006E33E9337539E131E9376E10E432203ACA
:100BA000E9326D386F000D103E10D232F332F4325C
:100BB0006110611030000D103E1049376339E53681
:100BC0006537F4307210F037721031000D103E109E
:100BD00049376339E5366537F4307210F0377210F3
:100BE00032000D103E1049376339E5366537F43071
:100BF0007210F037721033000D103E10C43263399A
:100C0000E5366537F4307210F037721031000D1090
:100C10003E10C139E933EE307210E6306C3AE139FA
:100C200000010D103E104937E931E930EC34FA305B
:100C300072000D103E10C139E933EE307210F037FA
:100C4000F334E3346F3700010D103E10D232F3322B
:100C5000F4326F10E732EE32F2306C172E17A0101C
:100C600020000B08EC008B13831603178C170C1451
:100C70000000000083120313EC1B8B1703170C08F2
:100C80007F390319872E0313EC0003170D08031394
:100C9000ED0003170F080313EE006C080C1E4E2E18
:100CA00099006D0803178D0003136E0803178F005A
:100CB00003130B08EF008B13831603178C170C1408
:100CC0000000000083120313EF1B8B1703170C0D9A
:100CD0000E0D7F390319872E0313EC0003170D083F
:100CE0000313ED0003170F080313EE006C080C1E2E
:100CF000772E99006D0803178D0003136E080317F4
:100D00008F008D0A03198F0A0313312E0317031363
:100D100008000B08ED008B13831603178C170C14B7
:100D20000000000083120313ED1B8B170318C62E5F
:100D300003170C087F390313ED0003170D08031385
:100D4000EE0003170F080313EF006D080C1EA62E0C
:100D500099006E0803178D0003136F0803178F00A7
:100D600003130B08F0008B13831603178C170C1456
:100D700000000000F01FC12E831203138B1783168F
:100D8000031783120313EC0BC62EE62E03170C0D6C
:100D90000E0D7F390313ED0003170D080313EE004A
:100DA00003170F080313EF006D080C1ED52E9900D2
:100DB0006E0803178D0003136F0803178F008D0A49
:100DC00003198F0A03100313EC0B892E0800010886
:100DD0000B1DF42E0130AC070318AD0A0319AE0A3F
:100DE0000319AF0A0B110108F7002C08F8002D08B1
:100DF000F9002E08FA002F08EC00EC0CFA0CF90CA4
:100E0000F80CF70C080070086C02F7006D08F80089
:100E10007108031C710FF8026E08F9007208031CB8
:100E2000720FF9026F08FA007308031C730FFA02BD
:100E30008A110A12B12F03081F39830071308316FB
:100E40008F0090010F08031787110C3003139900CE
:100E5000A2309800903083129800DF30831687000C
:100E6000DF3087000430930028308312940083160B
:100E7000941314138312AF01AE01AD01AC018316BC
:100E80000108C03906388100831281010B11C401A9
:100E90004510D601D701D801D901C510DA01DB010F
:100EA0004511C511DC01DD014512DE01DF01C5126E
:100EB000E301E201831603170908C039890003130F
:100EC0001F129F12003003178800831287018801C8
:100ED000890183130313B001B101B201B301B4015D
:100EE000B501B601B701B801B901BA01BB01BC0136
:100EF000BD01BE01BF01C001C101C201C301E001CA
:100F0000E1010A1600280A12E7267A08EB007908A0
:100F1000EA007808E9007708E8006B08E7006A084B
:100F2000E6006908E5006808E400C519D52FE72642
:100F30007A08E7007908E6007808E5007708E40019
:100F40006708EF006608EE006508ED006408EC0035
:100F50006B08F3006A08F2006908F1006808F00005
:100F6000032F7A08EF007908EE007808ED00770883
:100F7000EC00EF08031DCA2FEE08031DCA2F6D08F1
:100F80001D3C0318D52FFF3A031DCA2F6C08833C64
:100F90000318D52F0A167E290A126708EB00660887
:0E0FA000EA006508E9006408E800952F630088
:101000008316AD013030AC00AB01A030AA002C0833
:10101000840083132D1883170008AE002A0884006B
:1010200083132B1883172E088000800803191B28B0
:10103000AA0AAC0A07282008303A83120319452867
:10104000723A0319E828043A031947290C3A03199C
:101050009929063A0319EB291C3A0319762B013A10
:1010600003198B2B033A0319A02B013A0319472CC0
:10107000073A0319972C023A0319342D0E3A031933
:10108000BF2E023A03198A2FC42F071D5828F230A9
:1010900003178D0004308F008A11031317218A155E
:1010A0000D300C1E512899000A300C1E552899004D
:1010B000313083162202FC3E0318E628043E8312D8
:1010C000C72F83162308AD008A1183128D218A153C
:1010D00078088316AA00AB0083124D088316AF0070
:1010E00083124C088316AE0083124B088316AD00A2
:1010F00083124A088316AC008A118312FD218A15D7
:101100008316E62883162308AD008A1183128D21E9
:101110008A1578088316AA00AB0083124908831643
:10112000AF00831248088316AE0083124708831667
:10113000AD00831246088316AC008A118312FD218C
:101140008A158316E62883162308AD008A118312B8
:101150008D218A1578088316AA00AB0083125508E2
:101160008316AF00831254088316AE00831253080F
:101170008316AD00831252088316AC008A118312C5
:10118000FD218A158316E62883162308AD008A11EF
:1011900083128D218A1578088316AA00AB0083126A
:1011A00051088316AF00831250088316AE008312D5
:1011B0004F088316AD0083124E088316AC008A11C7
:1011C0008312FD218A158316E62883168312C42F05
:1011D00083162108313A83120319F528033A0319BB
:1011E0001029013A03192B294629071D0829023025
:1011F00003178D0005308F008A11031317218A15FC
:101200000D300C1E012999000A300C1E0529990089
:1012100001308316AA008A11831291228A15462969
:10122000071D23290A3003178D0005308F008A110E
:10123000031317218A150D300C1E1C2999000A3042
:101240000C1E2029990002308316AA008A118312ED
:1012500091228A154629071D3E29123003178D0059
:1012600005308F008A11031317218A150D300C1ECB
:10127000372999000A300C1E3B2999000330831648
:10128000AA008A11831291228A154629C42F071DAC
:101290005A291A3003178D0005308F008A11031365
:1012A00017218A150D300C1E532999000A300C1E87
:1012B0005729990083162108AD008A1183128D21C8
:1012C0008A1578088316AA00AB0083125508831686
:1012D000AF00831254088316AE008312530883169E
:1012E000AD00831252088316AC008A118312FD21CF
:1012F0008A1583162208AD008A1183128D218A1562
:1013000078088316AA00AB00831251088316AF0039
:10131000831250088316AE0083124F088316AD0067
:1013200083124E088316AC008A118312FD218A15A0
:10133000C42F071DAC29243003178D0005308F0002
:101340008A11031317218A150D300C1EA529990047
:101350000A300C1EA929990083162108AD008A11B4
:1013600083128D218A1578088316AA00AB00831298
:101370004D088316AF0083124C088316AE0083120B
:101380004B088316AD0083124A088316AC008A11FD
:101390008312FD218A1583162208AD008A1183125B
:1013A0008D218A1578088316AA00AB00831249089C
:1013B0008316AF00831248088316AE0083124708D5
:1013C0008316AD00831246088316AC008A1183127F
:1013D000FD218A15C42F83162108303A8312031980
:1013E000072A013A0319232A033A03193E2A013A2C
:1013F0000319592A773A0319742A023A0319F72A6A
:101400000F3A03191E2B193A0319582B752B071D78
:101410001A2A2E3003178D0005308F008A1103130E
:1014200017218A150D300C1E132A99000A300C1E44
:10143000172A99008316AD01AE01AF018A118312FC
:101440001D238A15752B071D362A363003178D008C
:1014500005308F008A11031317218A150D300C1ED9
:101460002F2A99000A300C1E332A99000130831666
:10147000AA008A1183125D238A15752B071D512A34
:10148000413003178D0005308F008A110313172197
:101490008A150D300C1E4A2A99000A300C1E4E2A5D
:1014A000990002308316AA008A1183125D238A15DF
:1014B000752B071D6C2A4C3003178D0005308F00EB
:1014C0008A11031317218A150D300C1E652A990005
:1014D0000A300C1E692A990003308316AA008A116B
:1014E00083125D238A15752B071D872A5730031732
:1014F0008D0005308F008A11031317218A150D30D6
:101500000C1E802A99000A300C1E842A990083162A
:101510002A108312451E8F2A83162A1483125D080F
:101520008316AB0083125C088316AC008312DC08C0
:1015300003199C2ADC03A72ADD080319A32ADD036B
:101540000930DC00A72A45120930DD00DC00F70174
:1015500083162A187716831245087706103903195F
:10156000C62A451EBD2A0C308316B6007330B7005C
:101570008A118312C7228A15C62A0C308316B60038
:101580007430B7008A118312C7228A15323083164D
:10159000B2008A11831209238A1583162B0883123D
:1015A0005D020319DE2A5D088316B2000C30B30019
:1015B0000230B4008A118312FA228A15323083165F
:1015C000B2008A11831209238A1583162C0883120C
:1015D0005C020319F62A5C088316B2000C30B300D3
:1015E0000130B4008A118312FA228A15752B071D67
:1015F0000A2B623003178D0005308F008A11031308
:1016000017218A150D300C1E032B99000A300C1E71
:10161000072B990083162208AD008A1183128D21B1
:101620008A1578088316AA00B2000C30B300053082
:10163000B4008A118312FA228A15752B071D312BEB
:101640006C3003178D0005308F008A1103131721AA
:101650008A150D300C1E2A2B99000A300C1E2E2BD9
:10166000990083162208AD008A1183128D218A15F4
:1016700078088316AA002308AD008A1183128D21F1
:101680008A1578088316AB002408AD008A118312EE
:101690008D218A1578088316AC002A08AD002B0826
:1016A000AE002C08AF008A1183121D238A15752BFA
:1016B000071D6B2B743003178D0005308F008A11C6
:1016C000031317218A150D300C1E642B99000A3064
:1016D0000C1E682B99000C308316B6007130B700D1
:1016E0008A118312C7228A15752BC42F071D892BD7
:1016F0007F3003178D0005308F008A1103131721E7
:101700008A150D300C1E822B99000A300C1E862B78
:101710009900C515C42F071D9E2B883003178D0017
:1017200005308F008A11031317218A150D300C1E06
:10173000972B99000A300C1E9B2B9900C511C42FC2
:10174000303083162102FB3E0318402C053E8312E5
:10175000CF2F071DBC2B923003178D0005308F0053
:101760008A11031317218A150D300C1EB52B990011
:101770000A300C1EB92B99000A308316B60070305F
:10178000B7008A118312C7228A158316402C071DC1
:10179000DA2B9C3003178D0005308F008A1103135C
:1017A00017218A150D300C1ED32B99000A300C1E00
:1017B000D72B99000A308316B6007130B7008A1112
:1017C0008312C7228A158316402C071DF82BA330DD
:1017D00003178D0005308F008A11031317218A1516
:1017E0000D300C1EF12B99000A300C1EF52B9900C0
:1017F0000A308316B6007230B7008A118312C722EE
:101800008A158316402C071D162CAA3003178D004D
:1018100005308F008A11031317218A150D300C1E15
:101820000F2C99000A300C1E132C99000A308316D5
:10183000B6007330B7008A118312C7228A15831647
:10184000402C071D342CB13003178D0005308F005C
:101850008A11031317218A150D300C1E2D2C9900A7
:101860000A300C1E312C99000A308316B6007430F1
:10187000B7008A118312C7228A158316402C83165B
:101880003230B2008A11831209238A15C42F071D32
:101890005A2CB83003178D0005308F008A110313BE
:1018A00017218A150D300C1E532C99000A300C1E7E
:1018B000572C990083162108AD008A1183128D21BF
:1018C0008A1578088316AA002208AD008A118312AF
:1018D0008D218A1578088316AB002A08AC002B08E6
:1018E000AD002D088312DB0083162C088312DA006A
:1018F00083162C08B2000A30B3000130B4008A11FC
:101900008312FA228A1532308316B2008A118312AA
:1019100009238A1583162D08B2000A30B30002305D
:10192000B4008A118312FA228A154515C42F071DA7
:10193000AA2CC53003178D0005308F008A110313C0
:1019400017218A150D300C1EA32C99000A300C1E8D
:10195000A72C990083162108AD008A1183128D21CE
:101960008A1578088316AA002208AD008A1183120E
:101970008D218A1578088316AB002308AD008A11E3
:1019800083128D218A1578088316AC002408AD00D7
:101990008A1183128D218A1578088316AD002A08D2
:1019A000AE002B08AF002C08B0002D08B1002F08A6
:1019B0008312D70083162E088312D60083163008B0
:1019C0008312D800831631088312D9008316310898
:1019D000B2000A30B3000430B4008A118312FA2234
:1019E0008A1532308316B2008A11831209238A15B0
:1019F00083163008B2000A30B3000330B4008A11F5
:101A00008312FA228A1532308316B2008A118312A9
:101A100009238A1583162F08B2000A30B300053057
:101A2000B4008A118312FA228A1532308316B2006A
:101A30008A11831209238A158316AE0803192A2DE9
:101A40000A30B6007530B7008A118312C7228A1592
:101A5000322D83160A30B6007630B7008A11831211
:101A6000C7228A15C514C42F83162108303A831261
:101A70000319502D013A03196C2D033A0319872DD0
:101A8000013A0319A22D773A0319BD2D023A031921
:101A9000402E0F3A0319672E193A0319A12EBE2EB4
:101AA000071D632DD33003178D0005308F008A1179
:101AB000031317218A150D300C1E5C2D99000A3076
:101AC0000C1E602D99008316AD01AE01AF018A1185
:101AD0008312C1238A15BE2E071D7F2DDB3003170D
:101AE0008D0005308F008A11031317218A150D30E0
:101AF0000C1E782D99000A300C1E7C2D99000130A7
:101B00008316AA008A11831201248A15BE2E071D8E
:101B10009A2DE63003178D0005308F008A110313CC
:101B200017218A150D300C1E932D99000A300C1EBA
:101B3000972D990002308316AA008A11831201247E
:101B40008A15BE2E071DB52DF13003178D00053007
:101B50008F008A11031317218A150D300C1EAE2D2C
:101B600099000A300C1EB22D990003308316AA008A
:101B70008A11831201248A15BE2E071DD02DFC3038
:101B800003178D0005308F008A11031317218A1562
:101B90000D300C1EC92D99000A300C1ECD2D990058
:101BA00083162A108312C51ED82D83162A14831279
:101BB0005F088316AB0083125E088316AC008312A5
:101BC000DE080319E52DDE03F02DDF080319EC2DE7
:101BD000DF030930DE00F02DC5120930DF00DE0022
:101BE000F70183162A18F71683124508770620395D
:101BF00003190F2EC51E062E0C308316B600753045
:101C0000B7008A118312C7228A150F2E0C30831653
:101C1000B6007630B7008A118312C7228A15323097
:101C20008316B2008A11831209238A1583162B08A2
:101C300083125F020319272E5F088316B2000C304F
:101C4000B3000330B4008A118312FA228A153230AD
:101C50008316B2008A11831209238A1583162C0871
:101C600083125E0203193F2E5E088316B2000C3009
:101C7000B3000430B4008A118312FA228A15BE2EF2
:101C8000071D532E073003178D0006308F008A1171
:101C9000031317218A150D300C1E4C2E99000A30A3
:101CA0000C1E502E990083162208AD008A11831253
:101CB0008D218A1578088316AA00B2000C30B30073
:101CC0000630B4008A118312FA228A15BE2E071D2F
:101CD0007A2E113003178D0006308F008A110313FE
:101CE00017218A150D300C1E732E99000A300C1E18
:101CF000772E990083162208AD008A1183128D2158
:101D00008A1578088316AA002308AD008A11831269
:101D10008D218A1578088316AB002408AD008A113E
:101D200083128D218A1578088316AC002A08AD002D
:101D30002B08AE002C08AF008A118312C1238A152C
:101D4000BE2E071DB42E193003178D0006308F00EC
:101D50008A11031317218A150D300C1EAD2E990020
:101D60000A300C1EB12E99000C308316B60072306A
:101D7000B7008A118312C7228A15BE2EC42F071DF1
:101D8000D22EBD3003178D0004308F008A1103134B
:101D900017218A150D300C1ECB2E99000A300C1E0F
:101DA000CF2E9900071DE52EC73003178D00043094
:101DB0008F008A11031317218A150D300C1EDE2E99
:101DC00099000A300C1EE22E99000A308316B600E4
:101DD000FF30B7008A118312C7228A15071D012F11
:101DE000D43003178D0004308F008A11031317219C
:101DF0008A150D300C1EFA2E99000A300C1EFE2E8C
:101E000099000C308316B600FF30B7008A11831298
:101E1000C7228A15071D1D2FE13003178D000430DE
:101E20008F008A11031317218A150D300C1E162FEF
:101E300099000A300C1E1A2F99008316AA012A084D
:101E4000093C031C882F2A08AB0083124D08831617
:101E5000AF0083124C088316AE0083124B08831622
:101E6000AD0083124A088316AC008A118312FD214B
:101E70008A1583162A08AB00831249088316AF001F
:101E8000831248088316AE00831247088316AD00FC
:101E9000831246088316AC008A118312FD218A152D
:101EA00083162A08AB00831255088316AF008312ED
:101EB00054088316AE00831253088316AD008312B4
:101EC00052088316AC008A118312FD218A158316ED
:101ED0002A08AB00831251088316AF008312500802
:101EE0008316AE0083124F088316AD0083124E088E
:101EF0008316AC008A118312FD218A1532308316B5
:101F0000B2008A11831209238A158316AA0A1F2F89
:101F10008312C42F071D9D2F243003178D00063018
:101F20008F008A11031317218A150D300C1E962F6E
:101F300099000A300C1E9A2F990002308316AA00CD
:101F4000FA30B2008A11831209238A158316AA0B6C
:101F5000A02F0A30B600FD30B7008A118312C722C5
:101F60008A1532308316B2008A11831209238A152A
:101F70000C308316B600FD30B7008A118312C722D9
:101F80008A158A010028C42F8A110A12922C0A1479
:101F90008A140A15820761288228A328C4280A14F3
:101FA0008A140A158207A92BC72BE52B032C212C99
:102000000F308316850083128501831686018312A3
:102010008601DF30831687008312870183168801CB
:1020200083128801831609108910091189118312FE
:102030008901AB018B1BAB178B1364308316B20085
:102040000A12831209230A16AB1B8B17071D992846
:102050005F3003178D0000308F000A120313312602
:102060000A16703003178D0000308F000A12031318
:1020700031260A167B3003178D0000308F000A12BC
:10208000031331260A168C3003178D0000308F00A1
:102090000A12031331260A169D3003178D000030F3
:1020A0008F000A12031331260A16AE3003178D0073
:1020B00000308F00031008300313EC000A12892649
:1020C0000A16B93003178D0000308F000A1203136F
:1020D00031260A16B33003178D0000308F0003102D
:1020E00007300313EC000A1289260A16BB300317C7
:1020F0008D0000308F000A12031331260A1620309B
:102100000C1E802899000D300C1E84289900BC30CC
:1021100003178D0000308F000A12031331260A16B0
:10212000CD3003178D0000308F000A1203133126C3
:102130000A16AB018B1BAB178B1364308316B200EE
:102140000A12831209230A16AB1B8B17071DBF281F
:10215000DD3003178D0000308F000313AB018B1BA4
:10216000AB178B130A1217210A16AB1B8B170D30F6
:102170000C1EB82899000A300C1EBC28990030307B
:10218000C6003130C7003230C8003330C9003430A7
:10219000CA003530CB003630CC003730CD0040306F
:1021A000CE004130CF004230D0004330D100443027
:1021B000D2004530D3004630D4004730D500AB01C3
:1021C0008B1BAB178B1364308316B2000A12831279
:1021D00009230A16AB1B8B17071D0529EB300317C4
:1021E0008D0000308F000313AB018B1BAB178B13DB
:1021F0000A1217210A16AB1B8B170D300C1EFE2876
:1022000099000A300C1E022999001330831693009E
:10221000283083129400831694178312071D2729F0
:10222000F83003178D0000308F000313AB018B1BB8
:10223000AB178B130A1217210A16AB1B8B170D3025
:102240000C1E202999000A300C1E2429990009141B
:10225000EE30831689008312AB018B1BAB178B13F7
:1022600064308316B2000A12831209230A16AB1BCC
:102270008B170910EE30831689008312AB018B1B7C
:10228000AB178B1364308316B2000A128312092332
:102290000A16AB1B8B170914EE30831689008312C4
:1022A000AB018B1BAB178B1364308316B2000A1281
:1022B000831209230A16AB1B8B17071D76290630DC
:1022C00003178D0001308F000313AB018B1BAB177D
:1022D0008B130A1217210A16AB1B8B170D300C1E1D
:1022E0006F2999000A300C1E7329990083168C16E9
:1022F000C03083128B048A110A12832FC51C482A0E
:102300005608EC005708ED005808EE005908EF0099
:10231000D90803198D29D903BC29D8080319942990
:102320000930D900D803BC29D70803199D290530E5
:10233000D8000930D900D703BC29D6080319A82929
:10234000D6010930D7000530D8000930D900BC29A2
:10235000D601D701D801D901C510AB018B1BAB1732
:102360008B130A308316B6008230B7000A1283122C
:10237000C7220A16AB1B8B1759086F020319D12904
:10238000AB018B1BAB178B1359088316B2000A30B5
:10239000B3000430B4000A128312FA220A16AB1BEF
:1023A0008B17AB018B1BAB178B1332308316B2002C
:1023B0000A12831209230A16AB1B8B1758086E02E8
:1023C0000319F329AB018B1BAB178B13580883162A
:1023D000B2000A30B3000330B4000A128312FA22AA
:1023E0000A16AB1B8B17AB018B1BAB178B13323051
:1023F0008316B2000A12831209230A16AB1B8B172D
:1024000057086D020319152AAB018B1BAB178B13F1
:1024100057088316B2000A30B3000530B4000A1220
:102420008312FA220A16AB1B8B17AB018B1BAB175F
:102430008B1332308316B2000A12831209230A1654
:10244000AB1B8B1756086C020319482AD608031DCC
:10245000392AAB018B1BAB178B130A308316B600DE
:102460007630B7000A128312C7220A16AB1B8B17ED
:10247000482AAB018B1BAB178B130A308316B600AF
:102480007530B7000A128312C7220A16AB1B8B17CE
:10249000451DA32A5A08EC005B08ED00DB08031970
:1024A000532ADB036C2ADA0803195A2A0930DB00A5
:1024B000DA036C2ADA01DB014511AB018B1BAB1788
:1024C0008B130A308316B6008130B7000A128312CC
:1024D000C7220A16AB1B8B175B086D020319812AF2
:1024E000AB018B1BAB178B135B088316B2000A3052
:1024F000B3000230B4000A128312FA220A16AB1B90
:102500008B17AB018B1BAB178B1332308316B200CA
:102510000A12831209230A16AB1B8B175A086C0286
:102520000319A32AAB018B1BAB178B135A08831615
:10253000B2000A30B3000130B4000A128312FA224A
:0C2540000A16AB1B8B178A110A12CC2F55
:04400E00D42CFF3F70
:00000001FF
;PIC16F887
;CRC=1780  CREATED="18-nov.-21 17:30"
