:1000000010308A0000280000FF00030E8301A100C9
:100010000A08A0008A010408A2007708A300780853
:10002000A4007908A5007A08A60003170D08031399
:10003000A70003170F080313A80003170C080313E6
:10004000A90003170E080313AA00831383128C3030
:100050008400801E2D288C1A54288C308400801D2A
:1000600033288C195728220884002308F700240815
:10007000F8002508F9002608FA00270803178D0064
:100080000313280803178F000313290803178C0094
:1000900003132A0803178E00031320088A00210E79
:1000A0008300FF0E7F0E09008A110A12342B8A1179
:1000B0000A128C2B0A108A100A11820700340034AD
:1000C0000034003400340034003400340034003490
:1000D0002A152A152A152A152A152A152A152A1528
:1000E0002A152A152A152A152A152A152A152A1518
:1000F0000D00201020102010A023F23AF037A0208D
:10010000D0262014E31420193019301020102010AC
:1001100020100D00BD1EBD1EBD1EBD1EBD1EBD1E80
:10012000BD1EBD1EBD1EBD1EBD1EBD1EBD1EBD1EF7
:10013000BD1EBD1E0D004236F532F4376F3A681011
:10014000C230F335653AE2306C36A029E337F2323B
:100150002021EF3072320D00BD1EBD1EBD1EBD1E22
:10016000BD1EBD1EBD1EBD1EBD1EBD1EBD1EBD1EB7
:10017000BD1EBD1EBD1EBD1E0D00D632F239E937B3
:100180006E10A539A0162039653BA01273100D0022
:100190003117350044002A152A152A152A152A1563
:1001A0002A152A152A152A152A152A152A152A1557
:1001B0002A152A152A150D002010C422D02AD22073
:1001C000C3244F27201D3A10C327CD2ACE24C32095
:1001D000C3244F27C52920100D00473975386F10EB
:1001E00041284D10A831291032183218201D3A101C
:1001F00042215321A0182E182039653BA020000071
:100200003E10C3376E33E9337539E131E9376E108B
:10021000E4322028F532723AEF3900013E104937B6
:10022000E931E930EC34FA30E3346F3720326510CD
:10023000491943003E104937E931E930EC34FA30CE
:10024000E3346F3720326510ED37E43AEC37203A6B
:10025000E9326D386F003E104937E931E930EC344E
:10026000FA30E3346F3720326510ED37E43AEC377B
:1002700020387537F43773003E10C830E234EC3460
:10028000F430E3346F3720326510E4347338EC30E7
:10029000F93900013E10C830E234EC34F430E33474
:1002A0006F37203265106937F43272397538E334AC
:1002B0006F37E53900000B088316AB0083128B13F0
:1002C000831603178C170C14000000000313AB1FD8
:1002D0006C2983128B178316831203170C087F393E
:1002E0000319CF2983160313AB00831203170D08DC
:1002F00083160313AC00831203170F08831603132E
:10030000AD002B0883120C1E8329990083162C083C
:10031000831203178D00831603132D08831203170E
:100320008F0003130B088316AE0083128B13831602
:1003300003178C170C14000000000313AE1FA32931
:1003400083128B178316831203170C0D0E0D7F3942
:100350000319CF2983160313AB00831203170D086B
:1003600083160313AC00831203170F0883160313BD
:10037000AD002B0883120C1EBB29990083162C0894
:10038000831203178D00831603132D08831203179E
:100390008F008D0A03198F0A03135B2903170313B8
:1003A0000800303083162D02F63E03180D2A0A3E4F
:1003B0008312112A0030F800102A83160D2A01300A
:1003C000F800102A83160D2A0230F800102A83162E
:1003D0000D2A0330F800102A83160D2A0430F80085
:1003E000102A83160D2A0530F800102A83160D2ACC
:1003F0000630F800102A83160D2A0730F800102A5C
:1004000083160D2A0830F800102A83160D2A0930A9
:10041000F800102A83160D2A83160030F800831284
:1004200008000A108A140A118207DA29DF29E42950
:10043000E929EE29F329F829FD29022A072A83163A
:1004400031080739F700310CF800F80CF80C1F30B0
:10045000F805780833078400831334188317F801EC
:10046000F80AF70A342AF80DF70B332AB2080319F1
:100470003C2A780880043F2AF8097808800583120E
:10048000080083163010B0103011B01101302B026B
:10049000F73E0318702A093E8312C82A83163014C7
:1004A000702A8316B014702A83163014B014702A80
:1004B00083163015702A831630153014702A83166F
:1004C0003015B014702A83163015B0143014702A09
:1004D0008316B015702A8316B0153014702A83164F
:1004E000003030180130F7002C08B1007708B20056
:1004F000B401B30183121F2283162C08B100B2018C
:10050000B4018030B30083121F2200308316B0186C
:100510000130F7002D08B1007708B200B401B30133
:1005200083121F2283162D08B100B201B40180305E
:10053000B30083121F220030831630190130F700F8
:100540002E08B1007708B200B401B30183121F2254
:1005500083162E08B100B201B4018030B3008312BB
:100560001F2200308316B0190130F7002F08B100A8
:100570007708B200B401B30183121F2283162F083B
:10058000B100B201B4018030B30083121F22080011
:100590000A108A140A1182074E2A512A542A582A0C
:1005A0005B2A5F2A632A682A6B2A94138C118316AC
:1005B0003808831293000230941BE52A8C1DDE2A32
:1005C00000308316111B01308312F80008008316D7
:1005D00011141118E92A0A30B8008312D52280308C
:1005E00083162A07AB00B8008312D5228316111593
:1005F0001119F82A83120800080083161114111823
:10060000FF2A3608B8008312D52283163708B800AF
:100610008312D5228316111511190C2B8312080091
:10062000B2308400831300080319232B0230F80032
:10063000F701F70B192BF80B182B9730F700F70B76
:100640001F2B800B162B08008316340EF700F0309A
:10065000F70577083207B5003308B6003508B7004C
:100660008312FD22080008008C1E342B1A08FB00A0
:10067000451C6E2B7B08233C0319422B7B080D3C49
:10068000031D632B45108316A3013A30A200A1017C
:100690003030A00022088400831323188317000839
:1006A000A4002008840083132118831724088000E5
:1006B000800803195E2BA00AA20A4A2B8A1583120E
:1006C00000288A116E2B4408083C031C6E2B3A301C
:1006D0004407840083137B088000C40A7B082D3CF8
:1006E000031D882B45148316A001A1013A30840014
:1006F000831320088407210883125A2080000038C1
:100700000319872B8316A10AA00A762B8312C40132
:100710008C128A110A1233288C118A110A1233287A
:100720003E10D23AF434EE30203265107039F53292
:10073000E23000013E1050396F316137E437A036A6
:100740006F3275366F10F434E536F03700013E1025
:1007500050396F316137E437A0366F3275366F101C
:10076000F03A6E3AEF3900013E1050396F3161377F
:10077000E437A0366F3275366F10E337ED3AEE345A
:10078000E330E3346F37E53900000D1FA020633AF2
:10079000693BE131E9376E10ED30EE3A61362032D7
:1007A0006510F03A6539F43700010D1F202AEF3843
:1007B000F532A0316F39F43700010D1F202AEF38D0
:1007C000F53220366139E73700010D1F202AEF3856
:1007D000F53220326F31EC3200010D1FA020F334CE
:1007E0006737613920336136F43073000D1FA02064
:1007F000F334673761392035F53361326F390001E1
:100800000D1FA021EF366137E4372036EF31613616
:1008100000010D1F2029E539653AE530A030201888
:1008200000010D1FA024EE31F232ED326E3A613933
:1008300020386F39A01800010D1FA024EE31F232CC
:10084000ED326E3A613920386F39201900010D1FE1
:10085000A024EE31F232ED326E3A613920386F3930
:10086000A01900010D1F2022E531F232ED326E3A5F
:10087000613920386F39A01800010D1FA024EE3413
:10088000E3346136693D613900010D1FA020F33466
:10089000673761392038EF39E931E9376E000D1FCC
:1008A0002028E13AF3307210F434E536F0370001D5
:1008B0000D1F2029653775326139203AE9326D38CC
:1008C0006F000D1FA020F030E7307210D032F234EC
:1008D0006F32EF3900010D1F20286539E937E43701
:1008E000A01800010D1F20286539E937E4372019C9
:1008F00000010D1F20286539E937E437A0190001F0
:100900000D1F20286539E937E437201A00010D1F33
:10091000A0216F37E634E73AF230E3346F37203204
:100920006510F434F23700010D1FA0216F37E63453
:10093000E73AF230E3346F3720326510F434E536AD
:10094000F03700010D1FA021EF366137E437203B5F
:10095000E939693A6137F43200010D1F2029E53980
:10096000653AE530A030201800010D1FA024EE31BB
:10097000F232ED326E3A613920386F39A018000139
:100980000D1FA024EE31F232ED326E3A613920387B
:100990006F39201900010D1FA024EE31F232ED3223
:1009A0006E3A613920386F39A01900010D1F2022DD
:1009B000E531F232ED326E3A613920386F39A018E4
:1009C00000010D1FA024EE34E3346136693D613926
:1009D00000010D1FA020F334673761392038EF394B
:1009E000E931E9376E000D1F2029E539653AE53711
:1009F000A0336537653961362E17AE1000000B083D
:100A0000EC008B13831603178C170C1400000000E6
:100A100083120313EC1B8B1703170C087F39031980
:100A2000552D0313EC0003170D080313ED000317F6
:100A30000F080313EE006C080C1E1C2D99006D08A6
:100A400003178D0003136E0803178F0003130B08A1
:100A5000EF008B13831603178C170C140000000093
:100A600083120313EF1B8B1703170C0D0E0D7F3929
:100A70000319552D0313EC0003170D080313ED00A4
:100A800003170F080313EE006C080C1E452D990088
:100A90006D0803178D0003136E0803178F008D0A6E
:100AA00003198F0A0313FF2C0317031308000B0805
:100AB000ED008B13831603178C170C140000000035
:100AC00083120313ED1B8B170318942D03170C08C7
:100AD0007F390313ED0003170D080313EE0003170E
:100AE0000F080313EF006D080C1E742D99006E089B
:100AF00003178D0003136F0803178F0003130B08F0
:100B0000F0008B13831603178C170C1400000000E1
:100B1000F01F8F2D831203138B1783160317831275
:100B20000313EC0B942DB42D03170C0D0E0D7F3910
:100B30000313ED0003170D080313EE0003170F084E
:100B40000313EF006D080C1EA32D99006E08031708
:100B50008D0003136F0803178F008D0A03198F0A86
:100B600003100313EC0B572D08000F30831685007C
:100B7000831285018316860183128601DF30831676
:100B800087008312870183168801831288018316E8
:100B9000091089100911891183128901AB018B1B7E
:100BA000AB178B13C8308316B20083121023AB1B14
:100BB0008B17071D372E683003178D0000308F000C
:100BC0000313FF24793003178D0000308F000313C7
:100BD000FF248A3003178D0000308F000313FF2499
:100BE0009B3003178D0000308F000313FF24AC30BF
:100BF00003178D0000308F000313FF24BD3003174F
:100C00008D0000308F00031008300313EC005725CF
:100C1000C83003178D0000308F000313FF24C2304B
:100C200003178D0000308F00031007300313EC0012
:100C30005725CA3003178D0000308F000313FF249F
:100C400020300C1E212E99000D300C1E252E9900EF
:100C5000CB3003178D0000308F000313FF24DC30EE
:100C600003178D0000308F000313FF244C2EED304E
:100C700003178D0000308F000313AB018B1BAB17E4
:100C80008B135B21AB1B8B170D300C1E452E99006F
:100C90000A300C1E492E9900AB018B1BAB178B132E
:100CA000C8308316B20083121023AB1B8B17071DAD
:100CB0006E2E003003178D0001308F000313AB013F
:100CC0008B1BAB178B135B21AB1B8B170D300C1ED3
:100CD000672E99000A300C1E6B2E99003030C6002A
:100CE0003130C7003230C8003330C9003430CA0058
:100CF0003530CB003630CC003730CD004030CE0020
:100D00004130CF004230D0004330D1004430D200D7
:100D10004530D3004630D4004730D500AB018B1BA3
:100D2000AB178B13C8308316B20083121023AB1B92
:100D30008B17071DB02E0E3003178D0001308F006A
:100D40000313AB018B1BAB178B135B21AB1B8B17F7
:100D50000D300C1EA92E99000A300C1EAD2E9900E4
:100D6000133083169300283083129400831694174F
:100D70008312071DD02E1A3003178D0001308F000B
:100D80000313AB018B1BAB178B135B21AB1B8B17B7
:100D90000D300C1EC92E99000A300C1ECD2E990064
:100DA000AB018B1BAB178B130A308316B600F030E8
:100DB000B7008312FD22AB1B8B17AB018B1BAB174C
:100DC0008B13C8308316B20083121023AB1B8B1712
:100DD000071DFF2E2B3003178D0001308F000313EA
:100DE000AB018B1BAB178B135B21AB1B8B170D3030
:100DF0000C1EF82E99000A300C1EFC2E9900AB0137
:100E00008B1BAB178B130C308316B600F030B7007A
:100E10008312FD22AB1B8B17AB018B1BAB178B1304
:100E2000C8308316B20083121023AB1B8B17071D2B
:100E30002E2F3C3003178D0001308F000313AB01C0
:100E40008B1BAB178B135B21AB1B8B170D300C1E51
:100E5000272F99000A300C1E2B2F99000914EE3011
:100E6000831689008312AB018B1BAB178B13C83021
:100E70008316B20083121023AB1B8B170910EE30C0
:100E8000831689008312AB018B1BAB178B13C83001
:100E90008316B20083121023AB1B8B170914EE309C
:100EA000831689008312AB018B1BAB178B13C830E1
:100EB0008316B20083121023AB1B8B17071D752FEF
:100EC0004A3003178D0001308F000313AB018B1BD9
:100ED000AB178B135B21AB1B8B170D300C1E6E2FCA
:100EE00099000A300C1E722F990083168C168C15EF
:100EF000C03083128B048A110A16662801080B1D64
:100F00008B2F0130AC070318AD0A0319AE0A031981
:100F1000AF0A0B110108F7002C08F8002D08F900A2
:100F20002E08FA002F08EC00EC0CFA0CF90CF80C67
:100F3000F70C080070086C02F7006D08F8007108E3
:100F4000031C710FF8026E08F9007208031C720F7F
:100F5000F9026F08FA007308031C730FFA028A1172
:040F60000A169928AC
:101000008316AD013030AC00AB01A030AA002C0833
:10101000840083132D1883170008AE002A0884006B
:1010200083132B1883172E088000800803191B28B0
:10103000AA0AAC0A07282008303A83120319452867
:10104000723A0319E828043A031947290C3A03199C
:101050009929063A0319EB291C3A0319CD2A013ABA
:101060000319E22A033A0319F72A013A0319BC2BA0
:10107000073A0319132C023A0319BE2C0E3A03192E
:10108000A72D023A0319722EB22E071D5828C5301B
:1010900003178D0003308F008A1103135B218A151B
:1010A0000D300C1E512899000A300C1E552899004D
:1010B000313083162202FC3E0318E628043E8312D8
:1010C000B52E83162308AD008A118312D1218A150B
:1010D00078088316AA00AB0083124D088316AF0070
:1010E00083124C088316AE0083124B088316AD00A2
:1010F00083124A088316AC008A11831241228A1592
:101100008316E62883162308AD008A118312D121A5
:101110008A1578088316AA00AB0083124908831643
:10112000AF00831248088316AE0083124708831667
:10113000AD00831246088316AC008A118312412247
:101140008A158316E62883162308AD008A118312B8
:10115000D1218A1578088316AA00AB00831255089E
:101160008316AF00831254088316AE00831253080F
:101170008316AD00831252088316AC008A118312C5
:1011800041228A158316E62883162308AD008A11AA
:101190008312D1218A1578088316AA00AB00831226
:1011A00051088316AF00831250088316AE008312D5
:1011B0004F088316AD0083124E088316AC008A11C7
:1011C000831241228A158316E62883168312B22ED3
:1011D00083162108313A83120319F528033A0319BB
:1011E0001029013A03192B294629071D0829D53052
:1011F00003178D0003308F008A1103135B218A15BA
:101200000D300C1E012999000A300C1E0529990089
:1012100001308316AA008A118312E7228A15462913
:10122000071D2329DD3003178D0003308F008A113D
:1012300003135B218A150D300C1E1C2999000A30FE
:101240000C1E2029990002308316AA008A118312ED
:10125000E7228A154629071D3E29E53003178D0030
:1012600003308F008A1103135B218A150D300C1E89
:10127000372999000A300C1E3B2999000330831648
:10128000AA008A118312E7228A154629B22E071D69
:101290005A29ED3003178D0003308F008A11031394
:1012A0005B218A150D300C1E532999000A300C1E43
:1012B0005729990083162108AD008A118312D12184
:1012C0008A1578088316AA00AB0083125508831686
:1012D000AF00831254088316AE008312530883169E
:1012E000AD00831252088316AC008A11831241228A
:1012F0008A1583162208AD008A118312D1218A151E
:1013000078088316AA00AB00831251088316AF0039
:10131000831250088316AE0083124F088316AD0067
:1013200083124E088316AC008A11831241228A155B
:10133000B22E071DAC29F63003178D0003308F0045
:101340008A1103135B218A150D300C1EA529990003
:101350000A300C1EA929990083162108AD008A11B4
:101360008312D1218A1578088316AA00AB00831254
:101370004D088316AF0083124C088316AE0083120B
:101380004B088316AD0083124A088316AC008A11FD
:10139000831241228A1583162208AD008A11831216
:1013A000D1218A1578088316AA00AB008312490858
:1013B0008316AF00831248088316AE0083124708D5
:1013C0008316AD00831246088316AC008A1183127F
:1013D00041228A15B22E071DFE29003003178D0009
:1013E00004308F008A1103135B218A150D300C1E07
:1013F000F72999000A300C1EFB2999008316210851
:10140000303A83120319172A013A0319302A033A92
:1014100003194A2A013A0319652A773A0319802ADF
:101420000D3A03199B2A193A0319AF2ACC2A071D32
:101430002A2A093003178D0004308F008A11031304
:101440005B218A150D300C1E232A99000A300C1ED0
:10145000272A9900DD01DC018A11FC228A15CC2A99
:10146000071D432A113003178D0004308F008A11A5
:1014700003135B218A150D300C1E3C2A99000A309B
:101480000C1E402A9900DC0A0319DD0A8A11FC228D
:101490008A15CC2A071D5D2A1C3003178D000430E5
:1014A0008F008A1103135B218A150D300C1E562AFA
:1014B00099000A300C1E5A2A99000230DC070318E2
:1014C000DD0A8A11FC228A15CC2A071D782A2730CA
:1014D00003178D0004308F008A1103135B218A15D6
:1014E0000D300C1E712A99000A300C1E752A9900C5
:1014F0000330DC070318DD0A8A11FC228A15CC2A86
:10150000071D932A323003178D0004308F008A1193
:1015100003135B218A150D300C1E8C2A99000A30AA
:101520000C1E902A99005C080319DD03DC038A1164
:10153000FC228A15CC2A071DAE2A3D3003178D00E8
:1015400004308F008A1103135B218A150D300C1EA5
:10155000A72A99000A300C1EAB2A9900CC2A071D35
:10156000C22A453003178D0004308F008A110313FF
:101570005B218A150D300C1EBB2A99000A300C1E07
:10158000BF2A99000C308316B6007130B7008A115B
:101590008312FD228A15CC2AB22E071DE02A4F3075
:1015A00003178D0004308F008A1103135B218A1505
:1015B0000D300C1ED92A99000A300C1EDD2A990024
:1015C000C515B22E071DF52A583003178D000430BB
:1015D0008F008A1103135B218A150D300C1EEE2A31
:1015E00099000A300C1EF22A9900C511B22E303033
:1015F00083162102FB3E0318BA2B053E8312BD2E33
:10160000071D132B613003178D0004308F008A11E2
:1016100003135B218A150D300C1E0C2B99000A3028
:101620000C1E102B99000A308316B6007030B700DC
:101630008A118312FD228A1532308316B2008A1174
:10164000831210238A158316BA2B071D382B6B3093
:1016500003178D0004308F008A1103135B218A1554
:101660000D300C1E312B99000A300C1E352B9900C1
:101670000A308316B6007130B7008A118312FD223A
:101680008A1532308316B2008A11831210238A150C
:101690008316BA2B071D5D2B723003178D000430A3
:1016A0008F008A1103135B218A150D300C1E562BF7
:1016B00099000A300C1E5A2B99000A308316B60086
:1016C0007230B7008A118312FD228A1532308316D8
:1016D000B2008A11831210238A158316BA2B071DB4
:1016E000822B793003178D0004308F008A11031389
:1016F0005B218A150D300C1E7B2B99000A300C1EC5
:101700007F2B99000A308316B6007330B7008A1118
:101710008312FD228A1532308316B2008A11831299
:1017200010238A158316BA2B071DA72B80300317A9
:101730008D0004308F008A1103135B218A150D3050
:101740000C1EA02B99000A300C1EA42B99000A3005
:101750008316B6007430B7008A118312FD228A15F1
:1017600032308316B2008A11831210238A15831631
:10177000BA2B83168312B22E071DCF2B8730031787
:101780008D0004308F008A1103135B218A150D3000
:101790000C1EC82B99000A300C1ECC2B9900831606
:1017A0002108AD008A118312D1218A157808831689
:1017B000AA002208AD008A118312D1218A15780867
:1017C0008316AB002A08AC002B08AD002D0883124D
:1017D000DB0083162C088312DA0083162C08B20073
:1017E0000A30B3000130B4008A11831224238A1511
:1017F00032308316B2008A11831210238A158316A1
:101800002D08B2000A30B3000230B4008A118312EE
:1018100024238A1532308316B2008A1183121023D2
:101820008A154515B22E071D262C943003178D00FE
:1018300004308F008A1103135B218A150D300C1EB2
:101840001F2C99000A300C1E232C990083162108A6
:10185000AD008A118312D1218A1578088316AA0057
:101860002208AD008A118312D1218A1578088316C7
:10187000AB002308AD008A118312D1218A157808A4
:101880008316AC002408AD008A118312D1218A1579
:1018900078088316AD002A08AE002B08AF002C088C
:1018A000B0002D08B1002F088312D70083162E0830
:1018B0008312D600831630088312D80083163108AD
:1018C0008312D90083163108B2000A30B300043005
:1018D000B4008A11831224238A1532308316B20091
:1018E0008A11831210238A1583163008B2000A3039
:1018F000B3000330B4008A11831224238A153230D6
:101900008316B2008A11831210238A1583162F08BA
:10191000B2000A30B3000530B4008A1183122423C8
:101920008A1532308316B2008A11831210238A1569
:101930008316AE080319AD2C0A30B6007530B70017
:101940008A118312FD228A1532308316B2008A1161
:10195000831210238A15BC2C83160A30B600763009
:10196000B7008A118312FD228A1532308316B20025
:101970008A11831210238A15C514B22E071DD12C8B
:10198000A23003178D0004308F008A1103135B21EE
:101990008A150D300C1ECA2C99000A300C1ECE2C54
:1019A000990083162108303A83120319EA2C013A70
:1019B0000319032D033A03191D2D013A0319382D7C
:1019C000773A0319532D0D3A03196E2D193A03195D
:1019D000822DA62D071DFD2CAD3003178D00043080
:1019E0008F008A1103135B218A150D300C1EF62C13
:1019F00099000A300C1EFA2C9900DF01DE018A11D1
:101A000033238A15A62D071D162DB53003178D001B
:101A100004308F008A1103135B218A150D300C1ED0
:101A20000F2D99000A300C1E132D9900DE0A0319A0
:101A3000DF0A8A1133238A15A62D071D302DC030E9
:101A400003178D0004308F008A1103135B218A1560
:101A50000D300C1E292D99000A300C1E2D2D9900D9
:101A60000230DE070318DF0A8A1133238A15A62DF8
:101A7000071D4B2DCB3003178D0004308F008A11CA
:101A800003135B218A150D300C1E442D99000A307A
:101A90000C1E482D99000330DE070318DF0A8A1157
:101AA00033238A15A62D071D662DD63003178D000A
:101AB00004308F008A1103135B218A150D300C1E30
:101AC0005F2D99000A300C1E632D99005E080319E2
:101AD000DF03DE038A1133238A15A62D071D812D0E
:101AE000E13003178D0004308F008A1103135B214E
:101AF0008A150D300C1E7A2D99000A300C1E7E2D91
:101B00009900A62D071D952DE93003178D0004308F
:101B10008F008A1103135B218A150D300C1E8E2D48
:101B200099000A300C1E922D99000C308316B600D5
:101B30007230B7008A118312FD228A153230831663
:101B4000B2008A11831210238A15A62DB22E071D0A
:101B5000BA2D903003178D0003308F008A110313C4
:101B60005B218A150D300C1EB32D99000A300C1E16
:101B7000B72D9900071DCD2D9A3003178D00033026
:101B80008F008A1103135B218A150D300C1EC62DA0
:101B900099000A300C1ECA2D99000A308316B6002F
:101BA000FF30B7008A118312FD228A15071DE92D27
:101BB000A73003178D0003308F008A1103135B21B8
:101BC0008A150D300C1EE22D99000A300C1EE62DF0
:101BD00099000C308316B600FF30B7008A118312CB
:101BE000FD228A15071D052EB43003178D00033022
:101BF0008F008A1103135B218A150D300C1EFE2DF8
:101C000099000A300C1E022E99008316AA012A0898
:101C1000093C031C702E2A08AB0083124D08831662
:101C2000AF0083124C088316AE0083124B08831654
:101C3000AD0083124A088316AC008A118312412238
:101C40008A1583162A08AB00831249088316AF0051
:101C5000831248088316AE00831247088316AD002E
:101C6000831246088316AC008A11831241228A151A
:101C700083162A08AB00831255088316AF0083121F
:101C800054088316AE00831253088316AD008312E6
:101C900052088316AC008A11831241228A158316DA
:101CA0002A08AB00831251088316AF008312500834
:101CB0008316AE0083124F088316AD0083124E08C0
:101CC0008316AC008A11831241228A15C83083160C
:101CD000B2008A11831210238A158316AA0A072ECE
:101CE0008312B22E071D852EF33003178D000430AA
:101CF0008F008A1103135B218A150D300C1E7E2E76
:101D000099000A300C1E822E990002308316AA0018
:101D1000FA30B2008A11831210238A158316AA0B97
:101D2000882E0A30B600FD30B7008A118312FD22DA
:101D30008A1532308316B2008A11831210238A1555
:101D40000C308316B600FD30B7008A118312FD22D5
:101D50008A1532308316B2008A11831210238A1535
:101D60008A0100288A110A12612B0A108A140A15A6
:101D7000820761288228A328C4280A108A140A1519
:0C1D80008207002B252B4A2B6F2B942B85
:1020000003081F398300713083168F0090010F0879
:10201000031787110C3003139900A23098009030F9
:1020200083129800DF3083168700DF30870004308A
:102030009300283083129400831694131413831290
:10204000AF01AE01AD01AC0183160108C0390638FD
:102050008100831281010B11C4014510D601D70103
:10206000D801D901C510DA01DB014511C511DD0127
:10207000DC01DF01DE01E301E20183160317090839
:10208000C039890003131F129F1200300317880004
:10209000831287018801890183130313B001B10101
:1020A000B201B301B401B501B601B701B801B9017C
:1020B000BA01BB01BC01BD01BE01BF01C001C1012C
:1020C000C201C301E001E1010A12B52D0A160A128C
:1020D0007E270A167A08EB007908EA007808E900FA
:1020E0007708E8006B08E7006A08E6006908E50081
:1020F0006808E400C519E9290A127E270A167A0839
:10210000E7007908E6007808E5007708E40067084A
:10211000EF006608EE006508ED006408EC006B084F
:10212000F3006A08F2006908F1006808F0000A127A
:102130009A2F0A167A08EF007908EE007808ED0069
:102140007708EC00EF08031DB328EE08031DB32841
:102150006D081D3C0318E929FF3A031DB3286C08DC
:10216000833C0318E929C51C88295608EC00570848
:10217000ED005808EE005908EF00D9080319C228ED
:10218000D903E228D8080319C9280930D900D8038F
:10219000E228D7080319D2280530D8000930D90021
:1021A000D703E228D6080319DD28D6010930D70065
:1021B0000530D8000930D900E228D601D701D8016E
:1021C000D901C51059086F020319F728AB018B1B01
:1021D000AB178B1359088316B2000A30B3000430D2
:1021E000B4000A12831224230A16AB1B8B17AB010F
:1021F0008B1BAB178B1332308316B2000A1283127B
:1022000010230A16AB1B8B1758086E0203191929E5
:10221000AB018B1BAB178B1358088316B2000A3027
:10222000B3000330B4000A12831224230A16AB1B36
:102230008B17AB018B1BAB178B1332308316B2009D
:102240000A12831210230A16AB1B8B1757086D0254
:1022500003193B29AB018B1BAB178B135708831654
:10226000B2000A30B3000530B4000A1283122423EE
:102270000A16AB1B8B17AB018B1BAB178B133230C2
:102280008316B2000A12831210230A16AB1B8B1797
:1022900056086C0203198829D608031D6C29AB0166
:1022A0008B1BAB178B130A308316B6007630B70042
:1022B0000A128312FD220A16AB1B8B17AB018B1B74
:1022C000AB178B1332308316B2000A12831210231D
:1022D0000A16AB1B8B178829AB018B1BAB178B1313
:1022E0000A308316B6007530B7000A128312FD2239
:1022F0000A16AB1B8B17AB018B1BAB178B13323042
:102300008316B2000A12831210230A16AB1B8B1716
:10231000451DE1295A08EC005B08ED00DB080319B4
:102320009329DB039D29DA0803199A290930DB0078
:10233000DA039D29DA01DB0145115B086D020319FF
:10234000B229AB018B1BAB178B135B088316B20052
:102350000A30B3000230B4000A12831224230A1692
:10236000AB1B8B17AB018B1BAB178B133230831658
:10237000B2000A12831210230A16AB1B8B175A08DD
:102380006C020319D429AB018B1BAB178B135A08B2
:102390008316B2000A30B3000130B4000A1283126F
:1023A00024230A16AB1B8B17AB018B1BAB178B13AC
:1023B00032308316B2000A12831210230A16AB1BA6
:1023C0008B176708EB006608EA006508E9006408F7
:0623D000E8007A2863001A
:04400E00D42CFF3F70
:00000001FF
;PIC16F887
;CRC=39E5  CREATED="09-mar.-20 21:46"
