:1000000007308A00562F0000FF00030E8301A10075
:100010000A08A0008A010408A2007708A300780853
:10002000A4007908A5007A08A60003170D08031399
:10003000A70003170F080313A80003170C080313E6
:10004000A90003170E080313AA00831383128C3030
:100050008400801E2D288C1A4E2822088400230834
:10006000F7002408F8002508F9002608FA002708F8
:1000700003178D000313280803178F0003132908A3
:1000800003178C0003132A0803178E00031320089C
:100090008A00210E8300FF0E7F0E09008A110A12CA
:1000A000972B0A108A100A1182070034003400349A
:1000B00000340034003400340034003400342A1595
:1000C0002A152A152A152A152A152A152A152A1538
:1000D0002A152A152A152A152A152A152A150D005A
:1000E000A023F23AF037A020D0262014E3142019E0
:1000F000301930100D00BD1EBD1EBD1EBD1EBD1E23
:10010000BD1EBD1EBD1EBD1EBD1EBD1EBD1EBD1E17
:10011000BD1EBD1EBD1E0D004236F532F4376F3ACE
:100120006810C230F335653AE2306C36A029E33707
:10013000F2322021EF3072320D00BD1EBD1EBD1EF9
:10014000BD1EBD1EBD1EBD1EBD1EBD1EBD1EBD1ED7
:10015000BD1EBD1EBD1EBD1EBD1E0D00D632F23918
:10016000E9376E10A539A0162039653BA01273102F
:100170000D003217300046002A152A152A152A15B7
:100180002A152A152A152A152A152A152A152A1577
:100190002A152A152A152A150D0020224528552929
:1001A000C121C9274E103A1DA021CF265527C921AC
:1001B000C121C927CE2253100D00201FA0216F3767
:1001C000E634E73AF230E3346F3720326510D03A44
:1001D0006539F4377300201FA024EE34E334613610
:1001E000693DE131E9376E10E432A024B22100010B
:1001F000201F202461316936693AE131E9376E10F8
:10020000E4322032E9397036E13C7300201F2024AB
:1002100061316936693AE131E9376E10E432A03470
:100220006E3A6539F23AF031E937EE3273000B0875
:10023000F1008B13831603178C170C1400000000B9
:10024000F11F2729831203138B17831603178312B9
:100250000C087F3903196729F1000D08F2000F0817
:10026000F300710803130C1E332999007208031759
:100270008D0073088F0003130B08F4008B13831693
:1002800003178C170C1400000000F41F4C29831274
:1002900003138B178316031783120C0D0E0D7F3972
:1002A00003196729F1000D08F2000F08F300710827
:1002B00003130C1E59299900720803178D00730847
:1002C0008F008D0A03198F0A0313172903170313CD
:1002D000080030307302F63E031897290A3E9A2927
:1002E0000030F800992997290130F80099299729B9
:1002F0000230F800992997290330F80099299729A5
:100300000430F800992997290530F8009929972990
:100310000630F800992997290730F800992997297C
:100320000830F800992997290930F80099290030F8
:10033000F80008000A148A100A118207702974292B
:1003400078297C298029842988298C299029942935
:100350007B080739F7007B0CF800F80CF80C1F300D
:10036000F80578087D07840083137E188317F80149
:10037000F80AF70ABC29F80DF70BBB29FC0803198A
:10038000C42978088004C729F8097808800508007E
:100390007610F6107611F61101307102F73E03184F
:1003A000EA29093E332A7614EA29F614EA29761452
:1003B000F614EA297615EA2976157614EA297615CF
:1003C000F614EA297615F6147614EA29F615EA29C0
:1003D000F6157614003076180130F7007208FB002D
:1003E0007708FC00FE01FD01A8217208FB00FC015A
:1003F000FE018030FD00A8210030F6180130F70022
:100400007308FB007708FC00FE01FD01A8217308BA
:10041000FB00FC01FE018030FD00A82100307619B0
:100420000130F7007408FB007708FC00FE01FD01B5
:10043000A8217408FB00FC01FE018030FD00A8210A
:100440000030F6190130F7007508FB007708FC0052
:10045000FE01FD01A8217508FB00FC01FE018030B2
:10046000FD00A82108000A108A140A118207D32966
:10047000D529D729DA29DC29DF29E229E629E82943
:1004800094138C1183162308831293000230941B5B
:10049000502A8C1D492A00308316111B013083120B
:1004A000F8000800831611141118542A0A30A3000A
:1004B0008312402280307007F1008316A30083125C
:1004C0004022831611151119632A8312080083161E
:1004D00011141118692A2108A300831240228316DF
:1004E0002208A30083124022831611151119762ABF
:1004F000831208007E0EF700F030F70577087C07BE
:100500008316A0007D08A1002008A20083126722A4
:1005100008007C3084008313000803199C2A0230F1
:10052000F800F701F70B922AF80B912A9730F700A1
:10053000F70B982A800B8F2A08007508D8007408DA
:10054000D900F3080319A62AC114A72AC110580814
:10055000FC000C30FD000130FE007A223230FC003D
:1005600089225908FC000C30FD000230FE007A227E
:100570003230FC008922C11CC52A0C308316A10030
:100580007330A20083126722CC2A0C308316A1009C
:100590007430A2008312672208007110C118711410
:1005A0005908F2005808F3007008D80758080A3CA8
:1005B0000318DD2AD90A0A30D80259080A3C031860
:1005C000E42AC1140A30D902F7017118F71441085E
:1005D000770602390319FD2AC11CF62A0C3083164E
:1005E000A1007330A20083126722FD2A0C3083160B
:1005F000A1007430A200831267223230FC008922ED
:100600007208590203190B2B5908FC000C30FD002D
:100610000230FE007A223230FC0089227308580230
:100620000319192B5808FC000C30FD000130FE00A6
:100630007A2208007508DA007408DB00F308031951
:10064000232B4115242B41115A08FC000C30FD00CE
:100650000430FE007A223230FC0089225B08FC0064
:100660000C30FD000330FE007A223230FC0089227B
:10067000411D422B0C308316A1007530A20083125D
:100680006722492B0C308316A1007630A20083121A
:10069000672208007110411971145B08F2005A08B2
:1006A000F3007008DA075A080A3C03185A2BDB0AD1
:1006B0000A30DA025B080A3C0318612B41150A3044
:1006C000DB02F70171187715410877060439031921
:1006D0007A2B411D732B0C308316A1007330A200BE
:1006E000831267227A2B0C308316A1007430A2008B
:1006F000831267223230FC00892272085B020319E0
:10070000882B5B08FC000C30FD000330FE007A22D1
:100710003230FC00892273085A020319962B5A08BA
:10072000FC000C30FD000430FE007A2208008C1E14
:10073000972B1A08E500411CCF2B6508233C0319B1
:10074000A52B65080D3C031DC42B4110E901363073
:10075000E800E7012C30E60068088400831369187C
:1007600083170008EA00660884008313671883175C
:100770006A08800080080319C02BE60AE80AAC2B3F
:100780008A1500288A11CF2B4008083C031CCF2B68
:10079000363040078400831365088000C00A65086E
:1007A0002D3C031DE52B4114E601E70136308400A2
:1007B00083136608840767085120800000380319F6
:1007C000E42BE70AE60AD62BC0018C128A110A1222
:1007D0002D28201F2029753A69376110E43220380E
:1007E000F23A65316100201F2028F237E2306E3284
:1007F0006F10ED37E43AEC37203AE9326D386F008C
:10080000201F2028F237E2306E326F10ED37E43AC5
:10081000EC3720387537F4377300201F2028F23763
:10082000E2306E326F10ED37E43AEC37A031EF363C
:100830007537E931E131E937EE3273000D103E10C2
:10084000C131F434F630E3346F37A0366137F53018
:100850006C10E4322038F532723A6F000D103E1001
:10086000D437F13A6510E337723A6F000D103E103D
:10087000D437F13A6510EC30F2336F000D103E10B2
:10088000D437F13A6510E437623665000D103E103A
:10089000C139E933EE307210E6306C3AE1390001CB
:1008A0000D103E10C139E933EE307210EA3AE730EC
:1008B000E43772000D103E10D232F332F432611080
:1008C000611030000D103E1049376339E536653749
:1008D000F4307210F037721031000D103E104937AD
:1008E0006339E5366537F4307210F0377210320034
:1008F0000D103E1049376339E5366537F430721014
:10090000F037721033000D103E10C4326339E536F3
:100910006537F4307210F037721031000D103E1050
:10092000C139E933EE307210E6306C3AE13900013A
:100930000D103E104937E931E930EC34FA307200DD
:100940000D103E10C139E933EE307210F037F33438
:10095000E3346F3700010D103E10D030F5396139A6
:10096000203AE9326D386F000D103E10D232EE3A67
:10097000E4307210F434E536F03700010D103E100B
:100980004138E133613920286539E937E4377300AC
:100990000D103E10D032F2346F326F1031000D1056
:1009A0003E10D032F2346F326F1032000D103E1014
:1009B000D032F2346F326F1033000D103E10D0324F
:1009C000F2346F326F1034000D103E10D232F33219
:1009D000F4326110611030000D103E104937633958
:1009E000E5366537F4307210F037721031000D10B3
:1009F0003E1049376339E5366537F4307210F03709
:100A0000721032000D103E1049376339E5366537F4
:100A1000F4307210F037721033000D103E10C432F3
:100A20006339E5366537F4307210F03772103100F3
:100A30000D103E10C139E933EE307210E6306C3AD9
:100A4000E13900010D103E104937E931E930EC344D
:100A5000FA3072000D103E10C139E933EE307210D9
:100A6000F037F334E3346F3700010D103E10D2320B
:100A7000F332F4326F10E732EE32F2306C172E1789
:100A8000A01020000D103E10C3376E33E9337539C6
:100A9000E131E9376E10E432203A69396F000D1008
:100AA0003E10C3376E33E9337539E131E9376E10E3
:100AB000E432203AE9326D386F000B08E0008B1306
:100AC000831603178C170C14000000008312031305
:100AD000E01B8B1703170C087F390319B32D031381
:100AE000E00003170D080313E10003170F080313B9
:100AF000E20060080C1E7A2D9900610803178D0032
:100B00000313620803178F0003130B08E3008B1312
:100B1000831603178C170C140000000083120313B4
:100B2000E31B8B1703170C0D0E0D7F390319B32D23
:100B30000313E00003170D080313E10003170F0868
:100B40000313E20060080C1EA32D9900610803172F
:100B50008D000313620803178F008D0A03198F0A93
:100B600003135D2D0317031308000B08E1008B131B
:100B7000831603178C170C14000000008312031354
:100B8000E11B8B170318ED2D03170C087F39031396
:100B9000E10003170D080313E20003170F08031306
:100BA000E30061080C1ED22D9900620803178D0026
:100BB0000313630803178F0003130B08E4008B1360
:100BC000831603178C170C14000000008312031304
:100BD000E41B8B17E00BED2D0D2E03170C0D0E0DE6
:100BE0007F390313E10003170D080313E200031715
:100BF0000F080313E30061080C1EFC2D9900620826
:100C000003178D000313630803178F008D0A031960
:100C10008F0A03100313E00BB52D08000F30831665
:100C20008500831285018316860183128601DF30D9
:100C30008316870083128701831688018312880137
:100C40008316091089100911891183128901AB01DA
:100C50008B1BAB178B130A30FC008922AB1B8B1745
:100C6000071D8D2E5F3003178D0000308F0003139A
:100C70005D25703003178D0000308F0003135D2554
:100C80007B3003178D0000308F0003135D258C30FF
:100C900003178D0000308F0003135D259D3003176F
:100CA0008D0000308F0003135D25AE3003178D00DB
:100CB00000308F00031008300313E000B525B93071
:100CC00003178D0000308F0003135D25B330031729
:100CD0008D0000308F00031007300313E000B525AE
:100CE000BB3003178D0000308F0003135D252030CB
:100CF0000C1E782E99000D300C1E7C2E9900BC30F5
:100D000003178D0000308F0003135D25CD300317CE
:100D10008D0000308F0003135D25AB018B1BAB17DB
:100D20008B130A30FC008922AB1B8B17071DAD2EDD
:100D3000DD3003178D0000308F000313AB018B1BD8
:100D4000AB178B131721AB1B8B170D300C1EA62E68
:100D500099000A300C1EAA2E99003030C2003130A2
:100D6000C3003230C4003330C5003430C6003530E3
:100D7000C7003630C8003730C9004030CA004130A3
:100D8000CB004230CC004330CD004430CE00453063
:100D9000CF004630D0004730D100AB018B1BAB17E2
:100DA0008B130A30FC008922AB1B8B17071DED2E1D
:100DB000EB3003178D0000308F000313AB018B1B4A
:100DC000AB178B131721AB1B8B170D300C1EE62EA8
:100DD00099000A300C1EEA2E9900133083169300F6
:100DE000283083129400831694178312071D0D2F49
:100DF000F83003178D0000308F000313AB018B1BFD
:100E0000AB178B131721AB1B8B170D300C1E062F46
:100E100099000A300C1E0A2F99000914EE3083162F
:100E200089008312AB018B1BAB178B130A30FC00BC
:100E30008922AB1B8B170910EE30831689008312B1
:100E4000AB018B1BAB178B130A30FC008922AB1B49
:100E50008B170914EE30831689008312AB018B1BAC
:100E6000AB178B130A30FC008922AB1B8B17071DB5
:100E70004E2F063003178D0001308F000313AB0196
:100E80008B1BAB178B131721AB1B8B170D300C1E55
:100E9000472F99000A300C1E4B2F990083168C1691
:100EA000C03083128B048A110A12AE2F03081F3937
:100EB0008300713083168F0090010F08031787118C
:100EC0000C3003139900A2309800903083129800E0
:100ED000DF3083168700DF3087000430930028302E
:100EE000831294008316941314138312C0014110CB
:100EF000D201D301D401D501D601D701D801D9013E
:100F0000C110DA01DB014111DF01DE018316031795
:100F10000908C039890003131F129F1200300317FC
:100F20008800831287018801890183130313AC01B0
:100F3000AD01AE01AF01B001B101B201B301B40125
:100F4000B501B601B701B801B901BA01BB01BC01D5
:100F5000BD01BE01BF01DC01DD010E2EAE2F63001D
:10100000F3012C30F200F1016630F0007208840028
:101010008313731883170008F40070088400831387
:101020007118831774088000800803191A28F00AC1
:10103000F20A06286608303A03194328723A03195F
:10104000AE28043A031905290C3A03193F29063A38
:10105000031979291C3A0319D72A013A0319EB2AF3
:10106000033A0319FF2A043A03199D2B0E3A031978
:10107000FB2C023A03199A2D093A0319D02D073A8D
:101080000319112E912E071D56281E3003178D00AF
:1010900004308F008A11031317218A150D300C1E9E
:1010A0004F2899000A300C1E5328990031306802ED
:1010B000FC3E0318AD28043E942E6908F3008A1103
:1010C00069218A157808F000F1004908F500480800
:1010D000F4004708F3004608F2008A11C8218A1577
:1010E000AD286908F3008A1169218A157808F00093
:1010F000F1004508F5004408F4004308F3004208F5
:10110000F2008A11C8218A15AD286908F3008A11F6
:1011100069218A157808F000F1005108F50050089F
:10112000F4004F08F3004E08F2008A11C8218A1516
:10113000AD286908F3008A1169218A157808F00042
:10114000F1004D08F5004C08F4004B08F3004A0884
:10115000F2008A11C8218A15AD28912E6708313A0C
:101160000319B928033A0319D228013A0319EB28C5
:101170000429071DCC282E3003178D0004308F0062
:101180008A11031317218A150D300C1EC5289900EA
:101190000A300C1EC92899000130F0008A11522231
:1011A0008A150429071DE528363003178D00043001
:1011B0008F008A11031317218A150D300C1EDE28AB
:1011C00099000A300C1EE22899000230F0008A11C2
:1011D00052228A150429071DFE283E3003178D0070
:1011E00004308F008A11031317218A150D300C1E4D
:1011F000F72899000A300C1EFB2899000330F000F4
:101200008A1152228A150429912E071D1829463069
:1012100003178D0004308F008A11031317218A15DC
:101220000D300C1E112999000A300C1E1529990049
:101230006708F3008A1169218A157808F000F10027
:101240005108F5005008F4004F08F3004E08F20072
:101250008A11C8218A156808F3008A1169218A1544
:101260007808F000F1004D08F5004C08F4004B0838
:10127000F3004A08F2008A11C8218A15912E071D31
:101280005229503003178D0004308F008A11031348
:1012900017218A150D300C1E4B2999000A300C1E9F
:1012A0004F2999006708F3008A1169218A15780887
:1012B000F000F1004908F5004808F4004708F30081
:1012C0004608F2008A11C8218A156808F3008A11BD
:1012D00069218A157808F000F1004508F5004408F6
:1012E000F4004308F3004208F2008A11C8218A156D
:1012F000912E6708303A03199329013A0319AD2951
:10130000033A0319C629013A0319DF29773A031969
:10131000F829023A0319642A0F3A0319872A193A5D
:101320000319B92AD62A071DA6295A3003178D009A
:1013300004308F008A11031317218A150D300C1EFB
:101340009F2999000A300C1EA3299900F301F4018A
:10135000F5018A119D228A15D62A071DC0296230FF
:1013600003178D0004308F008A11031317218A158B
:101370000D300C1EB92999000A300C1EBD299900A8
:101380000130F0008A11CD228A15D62A071DD929ED
:101390006D3003178D0004308F008A11031317215D
:1013A0008A150D300C1ED22999000A300C1ED62940
:1013B00099000230F0008A11CD228A15D62A071D25
:1013C000F229783003178D0004308F008A1103133F
:1013D00017218A150D300C1EEB2999000A300C1EBE
:1013E000EF2999000330F0008A11CD228A15D62A00
:1013F000071D0B2A833003178D0004308F008A11DC
:10140000031317218A150D300C1E042A99000A3087
:101410000C1E082A99007010C11870145908F100A8
:101420005808F200D8080319172AD803222AD90825
:1014300003191E2AD9030930D800222AC110093005
:10144000D900D800F7017018F7144108770602395F
:1014500003193F2AC11C362A0C308316A1007330B1
:10146000A2008A11831267228A153F2A0C30831644
:10147000A1007430A2008A11831267228A153230CB
:10148000FC008A1189228A15710859020319512A10
:101490005908FC000C30FD000230FE008A117A224F
:1014A0008A153230FC008A1189228A157208580286
:1014B0000319632A5808FC000C30FD000130FE00BF
:1014C0008A117A228A15D62A071D772A8E300317A9
:1014D0008D0004308F008A11031317218A150D30F7
:1014E0000C1E702A99000A300C1E742A9900680894
:1014F000F3008A1169218A157808F000FC000C308D
:10150000FD000530FE008A117A228A15D62A071DB1
:101510009A2A983003178D0004308F008A11031324
:1015200017218A150D300C1E932A99000A300C1EC3
:10153000972A99006808F3008A1169218A157808AA
:10154000F0006908F3008A1169218A157808F10012
:101550006A08F3008A1169218A157808F200700878
:10156000F3007108F4007208F5008A119D228A15B3
:10157000D62A071DCC2AA03003178D0004308F0017
:101580008A11031317218A150D300C1EC52A9900E4
:101590000A300C1EC92A99000C308316A100713044
:1015A000A2008A11831267228A15D62A912E071D5E
:1015B000EA2AAB3003178D0004308F008A11031321
:1015C00017218A150D300C1EE32A99000A300C1ED3
:1015D000E72A9900912E071DFE2AB43003178D00CB
:1015E00004308F008A11031317218A150D300C1E49
:1015F000F72A99000A300C1EFB2A9900912E3030F0
:101600006702FB3E0318972B053E9C2E071D192BE6
:10161000BE3003178D0004308F008A110313172189
:101620008A150D300C1E122B99000A300C1E162B39
:1016300099000A308316A1007030A2008A1183122B
:1016400067228A15972B071D362BC83003178D008C
:1016500004308F008A11031317218A150D300C1ED8
:101660002F2B99000A300C1E332B99000A30831659
:10167000A1007130A2008A11831267228A15972B6C
:10168000071D532BCF3003178D0004308F008A11B4
:10169000031317218A150D300C1E4C2B99000A30AC
:1016A0000C1E502B99000A308316A1007230A20044
:1016B0008A11831267228A15972B071D702BD6304B
:1016C00003178D0004308F008A11031317218A1528
:1016D0000D300C1E692B99000A300C1E6D2B9900E1
:1016E0000A308316A1007330A2008A118312672288
:1016F0008A15972B071D8D2BDD3003178D000430C5
:101700008F008A11031317218A150D300C1E862BAA
:1017100099000A300C1E8A2B99000A308316A1000A
:101720007430A2008A11831267228A15972B3230F7
:10173000FC008A1189228A15912E6708303A031914
:10174000B72B013A0319D12B033A0319EA2B013ABB
:101750000319032C773A03191C2C023A0319882C1D
:101760000F3A0319AB2C193A0319DD2CFA2C071D7B
:10177000CA2BE43003178D0004308F008A11031345
:1017800017218A150D300C1EC32B99000A300C1E30
:10179000C72B9900F301F401F5018A111A238A1568
:1017A000FA2C071DE42BEC3003178D0004308F005A
:1017B0008A11031317218A150D300C1EDD2B990099
:1017C0000A300C1EE12B99000130F0008A114A23E7
:1017D0008A15FA2C071DFD2BF73003178D000430F6
:1017E0008F008A11031317218A150D300C1EF62B5A
:1017F00099000A300C1EFA2B99000230F0008A1171
:101800004A238A15FA2C071D162C023003178D0067
:1018100005308F008A11031317218A150D300C1E15
:101820000F2C99000A300C1E132C99000330F00085
:101830008A114A238A15FA2C071D2F2C0D30031705
:101840008D0005308F008A11031317218A150D3082
:101850000C1E282C99000A300C1E2C2C990070109C
:10186000411970145B08F1005A08F200DA080319F4
:101870003B2CDA03462CDB080319422CDB0309302E
:10188000DA00462C41110930DB00DA00F70170184C
:1018900077154108770604390319632C411D5A2C2A
:1018A0000C308316A1007530A2008A1183126722C2
:1018B0008A15632C0C308316A1007630A2008A11A1
:1018C000831267228A153230FC008A1189228A1518
:1018D00071085B020319752C5B08FC000C30FD00DD
:1018E0000330FE008A117A228A153230FC008A11F8
:1018F00089228A1572085A020319872C5A08FC009B
:101900000C30FD000430FE008A117A228A15FA2C70
:10191000071D9B2C183003178D0005308F008A118E
:10192000031317218A150D300C1E942C99000A30D0
:101930000C1E982C99006808F3008A1169218A15F9
:101940007808F000FC000C30FD000630FE008A1123
:101950007A228A15FA2C071DBE2C223003178D001F
:1019600005308F008A11031317218A150D300C1EC4
:10197000B72C99000A300C1EBB2C99006808F300A4
:101980008A1169218A157808F0006908F3008A1124
:1019900069218A157808F1006A08F3008A11692123
:1019A0008A157808F2007008F3007108F4007208D4
:1019B000F5008A111A238A15FA2C071DF02C2A30FB
:1019C00003178D0005308F008A11031317218A1524
:1019D0000D300C1EE92C99000A300C1EED2C9900DC
:1019E0000C308316A1007230A2008A118312672284
:1019F0008A15FA2C912E071D0E2DE93003178D0044
:101A000003308F008A11031317218A150D300C1E25
:101A1000072D99000A300C1E0B2D9900071D212D52
:101A2000F33003178D0003308F008A110313172141
:101A30008A150D300C1E1A2D99000A300C1E1E2D11
:101A400099000A308316A100FF30A2008A11831288
:101A500067228A15071D3D2D003003178D000430C5
:101A60008F008A11031317218A150D300C1E362D95
:101A700099000A300C1E3A2D99000C308316A100F3
:101A8000FF30A2008A11831267228A15071D592D83
:101A90000D3003178D0004308F008A1103131721B6
:101AA0008A150D300C1E522D99000A300C1E562D31
:101AB0009900F0017008093C031C992D7008F10091
:101AC0004908F5004808F4004708F3004608F2000A
:101AD0008A11C8218A157008F1004508F5004408EC
:101AE000F4004308F3004208F2008A11C8218A1565
:101AF0007008F1005108F5005008F4004F08F30099
:101B00004E08F2008A11C8218A157008F1004D08AC
:101B1000F5004C08F4004B08F3004A08F2008A1163
:101B2000C8218A153230FC008A1189228A15F00AF0
:101B30005A2D912E071DAD2D353003178D00053020
:101B40008F008A11031317218A150D300C1EA62D44
:101B500099000A300C1EAA2D99000230F000FA30CC
:101B6000FC008A1189228A15F00BAF2D0A308316EA
:101B7000A100FD30A2008A11831267228A1532303B
:101B8000FC008A1189228A150C308316A100FD30D1
:101B9000A2008A11831267228A158A010028912ED9
:101BA000071DE32D423003178D0005308F008A1189
:101BB000031317218A150D300C1EDC2D99000A30F5
:101BC0000C1EE02D99006708F3008A1169218A151F
:101BD0007808F0006808F3008A1169218A157808EE
:101BE000F1007008F2007108F3007308D700720862
:101BF000D6007208FC000A30FD000130FE008A1198
:101C00007A228A153230FC008A1189228A157308DB
:101C1000FC000A30FD000230FE008A117A228A158B
:101C2000912E071D242E4F3003178D0005308F0095
:101C30008A11031317218A150D300C1E1D2E9900D1
:101C40000A300C1E212E99006708F3008A116921C1
:101C50008A157808F0006808F3008A1169218A154E
:101C60007808F1006908F3008A1169218A1578085B
:101C7000F2006A08F3008A1169218A157808F300D6
:101C80007008F4007108F5007208F6007308FB0094
:101C90007508D3007408D2007608D4007B08D500FC
:101CA0007B08FC000A30FD000430FE008A117A2215
:101CB0008A153230FC008A1189228A157608FC00C8
:101CC0000A30FD000330FE008A117A228A15323074
:101CD000FC008A1189228A157508FC000A30FD0073
:101CE0000530FE008A117A228A153230FC008A11F2
:101CF00089228A15F4080319872E0A308316A10059
:101D00007530A2008A11831267228A15902E0A303C
:101D10008316A1007630A2008A11831267228A15E9
:101D2000912E8A110A12C22B0A108A140A158207F0
:101D30005D287128852899280A108A140A158207B7
:0A1D4000062B232B402B5D2B7A2B82
:04400E00D42CFF3F70
:00000001FF
;PIC16F887
;CRC=A0B9  CREATED="23-mar.-22 19:13"
