:1000000008308A0000280000FF00030E8301A100D1
:100010000A08A0008A010408A2007708A300780853
:10002000A4007908A5007A08A60003170D08031399
:10003000A70003170F080313A80003170C080313E6
:10004000A90003170E080313AA00831383128C3030
:100050008400801E2D288C1A54288C308400801D2A
:1000600033288C195728220884002308F700240815
:10007000F8002508F9002608FA00270803178D0064
:100080000313280803178F000313290803178C0094
:1000900003132A0803178E00031320088A00210E79
:1000A0008300FF0E7F0E09008A110A12142C8A1198
:1000B0000A12642C0A108A100A11820700340034D4
:1000C0000034003400340034003400340034003490
:1000D00000342A152A152A152A152A152A152A1533
:1000E0002A152A152A152A152A152A152A152A1518
:1000F0002A150D00201020102010A023F23AF0370E
:10010000A020D0262014E31420193019301020101C
:10011000201020100D00BD1EBD1EBD1EBD1EBD1E2B
:10012000BD1EBD1EBD1EBD1EBD1EBD1EBD1EBD1EF7
:10013000BD1EBD1EBD1E0D004236F532F4376F3AAE
:100140006810C230F335653AE2306C36A029E337E7
:10015000F2322021EF3072320D00BD1EBD1EBD1ED9
:10016000BD1EBD1EBD1EBD1EBD1EBD1EBD1EBD1EB7
:10017000BD1EBD1EBD1EBD1EBD1E0D00D632F239F8
:10018000E9376E10A539A0162039653BA01273100F
:100190000D003117300041002A152A152A152A159D
:1001A0002A152A152A152A152A152A152A152A1557
:1001B0002A152A152A152A150D00201020102010A6
:1001C000C327CE294F264110C42220224528552975
:1001D000C121C9274E10201020100D004739753855
:1001E0006F1041284D10A831291032183218201DE7
:1001F0003A1042215321A0182E182039653BA02027
:1002000000003E104937E931E930EC34FA30E3348C
:100210006F3720326510491943003E104937E931E4
:10022000E930EC34FA30E3346F3720326510ED37C3
:10023000E43AEC37203AE9326D386F003E10493726
:10024000E931E930EC34FA30E3346F3720326510AD
:10025000ED37E43AEC3720387537F43773003E1049
:10026000C830E234EC34F430E3346F3720326510B8
:100270006937F43272397538E3346F37E539000085
:100280000B088316B40083128B13831603178C1785
:100290000C14000000000313B41F512983128B17A4
:1002A0008316831203170C087F390319B4298316A8
:1002B0000313B400831203170D0883160313B5004C
:1002C000831203170F0883160313B6003408831232
:1002D0000C1E6829990083163508831203178D00B8
:1002E000831603133608831203178F0003130B08BA
:1002F0008316B70083128B13831603178C170C1405
:10030000000000000313B71F882983128B17831680
:10031000831203170C0D0E0D7F390319B4298316B0
:100320000313B400831203170D0883160313B500DB
:10033000831203170F0883160313B60034088312C1
:100340000C1EA029990083163508831203178D000F
:10035000831603133608831203178F008D0A0319BF
:100360008F0A031340290317031308000830F8000D
:1003700000008711831687110000B40D8312071245
:10038000031CC5298316071683120318CA2983166E
:1003900007128312831687158312871DCD29F80B48
:1003A000B829000087118316871100000716000086
:1003B000000087158312871DDB29F8010000071A4A
:1003C0007814871183168711831207128316071278
:1003D00083120800F4013030F300F201A030F10084
:1003E000730884008313741883170008F5007108DC
:1003F000840083137218831775088000800803191E
:10040000042AF10AF30AF0294C3083162002F33E45
:100410000318FF2B0D3E8312032C071D1E2A9D304F
:1004200003178D0004308F00031340210D300C1E84
:10043000172A99000A300C1E1B2A990083162108DE
:10044000303A83120319342A013A0319462A033A2F
:100450000319582A013A03196A2A773A03197C2AA0
:10046000143A03198E2A9F2A071D452AA63003171E
:100470008D0004308F00031340210D300C1E3E2AE6
:1004800099000A300C1E422A99009F2A071D572AFC
:10049000AE3003178D0004308F00031340210D3060
:1004A0000C1E502A99000A300C1E542A99009F2ACB
:1004B000071D692AB93003178D0004308F0003131C
:1004C00040210D300C1E622A99000A300C1E662A4B
:1004D00099009F2A071D7B2AC43003178D00043022
:1004E0008F00031340210D300C1E742A99000A302E
:1004F0000C1E782A99009F2A071D8D2ACF300317DA
:100500008D0004308F00031340210D300C1E862A0D
:1005100099000A300C1E8A2A99009F2A071D9F2ADB
:10052000DA3003178D0004308F00031340210D30A3
:100530000C1E982A99000A300C1E9C2A99008316DA
:10054000FF2B071DB22AE43003178D0004308F0003
:10055000031340210D300C1EAB2A99000A300C1EEB
:10056000AF2A99008316FF2B071DC52AED3003170C
:100570008D0004308F00031340210D300C1EBE2A65
:1005800099000A300C1EC22A99008316FF2B071D02
:10059000D82AF63003178D0004308F000313402152
:1005A0000D300C1ED12A99000A300C1ED52A990054
:1005B0008316FF2B071DEB2A043003178D0005302F
:1005C0008F00031340210D300C1EE42A99000A30DD
:1005D0000C1EE82A990083162108303A8312031969
:1005E000012B013A0319132B033A0319252B013A66
:1005F0000319372B773A0319492B143A03195B2B4C
:100600006C2B071D122B0F3003178D0005308F0048
:10061000031340210D300C1E0B2B99000A300C1EC9
:100620000F2B99006C2B071D242B173003178D00FF
:1006300005308F00031340210D300C1E1D2B990037
:100640000A300C1E212B99006C2B071D362B2230F3
:1006500003178D0005308F00031340210D300C1E51
:100660002F2B99000A300C1E332B99006C2B071D81
:10067000482B2D3003178D0005308F0003134021C8
:100680000D300C1E412B99000A300C1E452B990091
:100690006C2B071D5A2B383003178D0005308F0047
:1006A000031340210D300C1E532B99000A300C1EF1
:1006B000572B99006C2B071D6C2B433003178D00B3
:1006C00005308F00031340210D300C1E652B99005F
:1006D0000A300C1E692B99008316FF2B071D7F2BF8
:1006E000683003178D0004308F00031340210D3054
:1006F0000C1E782B99000A300C1E7C2B9900071DCC
:10070000902B723003178D0004308F0003134021AB
:100710000D300C1E892B99000A300C1E8D2B990070
:100720008316071600008715000083120712831630
:100730000712000083128711831687110A30B40054
:100740008312B621FF308316B4008312B6218316BC
:100750000712000087158312871DAC2B0000B02BF9
:1007600000008316071600008312071DC62B7F307A
:1007700003178D0004308F00031340210D300C1E31
:10078000BF2B99000A300C1EC32B99008316071645
:10079000000087150000831207128316071200005D
:1007A00083128711831687110C30B4008312B6218F
:1007B000FF308316B4008312B6218316071200009F
:1007C00087158312871DE22B0000E62B000083169D
:1007D000071600008312071DFC2B8C3003178D00B9
:1007E00004308F00031340210D300C1EF52B9900AF
:1007F0000A300C1EF92B99008316FF2B83168312E7
:100800008A110A123E2C0A108A100A1582070D2A34
:10081000FE2BFE2BFE2BA12AB42AFE2BFE2BC72A71
:10082000FE2BDA2AFE2B6E2B8C1E142C1A08F000DD
:10083000451C4A2C7008233C0319222C70080D3CDF
:10084000031D3F2C4510F4013A30F300F201303023
:10085000F100730884008313741883170008F500EF
:10086000710884008313721883177508800080084C
:1008700003193D2CF10AF30A292CEA294A2C4408D1
:10088000083C031C4A2C3A30440784008313700848
:100890008000C40A70082D3C031D602C4514F10132
:1008A000F2013A30840083137108840772085A20D9
:1008B0008000003803195F2CF20AF10A512CC401A0
:1008C0008C128A110A1233288C118A110A123328C9
:1008D0003E10D23AF434EE30203265107039F532E1
:1008E000E23000013E1050396F316137E437A036F5
:1008F0006F3275366F10F434E536F03700013E1074
:1009000050396F316137E437A0366F3275366F106A
:10091000F03A6E3AEF3900013E1050396F316137CD
:10092000E437A0366F3275366F10E337ED3AEE34A8
:10093000E330E3346F37E53900000D1FA021EF36B7
:100940006137E4372036EF31613600010D1F202971
:10095000E539653AE530A030201800010D1FA024CC
:10096000EE31F232ED326E3A613920386F39A0182B
:1009700000010D1FA024EE31F232ED326E3A6139E2
:1009800020386F39201900010D1FA024EE31F232FA
:10099000ED326E3A613920386F39A01900010D1F10
:1009A0002022E531F232ED326E3A613920386F396A
:1009B000A01800010D1FA020F334673761392038DB
:1009C000EF39E931E9376E000D1F2028E13AF330A5
:1009D0007210F434E536F03700010D1F2029653719
:1009E00075326139203AE9326D386F000D1FA02150
:1009F0006F37E634E73AF230E3346F372032651070
:100A0000F434E536F03700010D1FA021EF366137D1
:100A1000E437203BE939693A6137F43200010D1FB0
:100A20002029E539653AE530A030201800010D1F76
:100A3000A024EE31F232ED326E3A613920386F394E
:100A4000A01800010D1FA024EE31F232ED326E3AF3
:100A5000613920386F39201900010D1FA024EE31B3
:100A6000F232ED326E3A613920386F39A019000147
:100A70000D1F2022E531F232ED326E3A6139203815
:100A80006F39A01800010D1FA020F33467376139BA
:100A90002038EF39E931E9376E000B08E8008B1395
:100AA000831603178C170C14000000008312031325
:100AB000E81B8B1703170C087F390319A32D0313A9
:100AC000E80003170D080313E90003170F080313C9
:100AD000EA0068080C1E6A2D9900690803178D004A
:100AE00003136A0803178F0003130B08EB008B1323
:100AF000831603178C170C140000000083120313D5
:100B0000EB1B8B1703170C0D0E0D7F390319A32D4B
:100B10000313E80003170D080313E90003170F0878
:100B20000313EA0068080C1E932D99006908031747
:100B30008D0003136A0803178F008D0A03198F0AAB
:100B400003134D2D0317031308000B08E9008B1343
:100B5000831603178C170C14000000008312031374
:100B6000E91B8B170318DD2D03170C087F390313BE
:100B7000E90003170D080313EA0003170F08031316
:100B8000EB0069080C1EC22D99006A0803178D003E
:100B900003136B0803178F0003130B08EC008B1370
:100BA000831603178C170C14000000008312031324
:100BB000EC1B8B17E80BDD2DFD2D03170C0D0E0D17
:100BC0007F390313E90003170D080313EA00031725
:100BD0000F080313EB0069080C1EEC2D99006A083E
:100BE00003178D0003136B0803178F008D0A031979
:100BF0008F0A03100313E80BA52D08000F3083168E
:100C00008500831285018316860183128601DF30F9
:100C10008316870083128701831688018312880157
:100C20008316091089100911891183128901643012
:100C3000E800683084008313000803192C2E02306A
:100C4000F800F701F70B222EF80B212E9730F70052
:100C5000F70B282E800B1F2E071D8A2E69300317D5
:100C60008D0000308F0003134D257A3003178D005F
:100C700000308F0003134D258B3003178D0000309B
:100C80008F0003134D259C3003178D0000308F001B
:100C900003134D25AD3003178D0000308F00031373
:100CA0004D25BE3003178D0000308F000310083033
:100CB0000313E800A525C93003178D0000308F000D
:100CC00003134D25C33003178D0000308F00031030
:100CD00007300313E800A525CB3003178D00003043
:100CE0008F0003134D2520300C1E742E99000D30FB
:100CF0000C1E782E9900CC3003178D0000308F0029
:100D000003134D25DD3003178D0000308F000313D2
:100D10004D259F2EEE3003178D0000308F000313FA
:100D2000AB018B1BAB178B134021AB1B8B170D300B
:100D30000C1E982E99000A300C1E9C2E9900071D3F
:100D4000B62E013003178D0001308F000313AB0165
:100D50008B1BAB178B134021AB1B8B170D300C1E5D
:100D6000AF2E99000A300C1EB32E9900071DCD2E10
:100D70000D3003178D0001308F000313AB018B1B67
:100D8000AB178B134021AB1B8B170D300C1EC62EDF
:100D900099000A300C1ECA2E99008316071600000F
:100DA00087150000831207128316071200008312B2
:100DB0008711831687118312AB018B1BAB178B1323
:100DC0000A308316B4008312B621AB1B8B17AB011C
:100DD0008B1BAB178B13F0308316B4008312B62134
:100DE000AB1B8B1783160712000087158312871D14
:100DF000F72E0000FB2E000083160716000083125A
:100E0000071D172F1E3003178D0001308F000313AD
:100E1000AB018B1BAB178B134021AB1B8B170D301A
:100E20000C1E102F99000A300C1E142F99008316E7
:100E30000716000087150000831207128316071299
:100E4000000083128711831687118312AB018B1B5D
:100E5000AB178B130C308316B4008312B621AB1B77
:100E60008B17AB018B1BAB178B13F0308316B400C1
:100E70008312B621AB1B8B17831607120000871550
:100E80008312871D412F0000452F0000831607168F
:100E900000008312071D612F2F3003178D000130D2
:100EA0008F000313AB018B1BAB178B134021AB1BC4
:100EB0008B170D300C1E5A2F99000A300C1E5E2F16
:100EC000990083168C168C15C03083128B048A15FA
:100ED0000A1248280B1D762F0130AC070318AD0A03
:100EE0000319AE0A0319AF0A0B11822F01080B1D5B
:100EF000832F0130AC070318AD0A0319AE0A03199A
:100F0000AF0A0B110108F7002C08F8002D08F900B2
:100F10002E08FA002F08E800E80CFA0CF90CF80C7F
:100F2000F70C08006C086802F7006908F8006D0803
:100F3000031C6D0FF8026A08F9006E08031C6E0F9F
:100F4000F9026B08FA006F08031C6F0FFA028A158A
:0A0F50000A1279288A150A12952862
:1010000003081F398300713083168F000F08031700
:1010100087110C3003139900A2309800903083128E
:101020009800AF01AE01AD01AC0183160108C039D3
:1010300006388100831281010B11C401451083160B
:1010400003170908C039890003131F129F120030CB
:101050000317880083128701880189018313031312
:10106000B001B101B201B301B401B501B601B701DC
:10107000B801B901BA01BB01BC01BD01BE01BF018C
:10108000C001C101C201C301DE01DF018A11FE2DD1
:101090008A158A116A278A157A08E7007908E60016
:1010A0007808E5007708E4006708E3006608E200D6
:1010B0006508E1006408E0008A116A278A157A0849
:1010C000E3007908E2007808E1007708E0006308AF
:1010D000EB006208EA006108E9006008E8006708C0
:1010E000EF006608EE006508ED006408EC008A1168
:1010F000922F8A157A08EB007908EA007808E9004F
:101100007708E800EB08031D9328EA08031D9328DD
:1011100069081D3C03189E28FF3A031D93286808A0
:10112000833C03189E288A11AA2F8A156308E700BA
:101130006208E6006108E5006008E4005C286300DE
:04400E00D42CFF3F70
:00000001FF
;PIC16F887
;CRC=CEC8  CREATED="06-mar.-20 21:13"
