:1000000006308A00B02E0000FF00030E8301A1001D
:100010000A08A0008A010408A2007708A300780853
:10002000A4007908A5007A08A60003170D08031399
:10003000A70003170F080313A80003170C080313E6
:10004000A90003170E080313AA00831383128C3030
:100050008400801E2D288C1A4E2822088400230834
:10006000F7002408F8002508F9002608FA002708F8
:1000700003178D000313280803178F0003132908A3
:1000800003178C0003132A0803178E00031320089C
:100090008A00210E8300FF0E7F0E09008A110A12CA
:1000A0002E2C0A108A100A118207003400342A15F7
:1000B0002A152A152A152A152A152A152A152A1548
:1000C0002A152A152A152A152A152A152A150D006A
:1000D000A023F23AF037A020D0262014E3142019F0
:1000E000301930100D00BD1EBD1EBD1EBD1EBD1E33
:1000F000BD1EBD1EBD1EBD1EBD1EBD1EBD1EBD1E28
:10010000BD1EBD1EBD1E0D004236F532F4376F3ADE
:100110006810C230F335653AE2306C36A029E33717
:10012000F2322021EF3072320D00BD1EBD1EBD1E09
:10013000BD1EBD1EBD1EBD1EBD1EBD1EBD1EBD1EE7
:10014000BD1EBD1EBD1EBD1EBD1E0D00D632F23928
:10015000E9376E10A539A0162039653BA01273103F
:100160000D003217300046002A152A152A152A15C7
:100170002A152A152A152A152A152A152A152A1587
:100180002A152A152A152A150D0020224528552939
:10019000C121C9274E103A1DA021CF265527C921BC
:1001A000C121C927CE2253100D00201FA0216F3777
:1001B000E634E73AF230E3346F3720326510D03A54
:1001C0006539F4377300201FA024EE34E334613620
:1001D000693DE131E9376E10E432A024B22100011B
:1001E000201F202461316936693AE131E9376E1008
:1001F000E4322032E9397036E13C7300201F2024BC
:1002000061316936693AE131E9376E10E432A03480
:100210006E3A6539F23AF031E937EE3273000B0885
:100220008316B90083128B13831603178C170C14D3
:10023000000000000313B91F202983128B178316B7
:10024000831203170C087F390319832983160313BC
:10025000B900831203170D0883160313BA00831223
:1002600003170F0883160313BB00390883120C1EF3
:100270003729990083163A08831203178D008316D5
:1002800003133B08831203178F0003130B08831615
:10029000BC0083128B13831603178C170C140000F9
:1002A00000000313BC1F572983128B178316831278
:1002B00003170C0D0E0D7F390319832983160313C1
:1002C000B900831203170D0883160313BA008312B3
:1002D00003170F0883160313BB00390883120C1E83
:1002E0006F29990083163A08831203178D0083162D
:1002F00003133B08831203178F008D0A03198F0A1B
:1003000003130F29031703130800303083163B0231
:10031000F63E0318C1290A3E8312C5290030F800B1
:10032000C4298316C1290130F800C4298316C129C4
:100330000230F800C4298316C1290330F800C4290B
:100340008316C1290430F800C4298316C129053059
:10035000F800C4298316C1290630F800C429831681
:10036000C1290730F800C4298316C1290830F800D4
:10037000C4298316C1290930F800C4298316C1296C
:1003800083160030F800831208000A148A100A113C
:1003900082078E29932998299D29A229A729AC296A
:1003A000B129B629BB2983163F080739F7003F0C4E
:1003B000F800F80CF80C1F30F805780841078400A5
:1003C000831342188317F801F80AF70AE829F80D91
:1003D000F70BE729C0080319F02978088004F329EE
:1003E000F809780880058312080083163E10BE10B5
:1003F0003E11BE1101303902F73E0318242A093E8E
:1004000083127C2A83163E14242A8316BE14242ABF
:1004100083163E14BE14242A83163E15242A8316FE
:100420003E153E14242A83163E15BE14242A831634
:100430003E15BE143E14242A8316BE15242A8316A4
:10044000BE153E14242A831600303E180130F700F2
:100450003A08BF007708C000C201C1018312D3214E
:1004600083163A08BF00C001C2018030C100831268
:10047000D32100308316BE180130F7003B08BF00BF
:100480007708C000C201C1018312D32183163B0843
:10049000BF00C001C2018030C1008312D3210030EF
:1004A00083163E190130F7003C08BF007708C000F2
:1004B000C201C1018312D32183163C08BF00C001D1
:1004C000C2018030C1008312D32100308316BE19CF
:1004D0000130F7003D08BF007708C000C201C1012C
:1004E0008312D32183163D08BF00C001C2018030B2
:1004F000C1008312D32108000A108A140A1182074E
:10050000022A052A082A0C2A0F2A132A172A1C2A2B
:100510001F2A94138C11831646088312930002300D
:10052000941B992A8C1D922A00308316111B0130CE
:100530008312F80008008316111411189D2A0A303E
:10054000C60083128922803083163807B900C6009E
:1005500083128922831611151119AC2A83120800FF
:10056000831611141118B22A4408C6008312892276
:1005700083164508C60083128922831611151119A6
:10058000BF2A831208008316420EF700F030F705E9
:1005900077084007C3004108C4004308C500831220
:1005A000B0220800C0308400831300080319E52A34
:1005B0000230F800F701F70BDB2AF80BDA2A973044
:1005C000F700F70BE12A800BD82A080083163D08B4
:1005D0008312EC0083163C088312ED008316BB08DF
:1005E0000319F62A8312D514F82A83168312D5101C
:1005F0006C088316C0000C30C1000130C2008312A9
:10060000C32232308316C0008312D2226D088316B3
:10061000C0000C30C1000230C2008312C32232304D
:100620008316C0008312D222D51C1E2B0C308316D9
:10063000C4007330C5008312B022252B0C30831602
:10064000C4007430C5008312B0220800831639102C
:100650008312D51C2E2B8316391483126D08831632
:10066000BA0083126C088316BB0038088312EC07AB
:100670006C080A3C03183F2BED0A0A30EC026D08A7
:100680000A3C0318462BD5140A30ED02F7018316F5
:100690003918F71483125508770602390319612BAC
:1006A000D51C5A2B0C308316C4007330C50083123E
:1006B000B022612B0C308316C4007430C500831245
:1006C000B02232308316C0008312D22283163A0839
:1006D00083126D020319752B6D088316C0000C3050
:1006E000C1000230C2008312C32232308316C00020
:1006F0008312D22283163B0883126C020319892BC2
:100700006C088316C0000C30C1000130C200831297
:10071000C322080083163D088312EE0083163C08AE
:100720008312EF008316BB0803199A2B8312551509
:100730009C2B8316831255116E088316C0000C3053
:10074000C1000430C2008312C32232308316C000BD
:100750008312D2226F088316C0000C30C100033010
:10076000C2008312C32232308316C0008312D22209
:10077000551DC22B0C308316C4007530C500831282
:10078000B022C92B0C308316C4007630C50083120A
:10079000B0220800831639108312551DD22B831600
:1007A000391483126F088316BA0083126E088316F9
:1007B000BB0038088312EE076E080A3C0318E32BCF
:1007C000EF0A0A30EE026F080A3C0318EA2B5515AF
:1007D0000A30EF02F701831639187715831255088E
:1007E000770604390319052C551DFE2B0C30831692
:1007F000C4007330C5008312B022052C0C30831660
:10080000C4007430C5008312B02232308316C00099
:100810008312D22283163A0883126F020319192C0D
:100820006F088316C0000C30C1000330C200831271
:10083000C32232308316C0008312D22283163B08B3
:1008400083126E0203192D2C6E088316C0000C3023
:10085000C1000430C2008312C32208008C1E2E2C5B
:100860001A088316A3008312551C702C83162308C4
:10087000233C03193F2C23080D3C031D622C8312DB
:1008800055108316A7014030A600A5012C30A40006
:10089000260884008313271883170008A80024085B
:1008A0008400831325188317280880008008031903
:1008B0005C2CA40AA60A482C8A15831200288A11E7
:1008C000702C831683125408133C031C702C403088
:1008D0005407840083138316230880008312D40AEC
:1008E000831623082D3C031D8D2C8312551483166B
:1008F000A401A5014030840083132408840725083F
:10090000831251208000003803198B2C8316A50A0E
:10091000A40A7A2C8312D401831683128C128A11B2
:100920000A122D28201F2029753A69376110E432F8
:100930002038F23A65316100201F2028F237E2307A
:100940006E326F10ED37E43AEC37203AE9326D3809
:100950006F00201F2028F237E2306E326F10ED3723
:10096000E43AEC3720387537F4377300201F20281D
:10097000F237E2306E326F10ED37E43AEC37A031E7
:10098000EF367537E931E131E937EE3273000D109A
:100990003E10C131F434F630E3346F37A03661379E
:1009A000F5306C10E4322038F532723A6F000D10D9
:1009B0003E10D437F13A6510E337723A6F000D10EC
:1009C0003E10D437F13A6510EC30F2336F000D1061
:1009D0003E10D437F13A6510E437623665000D10E9
:1009E0003E10C139E933EE307210E6306C3AE1392D
:1009F00000010D103E10C139E933EE307210EA3AB1
:100A0000E730E43772000D103E10D232F332F43288
:100A10006110611030000D103E1049376339E53622
:100A20006537F4307210F037721031000D103E103F
:100A300049376339E5366537F4307210F037721094
:100A400032000D103E1049376339E5366537F43012
:100A50007210F037721033000D103E10C43263393B
:100A6000E5366537F4307210F037721031000D1032
:100A70003E10C139E933EE307210E6306C3AE1399C
:100A800000010D103E104937E931E930EC34FA30FD
:100A900072000D103E10C139E933EE307210F0379C
:100AA000F334E3346F3700010D103E10D030F539C8
:100AB0006139203AE9326D386F000D103E10D232A4
:100AC000EE3AE4307210F434E536F03700010D10E0
:100AD0003E104138E133613920286539E937E43780
:100AE00073000D103E10D032F2346F326F103100AF
:100AF0000D103E10D032F2346F326F1032000D10F4
:100B00003E10D032F2346F326F1033000D103E10B1
:100B1000D032F2346F326F1034000D103E10D232EA
:100B2000F332F4326110611030000D103E1049377D
:100B30006339E5366537F4307210F03772103100E2
:100B40000D103E1049376339E5366537F4307210C1
:100B5000F037721032000D103E1049376339E53618
:100B60006537F4307210F037721033000D103E10FC
:100B7000C4326339E5366537F4307210F0377210DD
:100B800031000D103E10C139E933EE307210E630FD
:100B90006C3AE13900010D103E104937E931E93076
:100BA000EC34FA3072000D103E10C139E933EE30EA
:100BB0007210F037F334E3346F3700010D103E103C
:100BC000D232F332F4326F10E732EE32F2306C1779
:100BD0002E17A01020000D103E10C3376E33E933DE
:100BE0007539E131E9376E10E432203A69396F0026
:100BF0000D103E10C3376E33E9337539E131E937F3
:100C00006E10E432203AE9326D386F000B08FB00B9
:100C10008B13831603178C170C1400000000FB1FA6
:100C2000162E831203138B178316031783120C08D7
:100C30007F390319562EFB000D08FC000F08FD003C
:100C40007B0803130C1E222E99007C0803178D00CD
:100C50007D088F0003130B08FE008B138316031708
:100C60008C170C1400000000FE1F3B2E8312031390
:100C70008B178316031783120C0D0E0D7F39031982
:100C8000562EFB000D08FC000F08FD007B08031327
:100C90000C1E482E99007C0803178D007D088F00DC
:100CA0008D0A03198F0A0313062E03170313080076
:100CB0000B08FB008B13831603178C170C14000012
:100CC0000000FB1F682E831203138B178316031774
:100CD0000318902E83120C087F39FB000D08FC00CE
:100CE0000F08FD007B0803130C1E742E99007C086E
:100CF00003178D007D088F0003130B08FE008B1374
:100D0000831603178C170C1400000000FE1F8D2E95
:100D1000831203138B1783160317F40B902EAD2E3B
:100D200083120C0D0E0D7F39FB000D08FC000F081F
:100D3000FD007B0803130C1E9B2E99007C080317F3
:100D40008D007D088F008D0A03198F0A0310F40BA4
:100D5000AA2EAC2E0313582E8316831203130800F9
:100D600003081F398300713083168F0090010F082C
:100D7000031787110C3003139900A23098009030AC
:100D800083129800DF3083168700DF30870004303D
:100D90009300283083129400831694131413831243
:100DA000D4015510E601E701E801E901EA01EB0190
:100DB000EC01ED01D510EE01EF015511F301F20147
:100DC000831603170908C039890003131F129F12E5
:100DD000003003178800831287018801890183137B
:100DE0000313AC01AD01C001C101F001F1010A160C
:080DF00000280A12FA2E63002C
:101000008316BB012C30BA00B901A430B8003A08ED
:10101000840083133B1883170008BC003808840041
:101020008313391883173C088000800803191B2894
:10103000B80ABA0A07282408303A83120319452847
:10104000723A0319E828043A031947290C3A03199C
:101050009929063A0319EB291C3A0319762B013A10
:1010600003198A2B033A03199E2B043A0319452CC2
:101070000E3A0319D02D023A03199B2E093A03198F
:10108000D52E073A0319242FC02F071D5828C73023
:1010900003178D0004308F008A1103130F218A1566
:1010A0000D300C1E512899000A300C1E552899004D
:1010B000313083162602FC3E0318E628043E8312D4
:1010C000C32F83162708BB008A11831285218A1536
:1010D00078088316B800B90083125D088316BD0036
:1010E00083125C088316BC0083125B088316BB0066
:1010F00083125A088316BA008A118312F5218A15C1
:101100008316E62883162708BB008A1183128521DF
:101110008A1578088316B800B90083125908831617
:10112000BD00831258088316BC008312570883162B
:10113000BB00831256088316BA008A118312F52168
:101140008A158316E62883162708BB008A118312A6
:1011500085218A1578088316B800B90083126508BE
:101160008316BD00831264088316BC0083126308D3
:101170008316BB00831262088316BA008A11831299
:10118000F5218A158316E62883162708BB008A11E5
:10119000831285218A1578088316B800B900831256
:1011A00061088316BD00831260088316BC00831299
:1011B0005F088316BB0083125E088316BA008A118B
:1011C0008312F5218A158316E62883168312C02F11
:1011D00083162508313A83120319F528033A0319B7
:1011E0001029013A03192B294629071D0829D73050
:1011F00003178D0004308F008A1103130F218A1505
:101200000D300C1E012999000A300C1E0529990089
:1012100001308316B8008A1183129B228A15462951
:10122000071D2329DF3003178D0004308F008A113A
:1012300003130F218A150D300C1E1C2999000A304A
:101240000C1E2029990002308316B8008A118312DF
:101250009B228A154629071D3E29E73003178D007A
:1012600004308F008A1103130F218A150D300C1ED4
:10127000372999000A300C1E3B2999000330831648
:10128000B8008A1183129B228A154629C02F071D98
:101290005A29EF3003178D0004308F008A11031391
:1012A0000F218A150D300C1E532999000A300C1E8F
:1012B0005729990083162508BB008A1183128521BE
:1012C0008A1578088316B800B9008312650883165A
:1012D000BD00831264088316BC0083126308831662
:1012E000BB00831262088316BA008A118312F521AB
:1012F0008A1583162608BB008A11831285218A1558
:1013000078088316B800B900831261088316BD00FF
:10131000831260088316BC0083125F088316BB002B
:1013200083125E088316BA008A118312F5218A158A
:10133000C02F071DAC29F93003178D0004308F0032
:101340008A1103130F218A150D300C1EA52999004F
:101350000A300C1EA929990083162508BB008A11A2
:10136000831285218A1578088316B800B900831284
:101370005D088316BD0083125C088316BC008312CF
:101380005B088316BB0083125A088316BA008A11C1
:101390008312F5218A1583162608BB008A11831251
:1013A00085218A1578088316B800B9008312590878
:1013B0008316BD00831258088316BC008312570899
:1013C0008316BB00831256088316BA008A11831253
:1013D000F5218A15C02F83162508303A8312031988
:1013E000072A013A0319232A033A03193E2A013A2C
:1013F0000319592A773A0319742A023A0319F72A6A
:101400000F3A03191E2B193A0319582B752B071D78
:101410001A2A033003178D0005308F008A11031339
:101420000F218A150D300C1E132A99000A300C1E4C
:10143000172A99008316BB01BC01BD018A118312D2
:10144000E6228A15752B071D362A0B3003178D00EF
:1014500005308F008A1103130F218A150D300C1EE1
:101460002F2A99000A300C1E332A99000130831666
:10147000B8008A11831226238A15752B071D512A5D
:10148000163003178D0005308F008A1103130F21CA
:101490008A150D300C1E4A2A99000A300C1E4E2A5D
:1014A000990002308316B8008A11831226238A1508
:1014B000752B071D6C2A213003178D0005308F0016
:1014C0008A1103130F218A150D300C1E652A99000D
:1014D0000A300C1E692A990003308316B8008A115D
:1014E000831226238A15752B071D872A2C30031794
:1014F0008D0005308F008A1103130F218A150D30DE
:101500000C1E802A99000A300C1E842A990083162A
:1015100038108312D51C8F2A8316381483126D0855
:101520008316B90083126C088316BA008312EC0884
:1015300003199C2AEC03A72AED080319A32AED033B
:101540000930EC00A72AD5100930ED00EC00F701B6
:1015500083163818F71483125508770602390319D1
:10156000C62AD51CBD2A0C308316C4007330C500B2
:101570008A118312B0228A15C62A0C308316C40041
:101580007430C5008A118312B0228A153230831656
:10159000C0008A118312D2228A1583163908831259
:1015A0006D020319DE2A6D088316C0000C30C100DD
:1015B0000230C2008A118312C3228A153230831688
:1015C000C0008A118312D2228A1583163A08831228
:1015D0006C020319F62A6C088316C0000C30C10097
:1015E0000130C2008A118312C3228A15752B071D90
:1015F0000A2B373003178D0005308F008A11031333
:101600000F218A150D300C1E032B99000A300C1E79
:10161000072B990083162608BB008A1183128521A7
:101620008A1578088316B800C0000C30C100053058
:10163000C2008A118312C3228A15752B071D312B14
:10164000413003178D0005308F008A1103130F21DD
:101650008A150D300C1E2A2B99000A300C1E2E2BD9
:10166000990083162608BB008A11831285218A15EA
:1016700078088316B8002708BB008A1183128521D9
:101680008A1578088316B9002808BB008A118312CE
:1016900085218A1578088316BA003808BB003908F6
:1016A000BC003A08BD008A118312E6228A15752B08
:1016B000071D6B2B493003178D0005308F008A11F1
:1016C00003130F218A150D300C1E642B99000A306C
:1016D0000C1E682B99000C308316C4007130C500B5
:1016E0008A118312B0228A15752BC02F071D892BF2
:1016F000543003178D0005308F008A1103130F211A
:101700008A150D300C1E822B99000A300C1E862B78
:101710009900C02F071D9D2B5D3003178D000530EC
:101720008F008A1103130F218A150D300C1E962B82
:1017300099000A300C1E9A2B9900C02F3030831666
:101740002502FB3E03183E2C053E8312CB2F071DBE
:10175000BA2B673003178D0005308F008A110313F1
:101760000F218A150D300C1EB32B99000A300C1E68
:10177000B72B99000A308316C4007030C5008A1157
:101780008312B0228A1583163E2C071DD82B713088
:1017900003178D0005308F008A1103130F218A155E
:1017A0000D300C1ED12B99000A300C1ED52B990040
:1017B0000A308316C4007130C5008A118312B0222A
:1017C0008A1583163E2C071DF62B783003178D00E3
:1017D00005308F008A1103130F218A150D300C1E5E
:1017E000EF2B99000A300C1EF32B99000A30831658
:1017F000C4007230C5008A118312B0228A15831684
:101800003E2C071D142C7F3003178D0005308F00F0
:101810008A1103130F218A150D300C1E0D2C99000F
:101820000A300C1E112C99000A308316C400733044
:10183000C5008A118312B0228A1583163E2C071D1B
:10184000322C863003178D0005308F008A11031368
:101850000F218A150D300C1E2B2C99000A300C1EFE
:101860002F2C99000A308316C4007430C5008A11E9
:101870008312B0228A1583163E2C83163230C000A4
:101880008A118312D2228A15C02F83162508303A76
:1018900083120319612C013A03197D2C033A0319B1
:1018A000982C013A0319B32C773A0319CE2C023A3B
:1018B0000319512D0F3A0319782D193A0319B22D36
:1018C000CF2D071D742C8D3003178D0005308F0030
:1018D0008A1103130F218A150D300C1E6D2C9900EF
:1018E0000A300C1E712C99008316BB01BC01BD018E
:1018F0008A1183128A238A15CF2D071D902C9530CB
:1019000003178D0005308F008A1103130F218A15EC
:101910000D300C1E892C99000A300C1E8D2C99005C
:1019200001308316B8008A118312CA238A15CF2D7D
:10193000071DAB2CA03003178D0005308F008A11D6
:1019400003130F218A150D300C1EA42C99000A30A8
:101950000C1EA82C990002308316B8008A1183123D
:10196000CA238A15CF2D071DC62CAB3003178D0057
:1019700005308F008A1103130F218A150D300C1EBC
:10198000BF2C99000A300C1EC32C9900033083161B
:10199000B8008A118312CA238A15CF2D071DE12CA6
:1019A000B63003178D0005308F008A1103130F2105
:1019B0008A150D300C1EDA2C99000A300C1EDE2C14
:1019C0009900831638108312551DE92C831638149C
:1019D00083126F088316B90083126E088316BA004B
:1019E0008312EE080319F62CEE03012DEF080319FC
:1019F000FD2CEF030930EE00012D55110930EF00E9
:101A0000EE00F7018316381877158312550877060C
:101A100004390319202D551D172D0C308316C400D1
:101A20007530C5008A118312B0228A15202D0C3022
:101A30008316C4007630C5008A118312B0228A153D
:101A400032308316C0008A118312D2228A1583167F
:101A5000390883126F020319382D6F088316C000EE
:101A60000C30C1000330C2008A118312C3228A15D0
:101A700032308316C0008A118312D2228A1583164F
:101A80003A0883126E020319502D6E088316C000A7
:101A90000C30C1000430C2008A118312C3228A159F
:101AA000CF2D071D642DC13003178D0005308F0029
:101AB0008A1103130F218A150D300C1E5D2D99001C
:101AC0000A300C1E612D990083162608BB008A116E
:101AD000831285218A1578088316B800C0000C305F
:101AE000C1000630C2008A118312C3228A15CF2D8D
:101AF000071D8B2DCB3003178D0005308F008A1109
:101B000003130F218A150D300C1E842D99000A3005
:101B10000C1E882D990083162608BB008A1183129B
:101B200085218A1578088316B8002708BB008A111A
:101B3000831285218A1578088316B9002808BB000E
:101B40008A11831285218A1578088316BA0038080D
:101B5000BB003908BC003A08BD008A1183128A23F1
:101B60008A15CF2D071DC52DD33003178D000530E5
:101B70008F008A1103130F218A150D300C1EBE2D04
:101B800099000A300C1EC22D99000C308316C40037
:101B90007230C5008A118312B0228A15CF2DC02F52
:101BA000071DE32D923003178D0004308F008A113A
:101BB00003130F218A150D300C1EDC2D99000A30FD
:101BC0000C1EE02D9900071DF62D9C3003178D008B
:101BD00004308F008A1103130F218A150D300C1E5B
:101BE000EF2D99000A300C1EF32D99000A30831650
:101BF000C400FF30C5008A118312B0228A15071D68
:101C0000122EA93003178D0004308F008A110313A0
:101C10000F218A150D300C1E0B2E99000A300C1E58
:101C20000F2E99000C308316C400FF30C5008A11B6
:101C30008312B0228A15071D2E2EB63003178D0091
:101C400004308F008A1103130F218A150D300C1EEA
:101C5000272E99000A300C1E2B2E99008316B801EE
:101C60003808093C031C992E3808B90083125D0816
:101C70008316BD0083125C088316BC0083125B08C8
:101C80008316BB0083125A088316BA008A11831286
:101C9000F5218A1583163808B9008312590883166E
:101CA000BD00831258088316BC00831257088316A0
:101CB000BB00831256088316BA008A118312F521DD
:101CC0008A1583163808B900831265088316BD008B
:101CD000831264088316BC00831263088316BB005A
:101CE000831262088316BA008A118312F5218A15BD
:101CF00083163808B900831261088316BD00831269
:101D000060088316BC0083125F088316BB00831231
:101D10005E088316BA008A118312F5218A153230C3
:101D20008316C0008A118312D2228A158316B80A3C
:101D3000302E8312C02F071DAE2EDE3003178D000C
:101D400005308F008A1103130F218A150D300C1EE8
:101D5000A72E99000A300C1EAB2E99000230831674
:101D6000B800FA30C0008A118312D2228A15831675
:101D7000B80BB12E0A30C400FD30C5008A118312A1
:101D8000B0228A1532308316C0008A118312D22203
:101D90008A150C308316C400FD30C5008A118312E9
:101DA000B0228A158A010028C02F071DE82EEB30CB
:101DB00003178D0005308F008A1103130F218A1538
:101DC0000D300C1EE12E99000A300C1EE52E9900F4
:101DD00083162508BB008A11831285218A1578088D
:101DE0008316B8002608BB008A11831285218A1544
:101DF00078088316B9003808BA003908BB003B08D8
:101E00008312EB0083163A088312EA0083163A081D
:101E1000C0000A30C1000130C2008A118312C322FF
:101E20008A1532308316C0008A118312D2228A1595
:101E300083163B08C0000A30C1000230C2008A117C
:101E40008312C3228A15C02F071D372FF8300317BE
:101E50008D0005308F008A1103130F218A150D3074
:101E60000C1E302F99000A300C1E342F9900831657
:101E70002508BB008A11831285218A1578088316EC
:101E8000B8002608BB008A11831285218A157808BC
:101E90008316B9002708BB008A11831285218A1591
:101EA00078088316BA002808BB008A11831285219E
:101EB0008A1578088316BB003808BC003908BD00B5
:101EC0003A08BE003B08BF003D088312E7008316B6
:101ED0003C088312E60083163E088312E80083164E
:101EE0003F088312E90083163F08C0000A30C10092
:101EF0000430C2008A118312C3228A15323083163D
:101F0000C0008A118312D2228A1583163E08C000AF
:101F10000A30C1000330C2008A118312C3228A151D
:101F200032308316C0008A118312D2228A1583169A
:101F30003D08C0000A30C1000530C2008A1183127A
:101F4000C3228A1532308316C0008A118312D2222E
:101F50008A158316BC080319B72F0A30C4007530E0
:101F6000C5008A118312B0228A15BF2F83160A304A
:101F7000C4007630C5008A118312B0228A15C02FA2
:101F80008A110A125F2C0A148A140A158207612822
:101F90008228A328C4280A148A140A158207A72BAA
:081FA000C52BE32B012C1F2CC3
:102000000F308316850083128501831686018312A3
:102010008601DF30831687008312870183168801CB
:1020200083128801831609108910091189118312FE
:102030008901AB018B1BAB178B130A308316C000D1
:102040000A128312D2220A16AB1B8B17071D99287E
:10205000573003178D0000308F000A120313062635
:102060000A16683003178D0000308F000A12031320
:1020700006260A16733003178D0000308F000A12EF
:10208000031306260A16843003178D0000308F00D4
:102090000A12031306260A16953003178D00003026
:1020A0008F000A12031306260A16A63003178D00A6
:1020B00000308F0003100830F4000A120313582672
:1020C0000A16B13003178D0000308F000A12031377
:1020D00006260A16AB3003178D0000308F00031060
:1020E0000730F4000A12031358260A16B3300317F8
:1020F0008D0000308F000A12031306260A162030C6
:102100000C1E802899000D300C1E84289900B430D4
:1021100003178D0000308F000A12031306260A16DB
:10212000C53003178D0000308F000A1203130626F6
:102130000A16AB018B1BAB178B130A308316C0003A
:102140000A128312D2220A16AB1B8B17071DBF2857
:10215000D53003178D0000308F000313AB018B1BAC
:10216000AB178B130A120F210A16AB1B8B170D30FE
:102170000C1EB82899000A300C1EBC28990030307B
:10218000D6003130D7003230D8003330D900343067
:10219000DA003530DB003630DC003730DD0040302F
:1021A000DE004130DF004230E0004330E1004430E7
:1021B000E2004530E3004630E4004730E500AB0183
:1021C0008B1BAB178B130A308316C0000A128312C5
:1021D000D2220A16AB1B8B17071D0529E330031704
:1021E0008D0000308F000313AB018B1BAB178B13DB
:1021F0000A120F210A16AB1B8B170D300C1EFE287E
:1022000099000A300C1E022999001330831693009E
:10221000283083129400831694178312071D2729F0
:10222000F03003178D0000308F000313AB018B1BC0
:10223000AB178B130A120F210A16AB1B8B170D302D
:102240000C1E202999000A300C1E2429990009141B
:10225000EE30831689008312AB018B1BAB178B13F7
:102260000A308316C0000A128312D2220A16AB1B50
:102270008B170910EE30831689008312AB018B1B7C
:10228000AB178B130A308316C0000A128312D222B6
:102290000A16AB1B8B170914EE30831689008312C4
:1022A000AB018B1BAB178B130A308316C0000A12CD
:1022B0008312D2220A16AB1B8B17071D7629FE301C
:1022C00003178D0000308F000313AB018B1BAB177E
:1022D0008B130A120F210A16AB1B8B170D300C1E25
:1022E0006F2999000A300C1E7329990083168C16E9
:0C22F000C03083128B048A110A12F92EF0
:04400E00D42CFF3F70
:00000001FF
;PIC16F887
;CRC=6F36  CREATED="29-ene.-23 18:46"
