:1000000006308A00B42E0000FF00030E8301A10019
:100010000A08A0008A010408A2007708A300780853
:10002000A4007908A5007A08A60003170D08031399
:10003000A70003170F080313A80003170C080313E6
:10004000A90003170E080313AA00831383128C3030
:100050008400801E2D288C1A4E2822088400230834
:10006000F7002408F8002508F9002608FA002708F8
:1000700003178D000313280803178F0003132908A3
:1000800003178C0003132A0803178E00031320089C
:100090008A00210E8300FF0E7F0E09008A110A12CA
:1000A0002A2C0A108A100A118207003400342A15FB
:1000B0002A152A152A152A152A152A152A152A1548
:1000C0002A152A152A152A152A152A152A150D006A
:1000D000A023F23AF037A020D0262014E3142019F0
:1000E000301930100D00BD1EBD1EBD1EBD1EBD1E33
:1000F000BD1EBD1EBD1EBD1EBD1EBD1EBD1EBD1E28
:10010000BD1EBD1EBD1E0D004236F532F4376F3ADE
:100110006810C230F335653AE2306C36A029E33717
:10012000F2322021EF3072320D00BD1EBD1EBD1E09
:10013000BD1EBD1EBD1EBD1EBD1EBD1EBD1EBD1EE7
:10014000BD1EBD1EBD1EBD1EBD1E0D00D632F23928
:10015000E9376E10A539A0162039653BA01273103F
:100160000D003317300046002A152A152A152A15C6
:100170002A152A152A152A152A152A152A152A1587
:100180002A152A152A152A150D0020224528552939
:10019000C121C9274E103A1DA021CF265527C921BC
:1001A000C121C927CE2253100D00201FA0216F3777
:1001B000E634E73AF230E3346F3720326510D03A54
:1001C0006539F4377300201FA024EE34E334613620
:1001D000693DE131E9376E10E432A024B22100011B
:1001E000201F202461316936693AE131E9376E1008
:1001F000E4322032E9397036E13C7300201F2024BC
:1002000061316936693AE131E9376E10E432A03480
:100210006E3A6539F23AF031E937EE3273000B0885
:100220008316B80083128B13831603178C170C14D4
:10023000000000000313B81F202983128B178316B8
:10024000831203170C087F390319832983160313BC
:10025000B800831203170D0883160313B900831225
:1002600003170F0883160313BA00380883120C1EF5
:100270003729990083163908831203178D008316D6
:1002800003133A08831203178F0003130B08831616
:10029000BB0083128B13831603178C170C140000FA
:1002A00000000313BB1F572983128B178316831279
:1002B00003170C0D0E0D7F390319832983160313C1
:1002C000B800831203170D0883160313B9008312B5
:1002D00003170F0883160313BA00380883120C1E85
:1002E0006F29990083163908831203178D0083162E
:1002F00003133A08831203178F008D0A03198F0A1C
:1003000003130F29031703130800303083163A0232
:10031000F63E0318C1290A3E8312C5290030F800B1
:10032000C4298316C1290130F800C4298316C129C4
:100330000230F800C4298316C1290330F800C4290B
:100340008316C1290430F800C4298316C129053059
:10035000F800C4298316C1290630F800C429831681
:10036000C1290730F800C4298316C1290830F800D4
:10037000C4298316C1290930F800C4298316C1296C
:1003800083160030F800831208000A148A100A113C
:1003900082078E29932998299D29A229A729AC296A
:1003A000B129B629BB2983163E080739F7003E0C50
:1003B000F800F80CF80C1F30F805780840078400A6
:1003C000831341188317F801F80AF70AE829F80D92
:1003D000F70BE729BF080319F02978088004F329EF
:1003E000F809780880058312080083163D10BD10B7
:1003F0003D11BD1101303802F73E0318242A093E91
:1004000083127C2A83163D14242A8316BD14242AC1
:1004100083163D14BD14242A83163D15242A831601
:100420003D153D14242A83163D15BD14242A831638
:100430003D15BD143D14242A8316BD15242A8316A8
:10044000BD153D14242A831600303D180130F700F5
:100450003908BE007708BF00C101C0018312D32153
:1004600083163908BE00BF01C1018030C00083126D
:10047000D32100308316BD180130F7003A08BE00C2
:100480007708BF00C101C0018312D32183163A0847
:10049000BE00BF01C1018030C0008312D3210030F3
:1004A00083163D190130F7003B08BE007708BF00F6
:1004B000C101C0018312D32183163B08BE00BF01D6
:1004C000C1018030C0008312D32100308316BD19D2
:1004D0000130F7003C08BE007708BF00C101C00131
:1004E0008312D32183163C08BE00BF01C1018030B6
:1004F000C0008312D32108000A108A140A1182074F
:10050000022A052A082A0C2A0F2A132A172A1C2A2B
:100510001F2A94138C11831645088312930002300E
:10052000941B992A8C1D922A00308316111B0130CE
:100530008312F80008008316111411189D2A0A303E
:10054000C50083128922803083163707B800C500A2
:1005500083128922831611151119AC2A83120800FF
:10056000831611141118B22A4308C5008312892278
:1005700083164408C50083128922831611151119A8
:10058000BF2A831208008316410EF700F030F705EA
:1005900077083F07C2004008C3004208C400831226
:1005A000B0220800BF308400831300080319E52A35
:1005B0000230F800F701F70BDB2AF80BDA2A973044
:1005C000F700F70BE12A800BD82A080083163C08B5
:1005D0008312ED0083163B088312EE008316BA08DF
:1005E0000319F62A8312D614F82A83168312D6101A
:1005F0006D088316BF000C30C0000130C1008312AB
:10060000C32232308316BF008312D2226E088316B3
:10061000BF000C30C0000230C1008312C322323050
:100620008316BF008312D222D61C1E2B0C308316D9
:10063000C3007330C4008312B022252B0C30831604
:10064000C3007430C4008312B0220800831638102F
:100650008312D61C2E2B8316381483126E08831631
:10066000B90083126D088316BA0037088312ED07AC
:100670006D080A3C03183F2BEE0A0A30ED026E08A3
:100680000A3C0318462BD6140A30EE02F7018316F3
:100690003818F71483125608770602390319612BAC
:1006A000D61C5A2B0C308316C3007330C40083123F
:1006B000B022612B0C308316C3007430C400831247
:1006C000B02232308316BF008312D222831639083B
:1006D00083126E020319752B6E088316BF000C304F
:1006E000C0000230C1008312C32232308316BF0023
:1006F0008312D22283163A0883126D020319892BC2
:100700006D088316BF000C30C0000130C100831299
:10071000C322080083163C088312EF0083163B08AF
:10072000F000BA080319982B831256159A2B8316DA
:10073000831256116F088316BF000C30C0000430BE
:10074000C1008312C32232308316BF008312D2222B
:1007500070088316BF000C30C0000330C100831244
:10076000C32232308316BF008312D222561DC02B03
:100770000C308316C3007530C4008312B022C72B1F
:100780000C308316C3007630C4008312B0220800F8
:10079000831638108312561DD02B831638148312FB
:1007A00070088316B90083126F088316BA003708E1
:1007B0008312EF076F080A3C0318E12BF00A0A3096
:1007C000EF0270080A3C0318E82B56150A30F002B5
:1007D000F7018316381877158312560877060439FF
:1007E0000319032C561DFC2B0C308316C3007330E9
:1007F000C4008312B022032C0C308316C300743063
:10080000C4008312B02232308316BF008312D2227A
:100810008316390870020319162C7008BF000C30BB
:10082000C0000330C1008312C32283163230BF00E0
:100830008312D22283163A0883126F020319292CDD
:100840006F088316BF000C30C0000430C100831253
:10085000C32208008C1E2A2C1808AC001A08F800C5
:10086000AC1C342C1812181678088316A2008312B8
:10087000561C742C83162208233C0319432C22088F
:100880000D3C031D662C831256108316A6014130C1
:10089000A500A4012D30A300250884008313261889
:1008A00083170008A70023088400831324188317E4
:1008B0002708800080080319602CA30AA50A4C2C85
:1008C0008A15831200288A11742C83168312550806
:1008D000133C031C742C413055078400831383168A
:1008E000220880008312D50A831622082D3C031D9E
:1008F000912C831256148316A301A4014130840065
:1009000083132308840724088312512080000038B1
:1009100003198F2C8316A40AA30A7E2C8312D501F7
:10092000831683128C128A110A122D28201F202967
:10093000753A69376110E4322038F23A6531610066
:10094000201F2028F237E2306E326F10ED37E43A84
:10095000EC37203AE9326D386F00201F2028F2373B
:10096000E2306E326F10ED37E43AEC3720387537ED
:10097000F4377300201F2028F237E2306E326F10F8
:10098000ED37E43AEC37A031EF367537E931E13134
:10099000E937EE3273000D103E10C131F434F630F9
:1009A000E3346F37A0366137F5306C10E43220380D
:1009B000F532723A6F000D103E10D437F13A6510DF
:1009C000E337723A6F000D103E10D437F13A6510DC
:1009D000EC30F2336F000D103E10D437F13A651051
:1009E000E437623665000D103E10C139E933EE3050
:1009F0007210E6306C3AE13900010D103E10C13939
:100A0000E933EE307210EA3AE730E43772000D1045
:100A10003E10D232F332F4326110611030000D100A
:100A20003E1049376339E5366537F4307210F037D8
:100A3000721031000D103E1049376339E5366537C5
:100A4000F4307210F037721032000D103E1049373A
:100A50006339E5366537F4307210F03772103300C1
:100A60000D103E10C4326339E5366537F43072102C
:100A7000F037721031000D103E10C139E933EE30FD
:100A80007210E6306C3AE13900010D103E10493722
:100A9000E931E930EC34FA3072000D103E10C13902
:100AA000E933EE307210F037F334E3346F3700017E
:100AB0000D103E10D030F5396139203AE9326D38E9
:100AC0006F000D103E10D232EE3AE4307210F43462
:100AD000E536F03700010D103E104138E133613941
:100AE00020286539E937E43773000D103E10D03205
:100AF000F2346F326F1031000D103E10D032F234EC
:100B00006F326F1032000D103E10D032F2346F325F
:100B10006F1033000D103E10D032F2346F326F1070
:100B200034000D103E10D232F332F43261106110F5
:100B300030000D103E1049376339E5366537F43023
:100B40007210F037721031000D103E1049376339C2
:100B5000E5366537F4307210F037721032000D1040
:100B60003E1049376339E5366537F4307210F03797
:100B7000721033000D103E10C4326339E53665370C
:100B8000F4307210F037721031000D103E10C13980
:100B9000E933EE307210E6306C3AE13900010D10A5
:100BA0003E104937E931E930EC34FA3072000D106B
:100BB0003E10C139E933EE307210F037F334E334CC
:100BC0006F3700010D103E10D232F332F4326F1045
:100BD000E732EE32F2306C172E17A01020000D1005
:100BE0003E10C3376E33E9337539E131E9376E10A2
:100BF000E432203A69396F000D103E10C3376E336E
:100C0000E9337539E131E9376E10E432203AE932DF
:100C10006D386F000B08FB008B13831603178C17BE
:100C20000C1400000000FB1F1A2E831203138B17F5
:100C30008316031783120C087F3903195A2EFB0001
:100C40000D08FC000F08FD007B0803130C1E262E68
:100C500099007C0803178D007D088F0003130B0893
:100C6000FE008B13831603178C170C140000000072
:100C7000FE1F3F2E831203138B1783160317831255
:100C80000C0D0E0D7F3903195A2EFB000D08FC00C8
:100C90000F08FD007B0803130C1E4C2E99007C08E6
:100CA00003178D007D088F008D0A03198F0A031327
:100CB0000A2E0317031308000B08FB008B1383167F
:100CC00003178C170C1400000000FB1F6C2E8312FE
:100CD00003138B17831603170318942E83120C0823
:100CE0007F39FB000D08FC000F08FD007B08031393
:100CF0000C1E782E99007C0803178D007D088F004C
:100D000003130B08FE008B13831603178C170C14A8
:100D100000000000FE1F912E831203138B17831611
:100D20000317F50B942EB12E83120C0D0E0D7F3987
:100D3000FB000D08FC000F08FD007B0803130C1ED0
:100D40009F2E99007C0803178D007D088F008D0A67
:100D500003198F0A0310F50BAE2EB02E03135C2E71
:100D6000831683120313080003081F3983007130B0
:100D700083168F0090010F088312AC0183160317AE
:100D800087110C3003139900A23098009030831221
:100D90009800DF3083168700DF308700043093002F
:100DA0002830831294008316941314138312D501F0
:100DB0005610E701E801E901EA01EB01EC01ED0160
:100DC000EE01D610EF01F0015611F401F301831684
:100DD00003170908C039890003131F129F1200303E
:100DE0000317880083128701880189018313031385
:100DF000AD01AE01C101C201F101F2010A160028E4
:060E00000A12012F63003D
:101000008316BA012D30B900B801A330B7003908F2
:10101000840083133A1883170008BB003708840044
:101020008313381883173B088000800803191B2896
:10103000B70AB90A07282308303A8312031945284A
:10104000723A0319E828043A031947290C3A03199C
:101050009929063A0319EB291C3A0319762B013A10
:1010600003198A2B033A03199E2B043A0319452CC2
:101070000E3A0319CE2D023A0319992E093A031993
:10108000D32E073A0319222FBE2F071D5828CB3025
:1010900003178D0004308F008A1103130F218A1566
:1010A0000D300C1E512899000A300C1E552899004D
:1010B000313083162502FC3E0318E628043E8312D5
:1010C000C12F83162608BA008A11831285218A153A
:1010D00078088316B700B80083125E088316BC0038
:1010E00083125D088316BB0083125C088316BA0066
:1010F00083125B088316B9008A118312F5218A15C1
:101100008316E62883162608BA008A1183128521E1
:101110008A1578088316B700B80083125A08831618
:10112000BC00831259088316BB008312580883162B
:10113000BA00831257088316B9008A118312F52169
:101140008A158316E62883162608BA008A118312A8
:1011500085218A1578088316B700B80083126608BF
:101160008316BC00831265088316BB0083126408D3
:101170008316BA00831263088316B9008A1183129A
:10118000F5218A158316E62883162608BA008A11E7
:10119000831285218A1578088316B700B800831258
:1011A00062088316BC00831261088316BB00831299
:1011B00060088316BA0083125F088316B9008A118B
:1011C0008312F5218A158316E62883168312BE2F13
:1011D00083162408313A83120319F528033A0319B8
:1011E0001029013A03192B294629071D0829DB304C
:1011F00003178D0004308F008A1103130F218A1505
:101200000D300C1E012999000A300C1E0529990089
:1012100001308316B7008A1183129B228A15462952
:10122000071D2329E33003178D0004308F008A1136
:1012300003130F218A150D300C1E1C2999000A304A
:101240000C1E2029990002308316B7008A118312E0
:101250009B228A154629071D3E29EB3003178D0076
:1012600004308F008A1103130F218A150D300C1ED4
:10127000372999000A300C1E3B2999000330831648
:10128000B7008A1183129B228A154629BE2F071D9B
:101290005A29F33003178D0004308F008A1103138D
:1012A0000F218A150D300C1E532999000A300C1E8F
:1012B0005729990083162408BA008A1183128521C0
:1012C0008A1578088316B700B8008312660883165B
:1012D000BC00831265088316BB0083126408831662
:1012E000BA00831263088316B9008A118312F521AC
:1012F0008A1583162508BA008A11831285218A155A
:1013000078088316B700B800831262088316BC0001
:10131000831261088316BB00831260088316BA002B
:1013200083125F088316B9008A118312F5218A158A
:10133000BE2F071DAC29FD3003178D0004308F0030
:101340008A1103130F218A150D300C1EA52999004F
:101350000A300C1EA929990083162408BA008A11A4
:10136000831285218A1578088316B700B800831286
:101370005E088316BC0083125D088316BB008312CF
:101380005C088316BA0083125B088316B9008A11C1
:101390008312F5218A1583162508BA008A11831253
:1013A00085218A1578088316B700B80083125A0879
:1013B0008316BC00831259088316BB008312580899
:1013C0008316BA00831257088316B9008A11831254
:1013D000F5218A15BE2F83162408303A831203198B
:1013E000072A013A0319232A033A03193E2A013A2C
:1013F0000319592A773A0319742A023A0319F72A6A
:101400000F3A03191E2B193A0319582B752B071D78
:101410001A2A073003178D0005308F008A11031335
:101420000F218A150D300C1E132A99000A300C1E4C
:10143000172A99008316BA01BB01BC018A118312D5
:10144000E6228A15752B071D362A0F3003178D00EB
:1014500005308F008A1103130F218A150D300C1EE1
:101460002F2A99000A300C1E332A99000130831666
:10147000B7008A11831226238A15752B071D512A5E
:101480001A3003178D0005308F008A1103130F21C6
:101490008A150D300C1E4A2A99000A300C1E4E2A5D
:1014A000990002308316B7008A11831226238A1509
:1014B000752B071D6C2A253003178D0005308F0012
:1014C0008A1103130F218A150D300C1E652A99000D
:1014D0000A300C1E692A990003308316B7008A115E
:1014E000831226238A15752B071D872A3030031790
:1014F0008D0005308F008A1103130F218A150D30DE
:101500000C1E802A99000A300C1E842A990083162A
:1015100037108312D61C8F2A8316371483126E0855
:101520008316B80083126D088316B9008312ED0884
:1015300003199C2AED03A72AEE080319A32AEE0338
:101540000930ED00A72AD6100930EE00ED00F701B2
:1015500083163718F71483125608770602390319D1
:10156000C62AD61CBD2A0C308316C3007330C400B3
:101570008A118312B0228A15C62A0C308316C30042
:101580007430C4008A118312B0228A153230831657
:10159000BF008A118312D2228A158316380883125B
:1015A0006E020319DE2A6E088316BF000C30C000DD
:1015B0000230C1008A118312C3228A153230831689
:1015C000BF008A118312D2228A158316390883122A
:1015D0006D020319F62A6D088316BF000C30C00097
:1015E0000130C1008A118312C3228A15752B071D91
:1015F0000A2B3B3003178D0005308F008A1103132F
:101600000F218A150D300C1E032B99000A300C1E79
:10161000072B990083162508BA008A1183128521A9
:101620008A1578088316B700BF000C30C00005305B
:10163000C1008A118312C3228A15752B071D312B15
:10164000453003178D0005308F008A1103130F21D9
:101650008A150D300C1E2A2B99000A300C1E2E2BD9
:10166000990083162508BA008A11831285218A15EC
:1016700078088316B7002608BA008A1183128521DC
:101680008A1578088316B8002708BA008A118312D1
:1016900085218A1578088316B9003708BA003808FA
:1016A000BB003908BC008A118312E6228A15752B0B
:1016B000071D6B2B4D3003178D0005308F008A11ED
:1016C00003130F218A150D300C1E642B99000A306C
:1016D0000C1E682B99000C308316C3007130C400B7
:1016E0008A118312B0228A15752BBE2F071D892BF4
:1016F000583003178D0005308F008A1103130F2116
:101700008A150D300C1E822B99000A300C1E862B78
:101710009900BE2F071D9D2B613003178D000530EA
:101720008F008A1103130F218A150D300C1E962B82
:1017300099000A300C1E9A2B9900BE2F3030831668
:101740002402FB3E03183E2C053E8312C92F071DC1
:10175000BA2B6B3003178D0005308F008A110313ED
:101760000F218A150D300C1EB32B99000A300C1E68
:10177000B72B99000A308316C3007030C4008A1159
:101780008312B0228A1583163E2C071DD82B753084
:1017900003178D0005308F008A1103130F218A155E
:1017A0000D300C1ED12B99000A300C1ED52B990040
:1017B0000A308316C3007130C4008A118312B0222C
:1017C0008A1583163E2C071DF62B7C3003178D00DF
:1017D00005308F008A1103130F218A150D300C1E5E
:1017E000EF2B99000A300C1EF32B99000A30831658
:1017F000C3007230C4008A118312B0228A15831686
:101800003E2C071D142C833003178D0005308F00EC
:101810008A1103130F218A150D300C1E0D2C99000F
:101820000A300C1E112C99000A308316C300733045
:10183000C4008A118312B0228A1583163E2C071D1C
:10184000322C8A3003178D0005308F008A11031364
:101850000F218A150D300C1E2B2C99000A300C1EFE
:101860002F2C99000A308316C3007430C4008A11EB
:101870008312B0228A1583163E2C83163230BF00A5
:101880008A118312D2228A15BE2F83162408303A79
:1018900083120319612C013A03197D2C033A0319B1
:1018A000982C013A0319B32C773A0319CE2C023A3B
:1018B00003194F2D0F3A0319762D193A0319B02D3C
:1018C000CD2D071D742C913003178D0005308F002E
:1018D0008A1103130F218A150D300C1E6D2C9900EF
:1018E0000A300C1E712C99008316BA01BB01BC0191
:1018F0008A1183128A238A15CD2D071D902C9930C9
:1019000003178D0005308F008A1103130F218A15EC
:101910000D300C1E892C99000A300C1E8D2C99005C
:1019200001308316B7008A118312C8238A15CD2D82
:10193000071DAB2CA43003178D0005308F008A11D2
:1019400003130F218A150D300C1EA42C99000A30A8
:101950000C1EA82C990002308316B7008A1183123E
:10196000C8238A15CD2D071DC62CAF3003178D0057
:1019700005308F008A1103130F218A150D300C1EBC
:10198000BF2C99000A300C1EC32C9900033083161B
:10199000B7008A118312C8238A15CD2D071DE12CAB
:1019A000BA3003178D0005308F008A1103130F2101
:1019B0008A150D300C1EDA2C99000A300C1EDE2C14
:1019C0009900831637108312561DE92C831637149D
:1019D000831270088316B80083126F088316B9004B
:1019E0008312EF080319F62CEF03012DF0080319F9
:1019F000FD2CF0030930EF00012D56110930F000E5
:101A0000EF00F7018316371877158312560877060B
:101A100004390319202D561D172D0C308316C300D1
:101A20007530C4008A118312B0228A15202D0C3023
:101A30008316C3007630C4008A118312B0228A153F
:101A400032308316BF008A118312D2228A15831680
:101A5000380870020319372D7008BF000C30C00021
:101A60000330C1008A118312C3228A1583163230D3
:101A7000BF008A118312D2228A1583163908831275
:101A80006F0203194E2D6F088316BF000C30C00083
:101A90000430C1008A118312C3228A15CD2D071D7F
:101AA000622DC53003178D0005308F008A11031396
:101AB0000F218A150D300C1E5B2D99000A300C1E6B
:101AC0005F2D990083162508BA008A11831285219B
:101AD0008A1578088316B700BF000C30C0000630A6
:101AE000C1008A118312C3228A15CD2D071D892DAD
:101AF000CF3003178D0005308F008A1103130F219B
:101B00008A150D300C1E822D99000A300C1E862D70
:101B1000990083162508BA008A11831285218A1537
:101B200078088316B7002608BA008A118312852127
:101B30008A1578088316B8002708BA008A1183121C
:101B400085218A1578088316B9003708BA00380845
:101B5000BB003908BC008A1183128A238A15CD2D57
:101B6000071DC32DD73003178D0005308F008A1154
:101B700003130F218A150D300C1EBC2D99000A305D
:101B80000C1EC02D99000C308316C3007230C400A7
:101B90008A118312B0228A15CD2DBE2F071DE12D8B
:101BA000963003178D0004308F008A1103130F2124
:101BB0008A150D300C1EDA2D99000A300C1EDE2D10
:101BC0009900071DF42DA03003178D0004308F00FD
:101BD0008A1103130F218A150D300C1EED2D99006B
:101BE0000A300C1EF12D99000A308316C300FF3015
:101BF000C4008A118312B0228A15071D102EAD3041
:101C000003178D0004308F008A1103130F218A15EA
:101C10000D300C1E092E99000A300C1E0D2E990055
:101C20000C308316C300FF30C4008A118312B02227
:101C30008A15071D2C2EBA3003178D0004308F0033
:101C40008A1103130F218A150D300C1E252E9900C1
:101C50000A300C1E292E99008316B7013708093C5B
:101C6000031C972E3708B80083125E088316BC0049
:101C700083125D088316BB0083125C088316BA00CA
:101C800083125B088316B9008A118312F5218A1525
:101C900083163708B80083125A088316BC008312D3
:101CA00059088316BB00831258088316BA008312A2
:101CB00057088316B9008A118312F5218A158316F5
:101CC0003708B800831266088316BC0083126508C3
:101CD0008316BB00831264088316BA00831263085C
:101CE0008316B9008A118312F5218A1583163708E5
:101CF000B800831262088316BC0083126108831641
:101D0000BB00831260088316BA0083125F08831633
:101D1000B9008A118312F5218A1532308316BF006B
:101D20008A118312D2228A158316B70A2E2E8312A5
:101D3000BE2F071DAC2EE23003178D0005308F003B
:101D40008A1103130F218A150D300C1EA52E990040
:101D50000A300C1EA92E990002308316B700FA3003
:101D6000BF008A118312D2228A158316B70BAF2EB9
:101D70000A30C300FD30C4008A118312B0228A15D4
:101D800032308316BF008A118312D2228A150C309A
:101D90008316C300FD30C4008A118312B0228A1555
:101DA0008A010028BE2F071DE62EEF3003178D0095
:101DB00005308F008A1103130F218A150D300C1E78
:101DC000DF2E99000A300C1EE32E9900831624089A
:101DD000BA008A11831285218A1578088316B70004
:101DE0002508BA008A11831285218A15780883167E
:101DF000B8003708B9003808BA003A088312EC0076
:101E0000831639088312EB0083163908BF000A30A5
:101E1000C0000130C1008A118312C3228A153230FA
:101E20008316BF008A118312D2228A1583163A08BC
:101E3000BF000A30C0000230C1008A118312C322E1
:101E40008A15BE2F071D352FFC3003178D00053076
:101E50008F008A1103130F218A150D300C1E2E2FAF
:101E600099000A300C1E322F990083162408BA00FC
:101E70008A11831285218A1578088316B7002508F0
:101E8000BA008A11831285218A1578088316B80052
:101E90002608BA008A11831285218A1578088316CC
:101EA000B9002708BA008A11831285218A1578089B
:101EB0008316BA003708BB003808BC003908BD00DB
:101EC0003A08BE003C088312E80083163B088312E0
:101ED000E70083163D088312E90083163E0883124B
:101EE000EA0083163E08BF000A30C0000430C1007B
:101EF0008A118312C3228A1532308316BF008A11D9
:101F00008312D2228A1583163D08BF000A30C00012
:101F10000330C1008A118312C3228A15323083161E
:101F2000BF008A118312D2228A1583163C08BF0093
:101F30000A30C0000530C1008A118312C3228A15FD
:101F400032308316BF008A118312D2228A1583167B
:101F5000BB080319B52F0A30C3007530C4008A11BD
:101F60008312B0228A15BD2F83160A30C300763043
:101F7000C4008A118312B0228A15BE2F8A110A1258
:101F8000632C0A148A140A15820761288228A32860
:101F9000C4280A148A140A158207A72BC52BE32B21
:041FA000012C1F2CC5
:102000000F308316850083128501831686018312A3
:102010008601DF30831687008312870183168801CB
:1020200083128801831609108910091189118312FE
:102030008901AB018B1BAB178B130A308316BF00D2
:102040000A128312D2220A16AB1B8B17071D99287E
:10205000573003178D0000308F000A1203130A2631
:102060000A16683003178D0000308F000A12031320
:102070000A260A16733003178D0000308F000A12EB
:1020800003130A260A16843003178D0000308F00D0
:102090000A1203130A260A16953003178D00003022
:1020A0008F000A1203130A260A16A63003178D00A2
:1020B00000308F0003100830F5000A1203135C266D
:1020C0000A16B13003178D0000308F000A12031377
:1020D0000A260A16AB3003178D0000308F0003105C
:1020E0000730F5000A1203135C260A16B3300317F3
:1020F0008D0000308F000A1203130A260A162030C2
:102100000C1E802899000D300C1E84289900B430D4
:1021100003178D0000308F000A1203130A260A16D7
:10212000C53003178D0000308F000A1203130A26F2
:102130000A16AB018B1BAB178B130A308316BF003B
:102140000A128312D2220A16AB1B8B17071DBF2857
:10215000D53003178D0000308F000313AB018B1BAC
:10216000AB178B130A120F210A16AB1B8B170D30FE
:102170000C1EB82899000A300C1EBC28990030307B
:10218000D7003130D8003230D9003330DA00343063
:10219000DB003530DC003630DD003730DE0040302B
:1021A000DF004130E0004230E1004330E2004430E3
:1021B000E3004530E4004630E5004730E600AB017F
:1021C0008B1BAB178B130A308316BF000A128312C6
:1021D000D2220A16AB1B8B17071D0529E330031704
:1021E0008D0000308F000313AB018B1BAB178B13DB
:1021F0000A120F210A16AB1B8B170D300C1EFE287E
:1022000099000A300C1E022999001330831693009E
:10221000283083129400831694178312071D2729F0
:10222000F03003178D0000308F000313AB018B1BC0
:10223000AB178B130A120F210A16AB1B8B170D302D
:102240000C1E202999000A300C1E2429990009141B
:10225000EE30831689008312AB018B1BAB178B13F7
:102260000A308316BF000A128312D2220A16AB1B51
:102270008B170910EE30831689008312AB018B1B7C
:10228000AB178B130A308316BF000A128312D222B7
:102290000A16AB1B8B170914EE30831689008312C4
:1022A000AB018B1BAB178B130A308316BF000A12CE
:1022B0008312D2220A16AB1B8B17071D7629FE301C
:1022C00003178D0000308F000313AB018B1BAB177E
:1022D0008B130A120F210A16AB1B8B170D300C1E25
:1022E0006F2999000A300C1E7329990083168C16E9
:0C22F000C03083128B048A110A12002FE8
:04400E00D42CFF3F70
:00000001FF
;PIC16F887
;CRC=E406  CREATED="24-feb.-23 13:21"
